:020000040800F2
:100000000000012049550008A1530008A953000829
:10001000355400083B54000841540008000000001B
:10002000000000000000000000000000475400082D
:1000300053540008000000005F5400086B5400088F
:1000400091550008915500089155000891550008F8
:1000500091550008915500089155000891550008E8
:1000600091550008915500089155000879540008F1
:100070008D540008A15400089155000891550008BE
:100080009155000891550008B55400089155000895
:1000900091550008915500089155000891550008A8
:1000A0009155000891550008915500089155000898
:1000B00091550008D1540008915500089155000849
:1000C0009155000891550008915500089155000878
:1000D000915500089155000891550008E554000815
:1000E0009155000891550008915500089155000858
:1000F0009155000891550008915500089155000848
:100100009155000891550008915500089155000837
:100110009155000891550008915500089155000827
:100120009155000891550008915500089155000817
:1001300000000000000000000000000000000000BF
:1001400000000000000000000000000000000000AF
:10015000000000000000000000000000000000009F
:10016000000000000000000000000000000000008F
:10017000000000000000000000000000000000007F
:10018000000000000000000000000000000000006F
:10019000000000000000000000000000000000005F
:1001A000000000000000000000000000000000004F
:1001B000000000000000000000000000000000003F
:1001C000000000000000000000000000000000002F
:1001D000000000000000000000000000000000001F
:0401E0005FF8E0F1F3
:1001E80010B5054C237833B9044B13B10448AFF369
:1001F80000800123237010BD78000020000000005B
:10020800ECAF000808B5034B1BB103490348AFF333
:10021800008008BD000000007C000020ECAF000852
:1002280081F0004102E000BF83F0004330B54FEA9F
:1002380041044FEA430594EA050F08BF90EA020F0C
:100248001FBF54EA000C55EA020C7FEA645C7FEA9F
:10025800655C00F0E2804FEA5454D4EB5555B8BFC2
:100268006D420CDD2C4480EA020281EA030382EA33
:10027800000083EA010180EA020281EA0303362DC5
:1002880088BF30BD11F0004F4FEA01314FF4801C98
:100298004CEA113102D0404261EB410113F0004FAA
:1002A8004FEA03334CEA133302D0524263EB430361
:1002B80094EA050F00F0A780A4F10104D5F1200EFF
:1002C8000DDB02FA0EFC22FA05F2801841F100015A
:1002D80003FA0EF2801843FA05F359410EE0A5F12E
:1002E80020050EF1200E012A03FA0EFC28BF4CF05F
:1002F800020C43FA05F3C01851EBE37101F0004515
:1003080007D54FF0000EDCF1000C7EEB00006EEB21
:100318000101B1F5801F1BD3B1F5001F0CD34908AB
:100328005FEA30004FEA3C0C04F101044FEA445202
:1003380012F5800F80F09A80BCF1004F08BF5FEA89
:10034800500C50F1000041EB045141EA050130BD69
:100358005FEA4C0C404141EB0101013C28BFB1F57B
:10036800801FE9D291F0000F04BF01460020B1FAC6
:1003780081F308BF2033A3F10B03B3F120020CDA99
:100388000C3208DD02F1140CC2F10C0201FA0CF077
:1003980021FA02F10CE002F11402D8BFC2F1200CDC
:1003A80001FA02F120FA0CFCDCBF41EA0C01904092
:1003B800E41AA2BF01EB0451294330BD6FEA0404DB
:1003C8001F3C1CDA0C340EDC04F11404C4F12002C6
:1003D80020FA04F001FA02F340EA030021FA04F3D8
:1003E80045EA030130BDC4F10C04C4F1200220FA2F
:1003F80002F001FA04F340EA0300294630BD21FA6D
:1004080004F0294630BD94F0000F83F4801306BF32
:1004180081F480110134013D4EE77FEA645C18BF26
:100428007FEA655C29D094EA050F08BF90EA020FBD
:1004380005D054EA000C04BF1946104630BD91EAB5
:10044800030F1EBF0021002030BD5FEA545C05D1B8
:100458004000494128BF41F0004130BD14F58004F7
:100468003CBF01F5801130BD01F0004545F0FE416B
:1004780041F470014FF0000030BD7FEA645C1ABFA0
:10048800194610467FEA655C1CBF0B46024650EAD7
:10049800013406BF52EA033591EA030F41F4002103
:1004A80030BD00BF90F0000F04BF0021704730B589
:1004B8004FF4806404F132044FF000054FF000015E
:1004C80050E700BF90F0000F04BF0021704730B51F
:1004D8004FF4806404F1320410F0004548BF4042F4
:1004E8004FF000013EE700BF42004FEAE2014FEA49
:1004F80031014FEA02701FBF12F07F4393F07F4F24
:1005080081F06051704732F07F4208BF704793F026
:100518007F4F04BF41F40021704730B54FF4607439
:1005280001F0004521F000411CE700BF50EA01023C
:1005380008BF704730B54FF000050AE050EA0102E5
:1005480008BF704730B511F0004502D5404261EB55
:1005580041014FF4806404F132045FEA915C3FF496
:10056800D8AE4FF003025FEADC0C18BF03325FEA33
:10057800DC0C18BF033202EBDC02C2F1200300FAE4
:1005880003FC20FA02F001FA03FE40EA0E0021FA09
:1005980002F11444BDE600BF70B54FF0FF0C4CF4F7
:1005A800E06C1CEA11541DBF1CEA135594EA0C0FA9
:1005B80095EA0C0F00F0DEF82C4481EA030621EAE4
:1005C8004C5123EA4C5350EA013518BF52EA03351F
:1005D80041F4801143F4801338D0A0FB02CE4FF0D1
:1005E8000005E1FB02E506F00042E0FB03E54FF001
:1005F8000006E1FB03569CF0000F18BF4EF0010EF9
:10060800A4F1FF04B6F5007F64F5407404D25FEAF4
:100618004E0E6D4146EB060642EAC62141EA5551A7
:100628004FEAC52040EA5E504FEACE2EB4F1FD0CE9
:1006380088BFBCF5E06F1ED8BEF1004F08BF5FEA67
:10064800500E50F1000041EB045170BD06F0004619
:1006580046EA010140EA020081EA0301B4EB5C04C6
:10066800C2BFD4EB0C0541EA045170BD41F48011BE
:100678004FF0000E013C00F3AB8014F1360FDEBFE3
:10068800002001F0004170BDC4F10004203C35DABF
:100698000C341BDC04F11404C4F1200500FA05F342
:1006A80020FA04F001FA05F240EA020001F00042E3
:1006B80021F0004110EBD37021FA04F642EB060159
:1006C8005EEA430E08BF20EAD37070BDC4F10C0483
:1006D800C4F1200500FA04F320FA05F001FA04F247
:1006E80040EA020001F0004110EBD37041F1000133
:1006F8005EEA430E08BF20EAD37070BDC4F120053E
:1007080000FA05F24EEA020E20FA04F301FA05F2A5
:1007180043EA020321FA04F001F0004121FA04F24D
:1007280020EA020000EBD3705EEA430E08BF20EA1D
:10073800D37070BD94F0000F0FD101F00046400057
:1007480041EB010111F4801F08BF013CF7D041EAD9
:10075800060195F0000F18BF704703F000465200DD
:1007680043EB030313F4801F08BF013DF7D043EAAE
:100778000603704794EA0C0F0CEA135518BF95EA64
:100788000C0F0CD050EA410618BF52EA4306D1D1EB
:1007980081EA030101F000414FF0000070BD50EA0A
:1007A800410606BF1046194652EA430619D094EA94
:1007B8000C0F02D150EA013613D195EA0C0F05D17E
:1007C80052EA03361CBF104619460AD181EA0301D2
:1007D80001F0004141F0FE4141F470014FF000008A
:1007E80070BD41F0FE4141F4780170BD70B54FF025
:1007F800FF0C4CF4E06C1CEA11541DBF1CEA1355A5
:1008080094EA0C0F95EA0C0F00F0A7F8A4EB050486
:1008180081EA030E52EA03354FEA013100F088807D
:100828004FEA03334FF0805545EA131343EA126346
:100838004FEA022245EA111545EA10654FEA0026FB
:100848000EF000419D4208BF964244F1FD0404F5B4
:10085800407402D25B084FEA3202B61A65EB030510
:100868005B084FEA32024FF480104FF4002CB6EBCD
:10087800020E75EB030E22BFB61A754640EA0C004D
:100888005B084FEA3202B6EB020E75EB030E22BF8D
:10089800B61A754640EA5C005B084FEA3202B6EBCE
:1008A800020E75EB030E22BFB61A754640EA9C008D
:1008B8005B084FEA3202B6EB020E75EB030E22BF5D
:1008C800B61A754640EADC0055EA060E18D04FEA1B
:1008D800051545EA16754FEA06164FEAC30343EABB
:1008E80052734FEAC2025FEA1C1CC0D111F4801F88
:1008F8000BD141EA00014FF000004FF0004CB6E781
:1009080011F4801F04BF01430020B4F1FD0C88BF1F
:10091800BCF5E06F3FF6AFAEB5EB030C04BFB6EB2A
:10092800020C5FEA500C50F1000041EB045170BD1D
:100938000EF0004E4EEA113114EB5C04C2BFD4EB4A
:100948000C0541EA045170BD41F480114FF0000ECE
:10095800013C90E645EA060E8DE60CEA135594EA4A
:100968000C0F08BF95EA0C0F3FF43BAF94EA0C0F4D
:100978000AD150EA01347FF434AF95EA0C0F7FF4C2
:1009880025AF104619462CE795EA0C0F06D152EA16
:1009980003353FF4FDAE1046194622E750EA4106FA
:1009A80018BF52EA43067FF4C5AE50EA41047FF40B
:1009B8000DAF52EA43057FF4EBAE12E74FF0FF3C70
:1009C80006E000BF4FF0010C02E000BF4FF0010C41
:1009D8004DF804CD4FEA410C7FEA6C5C4FEA430CBA
:1009E80018BF7FEA6C5C1BD001B050EA410C0CBF09
:1009F80052EA430C91EA030F02BF90EA020F00206B
:100A0800704710F1000F91EA030F58BF994208BFD1
:100A180090422CBFD8176FEAE37040F0010070478E
:100A28004FEA410C7FEA6C5C02D150EA013C07D1E5
:100A38004FEA430C7FEA6C5CD6D152EA033CD3D030
:100A48005DF8040B704700BF8446104662468C462A
:100A58001946634600E000BF01B5FFF7B7FF00285D
:100A680048BF10F1000F01BD4DF808EDFFF7F4FF86
:100A78000CBF012000205DF808FB00BF4DF808ED11
:100A8800FFF7EAFF34BF012000205DF808FB00BF34
:100A98004DF808EDFFF7E0FF94BF012000205DF856
:100AA80008FB00BF4DF808EDFFF7CEFF94BF01200B
:100AB80000205DF808FB00BF4DF808EDFFF7C4FF04
:100AC80034BF012000205DF808FB00BF4FEA410C4D
:100AD8007FEA6C5C02D150EA013C0AD14FEA430C30
:100AE8007FEA6C5C02D152EA033C02D14FF000006D
:100AF80070474FF0010070474FEA410212F50012AB
:100B080015D211D56FF47873B3EB625212D94FEA4C
:100B1800C12343F0004343EA505311F0004F23FA36
:100B280002F018BF404270474FF00000704750EA8B
:100B3800013005D111F0004008BF6FF00040704748
:100B48004FF00000704700BF80F0004002E000BF97
:100B580081F0004142001FBF5FEA410392EA030FA0
:100B68007FEA226C7FEA236C6AD04FEA1262D2EBEA
:100B78001363C1BFD218414048404140B8BF5B42EF
:100B8800192B88BF704710F0004F40F4000020F088
:100B98007F4018BF404211F0004F41F4000121F09E
:100BA8007F4118BF494292EA030F3FD0A2F10102E8
:100BB80041FA03FC10EB0C00C3F1200301FA03F126
:100BC80000F0004302D5494260EB4000B0F5000F49
:100BD80013D3B0F1807F06D340084FEA310102F108
:100BE8000102FE2A51D2B1F1004F40EBC25008BFBA
:100BF80020F0010040EA03007047490040EB000084
:100C0800013A28BFB0F5000FEDD2B0FA80FCACF184
:100C1800080CB2EB0C0200FA0CF0AABF00EBC250B1
:100C280052421843BCBFD0401843704792F0000F9F
:100C380081F4000106BF80F400000132013BB5E7F2
:100C48004FEA41037FEA226C18BF7FEA236C21D068
:100C580092EA030F04D092F0000F08BF08467047CD
:100C680090EA010F1CBF0020704712F07F4F04D19B
:100C7800400028BF40F00040704712F100723CBFAE
:100C880000F50000704700F0004343F0FE4040F4D8
:100C9800000070477FEA226216BF08467FEA236396
:100CA8000146420206BF5FEA412390EA010F40F481
:100CB800800070474FF0000304E000BF10F00043CD
:100CC80048BF40425FEA000C08BF704743F09643B4
:100CD80001464FF000001CE050EA010208BF7047CF
:100CE8004FF000030AE000BF50EA010208BF704756
:100CF80011F0004302D5404261EB41015FEA010C6B
:100D080002BF84460146002043F0B64308BFA3F162
:100D18008053A3F50003BCFA8CF2083AA3EBC25344
:100D280010DB01FA02FC634400FA02FCC2F1200263
:100D3800BCF1004F20FA02F243EB020008BF20F09A
:100D48000100704702F1200201FA02FCC2F1200200
:100D580050EA4C0021FA02F243EB020008BF20EAF5
:100D6800DC7070474FF0FF0C1CEAD0521EBF1CEA23
:100D7800D15392EA0C0F93EA0C0F6FD01A4480EA11
:100D8800010C400218BF5FEA41211ED04FF00063FA
:100D980043EA501043EA5111A0FB01310CF0004026
:100DA800B1F5000F3EBF490041EAD3715B0040EA4C
:100DB800010062F17F02FD2A1DD8B3F1004F40EB1C
:100DC800C25008BF20F00100704790F0000F0CF0EF
:100DD800004C08BF49024CEA502040EA51207F3AB3
:100DE800C2BFD2F1FF0340EAC250704740F400008E
:100DF8004FF00003013A5DDC12F1190FDCBF00F07F
:100E080000407047C2F10002410021FA02F1C2F12C
:100E1800200200FA02FC5FEA310040F1000053EAC8
:100E28004C0308BF20EADC70704792F0000F00F016
:100E3800004C02BF400010F4000F013AF9D040EA1C
:100E48000C0093F0000F01F0004C02BF490011F4B0
:100E5800000F013BF9D041EA0C018FE70CEAD153AE
:100E680092EA0C0F18BF93EA0C0F0AD030F0004C2E
:100E780018BF31F0004CD8D180EA010000F00040E2
:100E8800704790F0000F17BF90F0004F084691F0A0
:100E9800000F91F0004F14D092EA0C0F01D14202DA
:100EA8000FD193EA0C0F03D14B0218BF084608D1A3
:100EB80080EA010000F0004040F0FE4040F40000ED
:100EC800704740F0FE4040F4400070474FF0FF0C80
:100ED8001CEAD0521EBF1CEAD15392EA0C0F93EAC7
:100EE8000C0F69D0A2EB030280EA010C49024FEA19
:100EF800402037D04FF0805343EA111143EA1013D2
:100F08000CF000408B4238BF5B0042F17D024FF489
:100F1800000C8B4224BF5B1A40EA0C00B3EB510F64
:100F280024BFA3EB510340EA5C00B3EB910F24BF4D
:100F3800A3EB910340EA9C00B3EBD10F24BFA3EBD2
:100F4800D10340EADC001B0118BF5FEA1C1CE0D19A
:100F5800FD2A3FF650AF8B4240EBC25008BF20F04D
:100F6800010070470CF0004C4CEA50207F32C2BFA1
:100F7800D2F1FF0340EAC250704740F400004FF03E
:100F88000003013A37E792F0000F00F0004C02BF6F
:100F9800400010F4000F013AF9D040EA0C0093F039
:100FA800000F01F0004C02BF490011F4000F013B93
:100FB800F9D041EA0C0195E70CEAD15392EA0C0FFB
:100FC80008D142027FF47DAF93EA0C0F7FF470AF33
:100FD800084676E793EA0C0F04D14B023FF44CAF76
:100FE80008466EE730F0004C18BF31F0004CCAD10B
:100FF80030F000427FF45CAF31F000437FF43CAF47
:101008005FE700BF4FF0FF3C06E000BF4FF0010C68
:1010180002E000BF4FF0010C4DF804CD4FEA40024A
:101028004FEA41037FEA226C18BF7FEA236C11D094
:1010380001B052EA530C18BF90EA010F58BFB2EB47
:10104800030088BFC81738BF6FEAE17018BF40F0C7
:10105800010070477FEA226C02D15FEA402C05D17B
:101068007FEA236CE4D15FEA412CE1D05DF8040B00
:10107800704700BF844608466146FFE70FB5FFF793
:10108800C9FF002848BF10F1000F0FBD4DF808ED4B
:10109800FFF7F4FF0CBF012000205DF808FB00BF3C
:1010A8004DF808EDFFF7EAFF34BF012000205DF896
:1010B80008FB00BF4DF808EDFFF7E0FF94BF0120E3
:1010C80000205DF808FB00BF4DF808EDFFF7D2FFE0
:1010D80094BF012000205DF808FB00BF4DF808ED23
:1010E800FFF7C8FF34BF012000205DF808FB00BFF0
:1010F8004FEA40024FEA41037FEA226C02D15FEADD
:10110800402C08D17FEA236C02D15FEA412C02D13E
:101118004FF0000070474FF0010070474FEA40025F
:10112800B2F1FE4F0FD34FF09E03B3EB12620DD90D
:101138004FEA002343F0004310F0004F23FA02F077
:1011480018BF404270474FF00000704712F1610F1E
:1011580001D1420205D110F0004008BF6FF00040F5
:1011680070474FF00000704742000ED2B2F1FE4FB8
:101178000BD34FF09E03B3EB126209D44FEA00235E
:1011880043F0004323FA02F070474FF00000704725
:1011980012F1610F01D1420202D14FF0FF307047C6
:1011A8004FF00000704700BF80B582B000AF786094
:1011B80039607B683968184603F0F3F900BF0837CF
:1011C800BD4680BD80B582B000AF786039607B686D
:1011D8003968184603F0FCF900BF0837BD4680BDE2
:1011E80080B584B000AF78600023FB737B68184635
:1011F80003F028FA03461A46FB7B934234BF0123C7
:101208000023DBB2002B1DD07B68FA7B1146184601
:1012180003F024FA0346002B14BF01230023DBB29A
:10122800002B0ED07B68FA7B1146184603F016FA9D
:1012380003461A68126818469047FB7B0133FB7314
:10124800D4E700BF00BF1037BD4680BD80B582B06F
:1012580000AF78607B68184603F00EFA7B68184682
:101268000837BD4680BD80B582B000AF78607B6826
:101278001846FFF7EBFF7B6818460837BD4680BD68
:1012880080B582B000AF78607B681846FFF7DEFF54
:101298007B68343334220021184609F057FE7B68F6
:1012A80034331846FFF7DFFF7B6800229A667B68B5
:1012B8000122DA66034803F0E9F97B681846083723
:1012C800BD4680BD9400002080B500AF024800F004
:1012D8009BF800BF80BD00BF9800002080B582B099
:1012E80000AF78607B681B7983F00103DBB2002BC9
:1012F80007D07B6801221A717B6819460348FFF7FB
:1013080053FF00BF0837BD4680BD00BF98000020CE
:1013180080B582B000AF78607B681B79002B07D05E
:101328007B6800221A717B6819460348FFF74AFF59
:1013380000BF0837BD4680BD9800002080B483B048
:1013480000AF7860044A7B681A607B6818460C37DF
:10135800BD4680BC704700BFD4B0000880B582B0DD
:1013680000AF78607B681846FFF7E8FF034A7B68A0
:101378001A607B6818460837BD4680BDC8B00008AB
:1013880080B582B000AF78607B681846FFF7E6FF4B
:10139800064A7B681A607B6800229A607B68002294
:1013A8001A717B6818460837BD4680BDBCB0000876
:1013B80080B582B000AF786039607B681846FFF767
:1013C800CDFF094A7B681A607B6800229A607B68B7
:1013D80000221A713968786800F022F87B6818468C
:1013E8000837BD4680BD00BFBCB0000880B483B0DC
:1013F80000AF78607B689B685A1C7B689A6000BF66
:101408000C37BD4680BC704780B582B000AF7860AD
:101418007B681846FFF7E4FE00BF0837BD4680BD6D
:1014280080B582B000AF786039607B6800229A602E
:101438007B683A68DA607B681846FFF74FFF00BFA1
:101448000837BD4680BD80B483B000AF78607B6844
:101458009A687B68DB689A422CBF01230023DBB2C1
:10146800002B04D07B6800229A60012300E000234F
:1014780018460C37BD4680BC704780B582B000AFB7
:1014880078607B6800229A607B681846FFF740FF07
:1014980000BF0837BD4680BD80B483B000AF786018
:1014A8007B689A687B68DB689A422CBF012300231B
:1014B800DBB218460C37BD4680BC704780B582B099
:1014C80000AF78607B681846FFF708FF00BF083751
:1014D800BD4680BD80B483B000AF78607B681B795F
:1014E80018460C37BD4680BC704780B483B000AF47
:1014F800786039607B683A681A6000BF0C37BD466F
:1015080080BC704780B582B000AF78607B681A688D
:101518007B681B681B681B681046984700BF083724
:10152800BD4680BD80B582B000AF78600E4804F03B
:1015380045FA7B68B3F8783040F69802934203D9AD
:101548007B68012283F88C207B689A8B7B68A3F8E0
:1015580078207B68B3F878207B68A3F8762000BFF2
:101568000837BD4680BD00BF08010020B0B584B073
:1015780000AF7860624804F029FE0121604804F059
:101588006FFE02467B6893F8843011B27A680C3398
:101598005B0013440A46DA800221594804F060FED1
:1015A80001467B6893F884301A4609B27B68183282
:1015B80023F812100321524804F052FE02467B68B9
:1015C80093F8843011B27A6820335B0013440A46DA
:1015D8005A807B68012283F887207B6893F88630DD
:1015E80083F00103DBB2002B00F08E807B680022C1
:1015F800A3F8F4207B680022A3F8F6207B68002279
:10160800A3F8F8200023FB60FB68082B37DC7B6815
:10161800B3F9F4309AB27968FB680C335B000B4479
:10162800B3F906309BB213449BB21AB27B68A3F895
:10163800F4207B68B3F9F6309AB27B68F968183100
:1016480033F911309BB213449BB21AB27B68A3F8EA
:10165800F6207B68B3F9F8309AB27968FB682033D2
:101668005B000B44B3F902309BB213449BB21AB22D
:101678007B68A3F8F820FB680133FB60C4E77B684C
:10168800B3F9F4301F4A82FB03125210DB17D31A46
:101698001AB27B68A3F8F4207B68B3F9F630194ACC
:1016A80082FB03125210DB17D31A1AB27B68A3F815
:1016B800F6207B68B3F9F830124A82FB0312521005
:1016C800DB17D31A1AB27B68A3F8F8207B680022CC
:1016D80083F8D6207B68002283F8D7207B68002215
:1016E80083F8D8207B68002283F8DC207B680022FE
:1016F80083F8E2207B68002283F8E32061E200BFE0
:1017080038010020398EE3387B6893F88630002B47
:1017180000F057827B6893F884307A680C335B005A
:101728001344B3F906301A467B68B3F9F430D31A78
:1017380083EAE372A2EBE3727B6893F8843011B218
:101748007A6844335B0013440A46DA807B6893F86E
:1017580084301A467B68183233F912301A467B688F
:10176800B3F9F630D31A83EAE372A2EBE3727B682B
:1017780093F8843011B27A6858335B0013440A46F0
:101788005A807B6893F884301A467B68183233F99C
:1017980012301A467B68B3F9F630D31A83EAE3723B
:1017A800A2EBE3727B6893F88430796820335B009E
:1017B8000B44B3F9023019467B68B3F9F830CB1AF9
:1017C800002BB8BF5B42D31A83EAE372A2EBE37241
:1017D8007B6893F8843011B27A6860335B001344F5
:1017E8000A469A807B6893F884307A6820335B00D5
:1017F8001344B3F902301A467B68B3F9F830D31AA8
:1018080083EAE371A1EBE3717B6893F884301A46AD
:1018180009B27B68503223F812107B6893F8843041
:101828001A467B68183233F912301A467B68B3F9C6
:10183800F630D21A13469B0013445B00C44A82FB5D
:1018480003129210DB17D31A1AB27B68A3F87A2016
:101858007B6893F884307A6820335B001344B3F9CB
:1018680002301A467B68B3F9F830D21A13469B0047
:1018780013445B00B64A82FB03129210DB17D31A9B
:101888001AB27B68A3F87E207B68B3F97A309AB2E3
:101898007B68B3F97E309BB213449BB25B429BB228
:1018A8001AB27B68A3F87C207B6893F884307A6846
:1018B80060335B001344B3F904301A467B68B3F90C
:1018C800F63019467B68B3F9F830CB1A002BB8BF4D
:1018D8005B429A4215DC7B6893F88D30002B10D060
:1018E8007B6893F8D7300133DAB27B6883F8D72066
:1018F8007B6893F8D730062B03D97B68012283F8DD
:1019080088207B6893F884307A6858335B001344E6
:10191800B3F90230052B15DC7B6893F88D30002B6A
:1019280010D07B6893F8D6300133DAB27B6883F83D
:10193800D6207B6893F8D630062B03D97B68012222
:1019480083F888207B6893F884301A467B68503285
:1019580033F91230052B15DC7B6893F88D30002B9A
:1019680010D07B6893F8D8300133DAB27B6883F8FB
:10197800D8207B6893F8D830062B03D97B680122DE
:1019880083F888207B6893F884307A6844335B0056
:101998001344B3F906306E4A82FB03129210DB1728
:1019A800D31A1BB21A467B68B3F8DA309A4215DBB1
:1019B8007B6893F88D30002B10D07B6893F8DC306F
:1019C8000133DAB27B6883F8DC207B6893F8DC307B
:1019D800032B03D97B68012283F889207B6893F85D
:1019E80084307A6858335B001344B3F90230584A9C
:1019F80082FB03129210DB17D31A1BB21A467B68BC
:101A0800B3F8E0309A4226DB7B6893F88D30002BE0
:101A180021D07B6893F8E2300133DAB27B6883F82F
:101A2800E2207B6893F8E230022B14D97B6893F8A4
:101A3800DD300133DAB27B6883F8DD207B68002271
:101A480083F8E2207B6893F8DD30012B03D97B68AB
:101A5800012283F88A207B6893F884301A467B68D1
:101A6800503233F912303A4A82FB03129210DB17D4
:101A7800D31A1BB21A467B68B3F8E0309A4226DBC9
:101A88007B6893F88D30002B21D07B6893F8E33086
:101A98000133DAB27B6883F8E3207B6893F8E3309C
:101AA800022B14D97B6893F8DD300133DAB27B68F6
:101AB80083F8DD207B68002283F8E3207B6893F8B5
:101AC800DD30012B03D97B68012283F88B207B68EA
:101AD800B3F97A3019467B68B3F97C30DA0F1344CE
:101AE8005B101BB2CA1A7B68B3F97E30D90F0B445E
:101AF8005B101BB2D31A0221184602F0DDFD044622
:101B08000D467B68B3F97C301A4613461B01134413
:101B1800104A82FB0312D210DB17D21A7B68B3F982
:101B28007E3019460B461B010B440A4981FB030111
:101B3800C910DB175B1A13440221184602F0BCFDDA
:101B480002460B4620462946FEF770FB04E000BF1C
:101B5800310CC3306766666602460B461046194666
:101B680008F076FA02460B46FEF760FB02460B4683
:101B7800104619464FF000022B4BFEF737FE02467F
:101B88000B4610461946FEF7B7FF03461AB27B68A4
:101B9800A3F882207B68B3F980309AB27B68B3F9E6
:101BA800823019467B68B3F98030CB1A002B00DAF3
:101BB80003339B109BB213449BB21AB27B68A3F801
:101BC80080207B6893F88430072B08D87B6893F8CB
:101BD80084300133DAB27B6883F884201FE07B68A5
:101BE800002283F884207B68002283F8D6207B6853
:101BF800002283F8D7207B68002283F8D8207B68EE
:101C0800002283F8DC207B68002283F8E2207B68CE
:101C1800002283F8E3207B68002283F8DD2000BFE0
:101C28001037BD46B0BD00BF0000084080B483B087
:101C380000AF7860044A7B681A607B6818460C37E6
:101C4800BD4680BC704700BFB0B0000880B582B008
:101C580000AF786039607B681846FFF7E7FF094AEC
:101C68007B681A607B683A685A603B689B687A6848
:101C780011461846FFF739FC7B6818460837BD46F9
:101C880080BD00BFA4B0000880B582B000AF786006
:101C98007B685B681846FFF745FC00BF0837BD4600
:101CA80080BD000080B582B000AF786039607B6885
:101CB8001846FFF7BBFF094A7B681A607B683A68D9
:101CC8005A603B68DB687A6811461846FFF70DFCD6
:101CD8007B6818460837BD4680BD00BF98B000082D
:101CE80080B582B000AF78607B685B681846FFF704
:101CF8003DFC00BF0837BD4680BD000080B584B0FC
:101D080000AFF860B9607A60FB70FB681846FFF7AF
:101D180025FB744AFB681A60FB68BA689A60FB681E
:101D28007A68DA60FB68FA781A74FB683A8B5A8228
:101D3800FB6800229A82FB681E3300221A605A60F0
:101D48009A60DA601A82FB68303300221A605A609F
:101D58009A60DA601A82FB68423300221A605A607D
:101D68009A60DA601A82FB685433202200211846F0
:101D780009F0ECF8FB680022A3F87420FB68002245
:101D8800A3F87620FB680022A3F87820FB680022DD
:101D9800A3F87A20FB680022A3F87C20FB680022C5
:101DA800A3F87E20FB680022A3F88020FB680022AD
:101DB800A3F88220FB68002283F88420FB680022B5
:101DC80083F88520FB68002283F88620FB680022C0
:101DD80083F88720FB68002283F88820FB680022AC
:101DE80083F88920FB68002283F88A20FB68002298
:101DF80083F88B20FB68002283F88C20FB68002284
:101E080083F88D20FB688E3300221A605A609A602E
:101E1800DA601A82FB68A03300221A605A609A605E
:101E2800DA601A82FB68B23300221A605A609A603C
:101E3800DA601A82FB68C43300221A605A609A601A
:101E4800DA601A82FB68002283F8D620FB68002239
:101E580083F8D720FB68002283F8D820FB68142277
:101E6800A3F8DA20FB68002283F8DC20FB68002254
:101E780083F8DD20FB68002283F8DE20FB6814224B
:101E8800A3F8E020FB68002283F8E220FB68002228
:101E980083F8E320FB68E433F9681846FFF7D6FEB9
:101EA800FB68EC33F9681846FFF7FCFEFB68002274
:101EB800A3F8F420FB680022A3F8F620FB680022B0
:101EC800A3F8F820FB6800221A713B8B002B03D083
:101ED800FB681846FFF702FAFB6818461037BD463C
:101EE80080BD00BF8CB0000880B483B000AF7860BC
:101EF8007B68002283F8862000BF0C37BD4680BC73
:101F0800704780B483B000AF78607B68012283F8A3
:101F1800862000BF0C37BD4680BC704780B483B0B4
:101F280000AF78600B46FB70FB787A6808335B007B
:101F38001344DB8818460C37BD4680BC704780B414
:101F480083B000AF78600B46FB70FB78012B0AD199
:101F58007B6893F884307A680C335B001344B3F9D8
:101F680006309BB21BE0FB78022B09D17B6893F803
:101F780084301A467B68183233F912309BB20EE06F
:101F8800FB78032B0AD17B6893F884307A68203376
:101F98005B001344B3F902309BB200E000231846FB
:101FA8000C37BD4680BC704780B483B000AF786002
:101FB8007B68B3F980309BB218460C37BD4680BCAD
:101FC800704780B483B000AF78607B68B3F8763030
:101FD80018460C37BD4680BC704780B483B000AF4C
:101FE80078607B68002283F8872000BF0C37BD46E5
:101FF80080BC704780B483B000AF78607B680022F3
:1020080083F8882000BF0C37BD4680BC704780B479
:1020180083B000AF78607B6893F8893018460C3736
:10202800BD4680BC704780B483B000AF78607B68E1
:10203800002283F8892000BF0C37BD4680BC70475A
:1020480080B483B000AF78607B6893F88A30184614
:102058000C37BD4680BC704780B483B000AF786051
:102068007B68002283F88A2000BF0C37BD4680BCFD
:10207800704780B483B000AF78607B6893F88B308A
:1020880018460C37BD4680BC704780B483B000AF9B
:1020980078607B68002283F88B2000BF0C37BD4630
:1020A80080BC704780B483B000AF78607B6893F8D9
:1020B8008C3018460C37BD4680BC704780B483B05E
:1020C80000AF78607B68002283F88C2000BF0C3753
:1020D800BD4680BC704780B483B000AF78600B46C3
:1020E8007B807B88322B8CBF01230023DAB27B688C
:1020F80083F88D2000BF0C37BD4680BC70470000B8
:1021080080B582B000AF78607B689B8A5A1C91B218
:102118007A6891827A68528A93422CBF01230023FD
:10212800DBB2002B0BD07B6800229A827B6803F11C
:1021380016017B681B7C1A460D4803F061FB7B681F
:102148009B8A002B0CBF01230023DBB2002B0AD093
:102158007B6893F8863083F00103DBB2002B02D052
:10216800044803F0A5FF00BF0837BD4680BD00BF87
:10217800080100203801002080B483B000AF7860E7
:102188000B467B807B687A88A3F8DA2000BF0C377F
:10219800BD4680BC704780B483B000AF78600B4602
:1021A8007B807B687A88A3F8E02000BF0C37BD46A7
:1021B80080BC704780B582B000AF78607B681B68D0
:1021C800044A934202D10448FFF79CF900BF08373C
:1021D800BD4680BD002401405003002080B582B078
:1021E80000AF78607B681B68044A934202D10448B8
:1021F800FFF788F900BF0837BD4680BD00280140B9
:102208005403002080B485B000AFF860B96013466D
:10221800FB80FB68BA681A60FB68FA889A80FB68DA
:1022280018461437BD4680BC704780B582B000AFF1
:1022380078607B6818687B689B880122194605F0DE
:1022480024F900BF0837BD4680BD80B582B000AF15
:1022580078607B6818687B689B880022194605F0BF
:1022680014F900BF0837BD4680BD80B582B000AF05
:1022780078607B681A687B689B881946104605F069
:10228800EDF80346002B14BF01230023DBB21846E8
:102298000837BD4680BD80B582B000AF78600B4678
:1022A800FB70FB78002B03D07868FFF7BEFF02E0D5
:1022B8007868FFF7CAFFFB7818460837BD4680BD27
:1022C80080B582B000AF78607868FFF7CEFF03462C
:1022D80018460837BD4680BD80B483B000AF78602B
:1022E8007B68054A5A607B68044A9A607B6818468E
:1022F8000C37BD4680BC704700401C4633139543DD
:1023080090B583B000AF78600B467B807B88184619
:10231800FEF7D4FC034619462D48FEF719FC034680
:102328001A467B681A607B881846FEF7C7FC024687
:102338007B681B6819461046FEF7C8FD03461A4617
:102348007B681A607B681B6822491846FEF70AFDFD
:1023580003461A467B681A607B681B68184607F0B4
:102368008BFC04467B685B68184607F085FC0346CF
:1023780019462046FEF7ECFB034617491846FEF7B8
:10238800A5FD03461C467B689B6819464FF07E50A6
:10239800FEF79CFD034619462046FEF7DBFB034685
:1023A80019464FF07E50FEF791FD03461A467B68AA
:1023B800DA607B68DB681846FEF7B0FE03461BB29E
:1023C8009BB2A3F211139BB218460C37BD4690BDC1
:1023D80000F07F4500401C460000794580B582B07A
:1023E80000AF78607B681B68044A934202D10448B6
:1023F800FFF788F800BF0837BD4680BD0048004099
:102408005803002080B582B000AF78600B467B800F
:102418007B681B68044A934202D10448FFF772F8AC
:1024280000BF0837BD4680BD004800405C0300205F
:1024380080B584B000AFF860B9607A60FB68BA68AC
:102448001A60FB687A685A60FB6808331846FEF71A
:1024580097FFFB6800221A76FB6800225A76FB6811
:1024680000229A76FB6818461037BD4680BD80B5B5
:1024780082B000AF78607B6801225A767B680022C0
:102488009A767B6808331846FEF7F7FF00BF0837CF
:10249800BD4680BD80B582B000AF78600A4B00228F
:1024A8005A630021094805F0C1FE7B6800229A762C
:1024B8007B6800225A767B6808331846FEF7DDFFF2
:1024C80000BF0837BD4680BD000800403C02002020
:1024D80080B483B000AF78607B681B7E18460C37E9
:1024E800BD4680BC7047000080B582B000AF786000
:1024F8007B685B7E002B42D07B689B7E83F0010368
:10250800DBB2002B3BD07B685B68B3F87030B3F567
:10251800967F34D30021364805F0CEFD354B40F286
:1025280007725A637868FFF7D3FF0346002B0CD075
:102538007B6808331846FEF7CDFF034683F0010396
:10254800DBB2002B01D0012300E00023002B06D0D2
:102558007B6808334FF47A711846FEF761FF7B6891
:1025680008331846FEF798FF0346002B07D07B6810
:1025780008331846FEF781FF7B6801229A767B684C
:102588009B7E002B23D07B685B68B3F86230F02B0E
:1025980004D9184B4FF461725A6318E07B685B6882
:1025A800B3F86230C72B04D8124B40F207725A6353
:1025B8000DE07B685B68B3F862301A466FF0110370
:1025C80003FB02F303F5A35304330A4A53630421BC
:1025D800094804F043FF0346002B14BF01230023DE
:1025E800DAB27B681A7600BF0837BD4680BD00BFE7
:1025F8003C020020000800400014014080B582B071
:1026080000AF786039607B681846FFF70FFB094A0E
:102618007B681A607B683A685A603B681B697A680D
:1026280011461846FEF761FF7B6818460837BD4615
:1026380080BD00BF68B0000880B582B000AF786088
:102648007B685B68184600F005F800BF0837BD4690
:1026580080BD000080B582B000AF78607B68D3F899
:10266800C43040F2DD32934204D97B6840F2DE3256
:10267800C3F8C4207B68D3F8C4207B6893F8C230C1
:10268800591CC8B2796881F8C20019467B683C3188
:1026980033F8113003FB02F3354A3649A1FB031323
:1026A8009B0953637B68D3F8C4207B6893F8C130D7
:1026B800591CC8B2796881F8C10019467B683C3159
:1026C80033F8113003FB02F3294A2A49A1FB03130B
:1026D8009B0993637B68D3F8C4207B6893F8C33065
:1026E800591CC8B2796881F8C30019467B683C3127
:1026F80033F8113003FB02F31D4A1E49A1FB0313F3
:102708009B09D3637B6893F8C130232B03D97B687B
:10271800002283F8C1207B6893F8C230232B03D9A9
:102728007B68002283F8C2207B6893F8C330232B90
:1027380003D97B68002283F8C3207B6893F8EA30CA
:1027480083F00103DBB2002B14BF01230023DAB2AC
:102758007B6883F8EA207B6893F8EA30002B02D084
:10276800054803F0A5FC00BF0837BD4680BD00BF83
:10277800002C0140D34D62103801002080B584B090
:1027880000AFF860B9607A603B60FB6800221A709D
:10279800FB68BA685A60FB687A689A60FB683A68AE
:1027A800DA60FB68BA691A61FB68FA695A61FB6802
:1027B8003A6A9A61FB687A6ADA61FB68BA6A1A62ED
:1027C800FB68FA6A5A62FB683A6B9A62FB687A6B32
:1027D800DA62FB68BA6B1A63FB68FA6B5A63FB68C8
:1027E80038331846FEF7CCFDFB6848331846FEF729
:1027F800C7FDFB6858331846FEF7C2FDFB6868330F
:102808001846FEF7BDFDFB68574A78331146482243
:10281800184608F08DFBFB68002283F8C020FB688F
:10282800002283F8C120FB680C2283F8C220FB68D1
:10283800182283F8C320FB680522C3F8C420FB686C
:1028480040F27E42A3F8C820FB686422A3F8CA209D
:10285800FB681922A3F8CC20FB684FF47A62A3F82E
:10286800CE20FB680022A3F8D020FB680222A3F840
:10287800D220FB680022A3F8D420FB68002283F84A
:10288800D620FB68002283F8D720FB680022A3F833
:10289800D820FB68192283F8DA20FB68002283F825
:1028A800DB20FB68002283F8DC20FB68002283F829
:1028B800DD20FB68002283F8DE20FB68002283F815
:1028C800DF20FB684FF4B472A3F8E020FB684FF4F4
:1028D800BE72A3F8E220FB684FF4FA62A3F8E42082
:1028E800FB68012283F8E620FB68002283F8E720D2
:1028F800FB68002283F8E820FB68002283F8E920BF
:10290800FB68002283F8EA20FB68184AC3F8EC2029
:10291800FB68F033F9681846FFF770FEFB68002281
:102928005A65FB6800225A66FB6800225A67FB68F2
:1029380093F8D730002B0AD10121B86AFFF7ABFC16
:10294800FB68683343F698211846FEF769FDF86B73
:10295800FFF7B6FC03461A46FB6883F8D720FB68E6
:1029680018461037BD4680BD08B00008A086010093
:1029780090B583B000AF78607B689B68184601F01B
:10298800B5FE7B68DB681846FFF7AEFD7B68D3F8B9
:10299800C4207B689B6812B2A3F866207B681A6B18
:1029A8007B689C681046FFF78BFC03461A4694F830
:1029B8007A3062F3041384F87A307B689B687A680B
:1029C800B2F8D420A3F878207B689B6A1846FFF7F2
:1029D80077FC034619467B689A6881F00103D9B2EF
:1029E80092F87A3061F3861382F87A307B689A68B5
:1029F8007B6893F8D61092F87A3061F3451382F821
:102A08007A307B689B68B3F862307A689268B32B37
:102A180094BF01230023D9B292F87B3061F34103BC
:102A280082F87B307B689B68B3F862307A6892687A
:102A3800B3F5967F8CBF01230023D9B292F87B307F
:102A480061F3820382F87B307B689B687A68B2F80E
:102A5800E020A3F874207B689B687A68B2F8D820D5
:102A6800A3F876207B689B687A68B2F8C820A3F838
:102A78006E20B34BDA6A7B689B6892B2A3F8722027
:102A88007B689B68B3F87030B3F5967F04D87B6891
:102A9800012283F8D6200FE07B689B68B3F870307A
:102AA800B3F59B7F08D97B68002283F8D6207B6822
:102AB8005B681846FFF702FB7B689B6893F87A30DF
:102AC800C3F3C013DBB21A467B689B68B3F968305E
:102AD8004F2BCCBF01230023DBB21A437B689B68D2
:102AE800002A14BF01220022D1B293F87A2061F3A0
:102AF800C71283F87A2093F87A30C3F3C013DBB295
:102B0800002B10D07B689B68B3F968307A689268AC
:102B1800452BCCBF01230023D9B292F87A3061F358
:102B2800C71382F87A307B68DB681846FFF7D0FC59
:102B38000346002B06D07B6893F8E630002B01D0C3
:102B4800012300E00023002B02D0786800F0ECFDA0
:102B58007B681B78002B04D0012B00F0A48100F0C7
:102B6800DFBC7B6893F8D730012B72D17B685B6838
:102B780010211846FFF700FB7B685B681421184694
:102B8800FFF709FB7B681B6A00211846FFF783FBE8
:102B98007B689B68B3F87030B3F5967F4ED97B6835
:102BA8009B68B3F87030B3F5077F47D27B689B68A2
:102BB800B3F87030634AA2FB03231B099BB21A4681
:102BC80040F2DE3303FB02F35F4A82FB0312521129
:102BD800DB17D31A732202FB03F35C4A82FB03124E
:102BE8005211DB17D31A9AB27B68A3F8D8207B68F6
:102BF800D3F8EC207B68B3F8D83019460B469B0015
:102C08000B44B2FBF3F39BB21A4692001A445200EB
:102C180013445B009AB27B68A3F8E0207B68B3F8A2
:102C2800E0207B68B3F8E4309A4200F29D807B682C
:102C3800B3F8E4207B68A3F8E02095E07B68DC2209
:102C4800A3F8D8207B68B3F8E4207B68A3F8E020D9
:102C58008AE07B6893F8D730002B40F085807B684A
:102C68005B6810211846FFF787FA7B685B681421B8
:102C78001846FFF790FA7B6868331846FEF70CFC95
:102C88000346002B0AD07B6868331846FEF7F5FB2D
:102C98007B681B6A00211846FFF7FDFA7B689B6872
:102CA800B3F87030B3F5967F54D97B689B68B3F856
:102CB8007030B3F5077F4DD27B689B68B3F87030EE
:102CC800204AA2FB03231B099BB21A464FF46B73DD
:102CD80003FB02F31C4A82FB03125211DB17D31ABF
:102CE800732202FB03F3194A82FB03125211DB170A
:102CF800D31A9AB27B68A3F8D8207B68D3F8EC3053
:102D08007A68B2F8D820B3FBF2F3322202FB03F35D
:102D18005B080F4AA2FB03235B099AB27B68A3F8FE
:102D2800E0207B68B3F8E0207B68B3F8E2309A4291
:102D38001AD27B68B3F8E2207B68A3F8E02013E09E
:102D480000040040CDCCCCCC1F6B193A1F85EB5149
:102D5800EBA00EEA7B68D422A3F8D8207B68B3F8EE
:102D6800E2207B68A3F8E0207B681B6B1846FFF71E
:102D7800A7FA0346002B44D07B6848331846FEF771
:102D8800A9FB034683F00103DBB2002B39D07B6833
:102D98009B6893F87A30C3F3C013DBB283F0010366
:102DA800DBB2002B2DD07B689B6893F87A30C3F395
:102DB8008013DBB283F00103DBB2002B21D07B68E8
:102DC8009B6893F87B30C3F34003DBB283F00103C5
:102DD800DBB2002B15D07B689B6893F87B30C3F37C
:102DE8008003DBB283F00103DBB2002B09D07B68E0
:102DF80093F8D63083F00103DBB2002B01D0012217
:102E080000E000227B6883F8E6207B684833184698
:102E1800FEF742FB0346002B04D07B684833184674
:102E2800FEF72BFB7B6893F8E630002B17D07B6806
:102E380048331846FEF721FB7B68DB681846FFF726
:102E480016FB7B68DB681846FFF742FB0346002B3E
:102E580005D0786800F06AFB7B6801221A707B68ED
:102E68001B6B1846FFF72CFA034683F00103DBB20D
:102E7800002B00F052837B6848331846FEF7FDFAB2
:102E88007B6800225A657B685B6900211846FFF75A
:102E980002FA7B685B681846FFF7ACF87B6800228B
:102EA80083F8E72039E37B685A687B68D3F8C43035
:102EB8009BB219461046FFF70EF97B6893F8D73096
:102EC800012B40F033817B689B68B3F87030B3F511
:102ED800967F4DD97B689B68B3F87030B3F5077F50
:102EE80046D27B689B68B3F87030BC4AA2FB0323C8
:102EF8001B099BB21A4640F2DE3303FB02F3B84AC1
:102F080082FB03125211DB17D31A732202FB03F35D
:102F1800B44A82FB03125211DB17D31A9AB27B68A8
:102F2800A3F8D8207B68D3F8EC207B68B3F8D830B6
:102F380019460B469B000B44B2FBF3F39BB21A46AF
:102F480092001A44520013445B009AB27B68A3F8BB
:102F5800E0207B68B3F8E0207B68B3F8E4309A425D
:102F680010D87B68B3F8E4207B68A3F8E02009E078
:102F78007B68DC22A3F8D8207B68B3F8E4207B6860
:102F8800A3F8E0207B689B68B3F87030934AA2FBF3
:102F980003231B099BB21A467B68D3F8C43003FB92
:102FA80002F38F4AA2FB03235A091346DB009B1A3C
:102FB8001B011A468B4BA3FB02235B099AB27B6861
:102FC800A3F8D4207B6893F8DA3019467B68B3F805
:102FD800C83018467B68D3F8EC20834BDB6AB2FB19
:102FE800F3F303FB00F37A689268B2F87020B3FB3E
:102FF800F2F39B007D4AA2FB03235B08CA187B6897
:10300800C3F8C420784BDB6A7A68B2F8E02005324E
:10301800934294BF01230023DBB2002B09D07B68C5
:103028001B6A01211846FFF736F97B68002283F8EE
:10303800DB207B68B3F8C83042F6E062934204D9DB
:103048007B6842F6E062A3F8C820674BDB6A7A68BF
:10305800B2F8E020934294BF01230023DBB2002B97
:103068001BD07B685B681846FEF79EFF0346A02BC3
:103078008CBF01230023DBB2002B0ED07B68B3F892
:10308800C83041F28832934207D97B68B3F8C83018
:10309800043B9AB27B68A3F8C8207B685B68184633
:1030A800FEF782FF0346222B94BF01230023DBB2E5
:1030B800002B0ED07B68B3F8C83042F6DF6293422B
:1030C80007D87B68B3F8C83001339AB27B68A3F895
:1030D800C820454BDB6A7A68B2F8E0200532934293
:1030E8008CBF01230023DBB2002B00F02E817B680C
:1030F8005B681846FEF758FF03464B2B8CBF01232D
:103108000023DBB2002B00F020817B68B3F8C830C5
:1031180041F26F72934240F218817B68B3F8C8306D
:10312800013B9AB27B68A3F8C8200EE17B6893F84C
:10313800D730002B40F009817B689B68B3F870306A
:10314800B3F5967F56D97B689B68B3F87030B3F5B2
:10315800077F4FD27B689B68B3F870301F4AA2FB89
:1031680003231B099BB21A464FF4757303FB02F342
:103178001B4A82FB03125211DB17D31A732202FB7C
:1031880003F3184A82FB03125211DB17D31A9AB2BF
:103198007B68A3F8D8207B68D3F8EC307A68B2F85B
:1031A800D820B3FBF2F3322202FB03F35B08104A88
:1031B800A2FB03235B099AB27B68A3F8E0207B6833
:1031C800B3F8E0207B68B3F8E2309A421CD27B68FF
:1031D800B3F8E2207B68A3F8E02015E0CDCCCCCC96
:1031E8001F6B193A1F85EB5100040040ABAAAAAA2D
:1031F800EBA00EEA7B68B3F8E2207B68A3F8E02036
:103208007B68D422A3F8D8207B689B68B3F8703019
:10321800A44AA2FB03231B099BB21A467B68D3F876
:10322800C43003FB02F3A04AA2FB03235B09732209
:1032380002FB03F39D4AA2FB03235B099AB27B6856
:10324800A3F8D4207B6893F8DA3019467B68B3F882
:10325800C83018467B68D3F8EC20954BDB6AB2FB84
:10326800F3F303FB00F37A689268B2F87020B3FBBB
:10327800F2F3CA187B68C3F8C4208D4BDB6A7A68FE
:10328800B2F8E0200532934294BF01230023DBB259
:10329800002B09D07B681B6A00211846FEF7FBFF4C
:1032A8007B68002283F8DB207B685B681846FEF7A2
:1032B8007BFE0346222B94BF01230023DBB2002BA5
:1032C8000ED07B68B3F8C83040F69702934207D80F
:1032D8007B68B3F8C83001339AB27B68A3F8C8207A
:1032E800734BDB6A7A68B2F8E020053293428CBFF0
:1032F80001230023DBB2002B1BD07B685B681846D8
:10330800FEF752FE03466E2B8CBF01230023DBB26F
:10331800002B0ED07B68B3F8C83040F2E2429342EB
:1033280007D97B68B3F8C830013B9AB27B68A3F829
:10333800C8207B68B3F8C83040F69702934204D996
:103348007B6840F69802A3F8C8207B68D3F8C4309D
:1033580040F2DD32934204D97B6840F2DE32C3F892
:10336800C4207B6838331846FEF796F80346002BCE
:1033780008D04F4BDB6A7A68B2F8E020934201D05C
:10338800012300E00023002B00F0C9807B6838335C
:103398001846FEF772F87B6803F138027B68B3F8C9
:1033A800D23019461046FEF73BF87B6893F8D730C1
:1033B800012B33D13E4BDB6A7A68B2F8E0209342A6
:1033C80014BF01230023DBB2002B00F0A880384B88
:1033D800DB6AB3F57A6F8CBF01230023DBB2002BC5
:1033E80005D0334BDB6A324A283BD36297E0304B37
:1033F800DB6A7A68B2F8E02093428CBF012300238D
:10340800DBB2002B05D02A4BDB6A294A0A3BD36280
:1034180085E0274BDA6A0132DA6280E07B6893F84C
:10342800D730002B7BD1224BDB6A7A68B2F8E020D8
:10343800934214BF01230023DBB2002B6FD01C4B37
:10344800DB6A7A68B2F8E02093428CBF012300233C
:10345800DBB2002B2ED0164BDB6AB3F51C7F8CBF7A
:1034680001230023DBB2002B16D0114BDB6A40F29C
:10347800DC5293428CBF01230023DBB2002B05D022
:103488000B4BDB6A0A4A203BD36217E0084BDB6A26
:10349800074A033BD36211E0054BDB6A044A013B50
:1034A800D3620BE0CDCCCCCC1F6B193A1F85EB5106
:1034B800000400401C4BDA6A0132DA621A4BDB6AFC
:1034C800B3F51C7F8CBF01230023DBB2002B04D093
:1034D8007B680222A3F8D22021E0134BDB6A40F27A
:1034E8002D2293428CBF01230023DBB2002B04D092
:1034F8007B680522A3F8D22011E00B4BDB6A40F26F
:103508002D22934294BF01230023DBB2002B06D067
:103518007B680722A3F8D22001E000BF00E000BFCB
:1035280000BF0C37BD4690BD0004004080B582B096
:1035380000AF78607B6893F8D730012B11D17B6896
:103548000522A3F8CA207B6841F27072A3F8C8204C
:103558007B680322A3F8D2207B681E2283F8DA2036
:1035680015E07B6893F8D730002B10D17B680522D3
:10357800A3F8CA207B6840F27442A3F8C8207B688D
:103588000222A3F8D2207B68282283F8DA207B68FD
:103598000522C3F8C4207B68D3F8EC307A68B2F807
:1035A800CA20B3FBF2F3354A013BD3620021344809
:1035B80004F082FD0021324805F034FB0421304834
:1035C80004F07AFD04212E4805F02CFB08212C4834
:1035D80004F072FD08212A4805F024FB294804F06C
:1035E8003FFC7B6803F138027B68B3F8D230194698
:1035F8001046FDF715FF7B685B681846FEF781FCEF
:103608007B689A6892F87A306FF3000382F87A3010
:103618007B689A6892F87A306FF3410382F87A30BF
:103628007B689A6892F87A306FF3820382F87A306E
:103638007B689A6892F87B306FF3000382F87B30DE
:103648007B689A6892F87A306FF3C30382F87A300D
:103658007B685B6900211846FEF71DFE7B6893F8BE
:10366800D730002B05D17B681B6A01211846FEF76D
:1036780012FE00BF0837BD4680BD00BF00040040F1
:10368800AC010020F401002080B582B000AF786062
:10369800224B00225A63214B00229A631F4B0022BF
:1036A800DA6300211E4804F0C1FD00211C4805F022
:1036B80065FB04211A4804F0B9FD0421184805F0F7
:1036C8005DFB0821164804F0B1FD0821144805F0F7
:1036D80055FB144804F024FC7B6838331846FDF782
:1036E800CCFE7B68DB681846FEF7D4FE7B680022B8
:1036F80083F8C1207B680C2283F8C2207B681822DB
:1037080083F8C3207B6800221A707B685B681846C0
:10371800FEF7EAFB00BF0837BD4680BD002C01401C
:10372800AC010020F401002080B582B000AF7860C1
:103738007B681B6B1846FEF7C3FD034683F0010345
:10374800DBB2002B3FD17B6858331846FDF7A4FE47
:103758000346002B37D17B68DB681846FEF7B8FEB6
:10376800034683F00103DBB2002B2CD17B689B68F6
:1037780093F87A30C3F3C013DBB2002B23D17B68F4
:103788009B6893F87A30C3F38013DBB2002B1AD10D
:103798007B689B6893F87A30C3F34013DBB2002B45
:1037A80011D17B689B6893F87B30C3F34003DBB28D
:1037B800002B08D17B689B6893F87B30C3F38003A8
:1037C800DBB2002B01D0012300E00023002B00F026
:1037D800CB807B681B6B1846FEF772FD034683F0AF
:1037E8000103DBB2002B0CD07B6858331846FDF779
:1037F80071FE034683F00103DBB2002B01D00123E5
:1038080000E00023002B19D07868FFF73DFF7B68A4
:1038180058331846FDF731FE7B6893F8D730002BF4
:103828000CD17B681B6A01211846FEF734FD7B68C2
:10383800683343F698211846FDF7F2FD7B68583344
:103848001846FDF729FE0346002B0CD07B681B6B3E
:103858001846FEF735FD034683F00103DBB2002B63
:1038680001D0012300E00023002B19D07868FFF76E
:103878000BFF7B6858331846FDF7FFFD7B6893F80C
:10388800D730002B0CD17B681B6A01211846FEF744
:1038980002FD7B68683343F698211846FDF7C0FDA2
:1038A8007B68DB681846FEF713FE034683F00103C6
:1038B800DBB2002B2CD17B689B6893F87A30C3F37A
:1038C800C013DBB2002B23D17B689B6893F87A3056
:1038D800C3F38013DBB2002B1AD17B689B6893F883
:1038E8007A30C3F34013DBB2002B11D17B689B689D
:1038F80093F87B30C3F34003DBB2002B08D17B681D
:103908009B6893F87B30C3F38003DBB2002B01D0B4
:10391800012300E00023002B26D07868FFF7B4FECF
:103928007B6858331846FDF7A8FD7B68483341F299
:1039380088311846FDF774FD7B685B6901211846DC
:10394800FEF7A9FC7B6893F8D730002B0CD17B6875
:103958001B6A01211846FEF79EFC7B68683343F614
:1039680098211846FDF75CFD7B685B681846FEF7F2
:1039780099FB0346002B2ED07B685B681846FEF740
:103988009DFB7B685B6901211846FEF784FC78681B
:10399800FFF77AFE7B689A6892F87A3043F008035A
:1039A80082F87A307B68483341F288311846FDF74F
:1039B80037FD7B6893F8D730002B0CD17B681B6AE6
:1039C80001211846FEF767FC7B68683343F69821A7
:1039D8001846FDF725FD7B685B681846FEF717FB60
:1039E8000346002B0DD07B689B6893F87A30C3F3AD
:1039F8000003DBB283F00103DBB2002B01D001230B
:103A080000E00023002B2ED07B685B681846FEF789
:103A18000AFB7B685B6901211846FEF73CFC786865
:103A2800FFF732FE7B689A6892F87A3043F0010318
:103A380082F87A307B68483341F288311846FDF7BE
:103A4800EFFC7B6893F8D730002B0CD17B681B6A9E
:103A580001211846FEF71FFC7B68683343F698215E
:103A68001846FDF7DDFC7B685B681846FEF7E8FA48
:103A78000346002B0DD07B689B6893F87A30C3F31C
:103A88004003DBB283F00103DBB2002B01D001233A
:103A980000E00023002B2ED07B685B681846FEF7F9
:103AA800DBFA7B685B6901211846FEF7F4FB78684E
:103AB800FFF7EAFD7B689A6892F87A3043F00203D0
:103AC80082F87A307B68483341F288311846FDF72E
:103AD800A7FC7B6893F8D730002B0CD17B681B6A56
:103AE80001211846FEF7D7FB7B68683343F6982117
:103AF8001846FDF795FC7B685B681846FEF7B9FA2F
:103B08000346002B0DD07B689B6893F87A30C3F38B
:103B18008003DBB283F00103DBB2002B01D0012369
:103B280000E00023002B2ED07B685B681846FEF768
:103B3800ACFA7B685B6901211846FEF7ACFB786834
:103B4800FFF7A2FD7B689A6892F87A3043F0040385
:103B580082F87A307B68483341F288311846FDF79D
:103B68005FFC7B6893F8D730002B0CD17B681B6A0D
:103B780001211846FEF78FFB7B68683343F69821CE
:103B88001846FDF74DFC7B685B681846FEF725FA7A
:103B980000BF0837BD4680BD80B582B000AF7860F1
:103BA8007B681B68044A934202D10448FDF7AAFCCB
:103BB80000BF0837BD4680BD0004004060030020F8
:103BC80090B5ADF54F7D0AAF01F0E0FC00F0C4F808
:103BD80000F038FC00F008FC00F050FA00F0D6FBCA
:103BE80000F06CFB00F026F900F0A6F900F000FBED
:103BF80007F54273012250491846FEF703FB07F503
:103C0800407320224D491846FEF7FCFA07F53E732B
:103C18004FF4007248491846FEF7F4FA07F53C736A
:103C2800102246491846FEF7EDFA07F53A734FF4A5
:103C3800004243491846FEF7E5FA07F538734FF492
:103C480080523D491846FEF7DDFA07F536738022A3
:103C58003A491846FEF7D6FA07F534734FF48072DE
:103C680036491846FEF7CEFA07F532734FF400725C
:103C780032491846FEF7C6FA07F530730422304970
:103C88001846FEF7BFFA07F5E270052300930423F0
:103C98002C4A2D49FEF732F807F53E7207F5D27324
:103CA8001146184600F006FF07F5CA731846FEF7D6
:103CB80013FB07F5D27307F5CA7207F5E27107F52A
:103CC8008A70224C0194224C009400F005FF07F5FD
:103CD8008A7207F5E27107F1F8031846FEF7A8FBA8
:103CE80007F1F80407F58A7207F5E271384607F517
:103CF8003073099307F53273089307F53473079304
:103D080007F53673069307F53873059307F53A7385
:103D1800049307F53C73039307F54073029307F583
:103D2800427301930B4B00932346FEF727FD3B4656
:103D38001846FEF71DFEFAE700100140000C01408E
:103D48000008014054030020500300205C030020B9
:103D5800580300206003002080B596B000AF07F13B
:103D6800300328220021184607F0F0F807F11C0359
:103D780000221A605A609A60DA601A613B1D0022BC
:103D88001A605A609A60DA601A615A6101233B63CB
:103D98004FF480337B634FF40033BB6301233B64F0
:103DA8000223FB644FF480333B654FF4E0137B65DB
:103DB80007F13003184603F081FB0346002B14BFBC
:103DC80001230023DBB2002B01D000F0E5FB0F2319
:103DD800FB6102233B6200237B624FF48063BB627A
:103DE8000023FB6207F11C030221184603F0E6FDDD
:103DF8000346002B14BF01230023DBB2002B01D0A4
:103E080000F0CAFB02237B604FF40043FB603B1DBC
:103E1800184603F06FFF0346002B14BF012300234D
:103E2800DBB2002B01D000F0B7FB00BF5837BD460E
:103E380080BD000080B584B000AF3B1D00221A6031
:103E48005A609A603A4B3B4A1A60394B4FF4807279
:103E58009A60374B00221A73354B00221A75344B7F
:103E68004FF46022DA61324B00225A60304B042250
:103E78001A612F4801F0DAFB0346002B14BF012317
:103E88000023DBB2002B01D000F086FB00237B600F
:103E98000123BB600223FB603B1D1946244801F047
:103EA800B7FE0346002B14BF01230023DBB2002B0F
:103EB80001D000F071FB01237B600223BB603B1D36
:103EC80019461B4801F0A4FE0346002B14BF01232A
:103ED8000023DBB2002B01D000F05EFB03237B60E4
:103EE8000323BB603B1D1946114801F091FE0346B0
:103EF800002B14BF01230023DBB2002B01D000F0FC
:103F08004BFB07237B600423BB603B1D1946084815
:103F180001F07EFE0346002B14BF01230023DBB211
:103F2800002B01D000F038FB00BF1037BD4680BD24
:103F3800080100200024014080B58EB000AF07F1D1
:103F4800200300221A605A609A60DA601A615A6186
:103F58003B1D00221A605A609A60DA601A615A6141
:103F68009A61444B444A1A60424B4FF480729A60FB
:103F7800404B00221A733F4B00221A753D4B4FF4F9
:103F88006022DA613B4B00225A603A4B01221A61E7
:103F9800384801F04BFB0346002B14BF01230023D4
:103FA800DBB2002B01D000F0F7FA4FF480033B623C
:103FB80040F68C23FB6200233B63012387F82830FB
:103FC80007F1200319462B4801F01AFF0346002B7E
:103FD80014BF01230023DBB2002B01D000F0DCFA70
:103FE80004237B600123BB6003237B610323FB6005
:103FF8004FF4E043FB6100237B7600233B760023EC
:104008003B613B1D19461B4802F058F90346002B3B
:1040180014BF01230023DBB2002B01D000F0BCFA4F
:1040280005237B600223BB603B1D1946114802F043
:1040380045F90346002B14BF01230023DBB2002BF4
:1040480001D000F0A9FA06237B600323BB603B1D67
:104058001946084802F032F90346002B14BF012321
:104068000023DBB2002B01D000F096FA00BF3837EE
:10407800BD4680BD380100200028014080B592B0BF
:1040880000AF07F1400300221A605A6007F12403C9
:1040980000221A605A609A60DA601A615A619A615D
:1040A8003B1D20220021184606F050FF4E4B4F4A78
:1040B8001A604D4B00225A604B4B20229A604A4BA3
:1040C80041F61F42DA60484B00221A61464B002233
:1040D8005A61454B00229A61434803F09EFF03460C
:1040E800002B14BF01230023DBB2002B01D000F00A
:1040F80053FA00233B6400237B6407F1400319460D
:10410800394804F099FE0346002B14BF012300230D
:10411800DBB2002B01D000F03FFA60237B62002362
:10412800BB620023FB6200233B6300237B63002305
:10413800BB630023FB6307F12403002219462A48C6
:1041480004F044FA0346002B14BF01230023DBB21A
:10415800002B01D000F020FA07F1240304221946AD
:10416800214804F033FA0346002B14BF012300232F
:10417800DBB2002B01D000F00FFA07F1240308226C
:104188001946194804F022FA0346002B14BF0123EC
:104198000023DBB2002B01D000F0FEF900237B6086
:1041A8000023BB600023FB6073233B6100237B611A
:1041B8004FF40053BB6100233B623B1D19460A487C
:1041C80004F0A6FE0346002B14BF01230023DBB234
:1041D800002B01D000F0E0F9034800F0B1FF00BF68
:1041E8004837BD4680BD00BFAC010020002C01400F
:1041F80080B58AB000AF07F1200300221A605A6028
:104208003B1D00221A605A609A60DA601A615A618E
:104218009A61284B284A1A60264B13225A60254B6C
:1042280000229A60234B4CF24F32DA60214B002275
:104238001A61204B80229A611E4803F09FFE0346B4
:10424800002B14BF01230023DBB2002B01D000F0A8
:10425800A3F900233B6200237B6207F12003194680
:10426800144804F0E9FD0346002B14BF0123002382
:10427800DBB2002B01D000F08FF900237B60002314
:10428800BB600023FB6000237B613B1D00221946B5
:10429800084804F043F90346002B14BF0123002308
:1042A800DBB2002B01D000F077F900BF2837BD46FC
:1042B80080BD00BFF40100200004004080B58AB032
:1042C80000AF07F1200300221A605A603B1D00224C
:1042D8001A605A609A60DA601A615A619A61294BC9
:1042E800294A1A60274B00225A60264B00229A60FE
:1042F800244B4FF4E162DA60224B00221A61214B11
:1043080000229A611F4803F088FE0346002B14BF61
:1043180001230023DBB2002B01D000F03DF900237C
:104328003B6200237B6207F120031946154804F01D
:1043380083FD0346002B14BF01230023DBB2002BAF
:1043480001D000F029F960237B600023BB600023C3
:10435800FB6000237B613B1D00221946094804F0DD
:1043680035F90346002B14BF01230023DBB2002BD1
:1043780001D000F011F9034800F0E2FE00BF283731
:10438800BD4680BD3C0200200008004080B500AF5B
:10439800134B144A1A60124B4FF4E1325A60104B17
:1043A80000229A600E4B0022DA600D4B00221A613F
:1043B8000B4B0C225A610A4B00229A61084B0022CF
:1043C800DA61074804F02BFE0346002B14BF0123D3
:1043D8000023DBB2002B01D000F0DEF800BF80BD67
:1043E800840200200048004080B582B000AF144B22
:1043F8005B69134A43F001035361114B5B6903F096
:1044080001037B607B68002200210B2002F0D9F9B0
:104418000B2002F0F2F9002200210C2002F0D1F961
:104428000C2002F0EAF9002200210D2002F0C9F95F
:104438000D2002F0E2F900BF0837BD4680BD00BF7D
:104448000010024080B588B000AF07F110030022C9
:104458001A605A609A60DA604A4B9B69494A43F08D
:1044680020039361474B9B6903F02003FB60FB68C3
:10447800444B9B69434A43F010039361414B9B694A
:1044880003F01003BB60BB683E4B9B693D4A43F099
:10449800040393613B4B9B6903F004037B607B68D7
:1044A800384B9B69374A43F008039361354B9B6946
:1044B80003F008033B603B68002241F201213248C7
:1044C80002F0E3FF00224FF40041304802F0DDFF24
:1044D800002230212E4802F0D8FF41F201233B612F
:1044E80001237B610023BB610223FB6107F11003F9
:1044F8001946254802F01EFE04233B6100237B6118
:104508000023BB6107F110031946204802F012FE90
:104518004FF400433B6101237B610023BB6102230D
:10452800FB6107F110031946184802F003FE042343
:104538003B6100237B610023BB6107F1100319462F
:10454800144802F0F7FD30233B6101237B6100230F
:10455800BB610223FB6107F1100319460C4802F006
:10456800E9FD4FF460733B6100237B610023BB616D
:1045780007F110031946064802F0DCFD00BF20379A
:10458800BD4680BD001002400010014000080140F7
:10459800000C01400014014080B400AF72B600BFA7
:1045A800FEE780B483B000AF786039607B681B6B2E
:1045B8000B2B08D87B681B6B591C7A6811637A68C7
:1045C800396842F8231000BF0C37BD4680BC7047DD
:1045D80080B485B000AF786039600023FB73002396
:1045E800BB73BA7B7B681B6B9A420DD2BA7B7B6824
:1045F80053F822303A689A4202D1BB7BFB7303E03E
:10460800BB7B0133BB73ECE7FB7B7B737A7B7B68FB
:104618001B6B9A420CD27B7B591C7A7B7B6853F8C4
:1046280021107B6843F822107B7B01337B73EDE715
:104638007B681B6B5A1E7B681A6300BF1437BD4624
:1046480080BC704780B483B000AF78607B681B6B18
:10465800DBB218460C37BD4680BC704780B483B0C7
:1046680000AF786039607B683A6853F822301846A2
:104678000C37BD4680BC704780B483B000AF78600B
:104688007B6818460C37BD4680BC704780B582B041
:1046980000AF786003F0DEFA0346064AA2FB032364
:1046A8009B09013B184602F0B6F800BF0837BD4623
:1046B80080BD00BFD34D6210B0B582B000AF786046
:1046C80039607868FBF7FEFE04460D463868FBF74C
:1046D800F9FE02460B462046294605F00DFC024627
:1046E8000B46104619460837BD46B0BD90B585B093
:1046F80000AF78607B681B6800211846FDF70EFC48
:1047080003461846FCF7DAFA0346C0491846FCF790
:1047180029FB0346BE491846FCF724FB0346BD495E
:104728001846FCF717FA03461846FCF71DFD034622
:104738009AB27B68A3F862207B685C687B681B6818
:1047480002211846FDF7EAFB034619462046FDF705
:10475800D7FD03461AB27B68A3F868207B681B68FC
:1047680001211846FDF7EBFB03461A467B681B68D8
:10477800B3F9F430D31A002BB8BF5B42642202FBB2
:1047880003F3A54A82FB03129210DB17D31A9AB2DD
:104798007B68A3F86A207B681B681846FDF704FC51
:1047A80003461A467B68A3F86C207B681B6818468A
:1047B800FDF707FC03461A464FF4AF7303FB02F3F9
:1047C800964A82FB03121A44D212DB17D21A1346F6
:1047D8005B0013441A01D31A914A82FB0312921008
:1047E800DB17D31A1AB27B68A3F84A207B683833E0
:1047F8001846FCF751FE0346002B62D07B6838331D
:104808001846FCF73AFE7B6838331846FCF756FE24
:104818007B68B3F94A207B6893F8243091B27A68B0
:1048280008335B0013440A469A807B6893F8243067
:10483800062B08D87B6893F824300133DAB27B68FA
:1048480083F8242003E07B68002283F824207B6817
:104858000022DA840023FB60FB68072B12DC7B68EC
:10486800B3F926309AB27968FB6808335B000B44C9
:104878009B8813449BB21AB27B68DA84FB680133C5
:10488800FB60E9E77B68B3F92630002B00DA0733D1
:10489800DB101AB27B68DA847B68B3F870207B6817
:1048A800B3F9263019467B68B3F87030CB1A002B61
:1048B80000DA03339B109BB213449AB27B68A3F8C7
:1048C80070207B6828331846FCF7BDFD03461A465E
:1048D8007B6893F84D305340DBB2002B14BF0123A3
:1048E8000023DAB27B6883F84D207B6893F84C305C
:1048F800002B05D17B6893F84D30002B00F0D68053
:104908007B689B6804330021184600F04DF9034684
:10491800042B04D07B6893F84D30002B01D0012381
:1049280000E00023002B7DD07B689B680433184689
:1049380000F049F97B689B681A1D7B68B3F8623000
:104948001946104600F04EF902467B68B3F8643009
:104958001946104600F046F902467B68B3F96630FE
:104968001946104600F05CF902467B68B3F96830D6
:104978001946104600F054F902467B68B3F86A30CD
:104988001946104600F02EF902467B68B3F86C30E1
:104998001946104600F026F902467B68B3F86E30D7
:1049A8001946104600F01EF902467B68B3F87030CD
:1049B8001946104600F016F902467B68B3F87230C3
:1049C8001946104600F00EF902467B68B3F87430B9
:1049D8001946104600F006F902467B68B3F87630AF
:1049E8001946104600F0FEF802467B68B3F87830A6
:1049F8001946104600F0F6F802467B68B3F87A309C
:104A08001946104600F0EEF82FE000BF6740533A11
:104A18000000C8420000C040310CC330810008804B
:104A2800676666667B689B6804330021184600F059
:104A3800BBF803462B2B0CBF01230023DBB2002B52
:104A480013D07B689B680433184600F0BCF87B6879
:104A58009B6804334F21184600F000F97B689B6877
:104A680004334B21184600F0F9F87B68002283F8DC
:104A78004C207B68002283F84D207B689B680433B8
:104A8800184600F008F90346002B14BF0123002341
:104A9800DBB2002B05D07B689B68184600F00AF94A
:104AA80004E07B689B68184600F026F900BF1437BD
:104AB800BD4690BD80B582B000AF786039607B6834
:104AC8003A681A607B680433184600F031F97B684D
:104AD80018460837BD4680BD80B584B000AFF86081
:104AE800B9607A603B60FB68BA681A60FB687A68EC
:104AF8005A60FB683A689A60FB68BA69DA60FB68D2
:104B0800FA691A61FB68143300221A605A609A60C5
:104B1800DA60FB68002283F82420FB680022DA842C
:104B2800FB6828331846FCF72BFCFB68383319213F
:104B38001846FCF73DFCFB68002283F84820FB6818
:104B48000022A3F84A20FB68002283F84C20FB6867
:104B5800002283F84D20FB68012283F84E20FB6871
:104B68005033F968184600F0EFF8FB685833F968D5
:104B7800184600F007F9FB68623300221A605A6091
:104B88009A60DA601A615A611A83386800F0B4F8DA
:104B9800FB6828334FF4FA711846FCF741FCFB68B0
:104BA80018461037BD4680BD80B483B000AF78602A
:104BB80039607A683B68134402331B7818460C370F
:104BC800BD4680BC704780B483B000AF78607B6816
:104BD80000221A707B6800225A7000BF0C37BD464D
:104BE80080BC704780B584B000AF78600B467B808E
:104BF80007F10E0307F10F027988786800F0E0F8F2
:104C0800BB7B1946786800F0F0F80246FB7B194632
:104C1800104600F0EAF87B6818461037BD4680BD9C
:104C280080B584B000AF78600B467B80798807F147
:104C38000E0307F10F02786800F0C2F8BB7B194633
:104C4800786800F0D2F80246FB7B1946104600F05F
:104C5800CCF87B6818461037BD4680BD80B483B059
:104C680000AF78600B46FB707B685B78192B0CD81B
:104C78007B685B781A467B681344FA789A707B687D
:104C88005B780133DAB27B685A707B6818460C3758
:104C9800BD4680BC704780B483B000AF78607B6845
:104CA8005A787B681B78D31ADBB218460C37BD4696
:104CB80080BC704790B583B000AF78607B680433E0
:104CC800184600F0AFF804467B6804331846FFF72F
:104CD800E2FF03469BB21A462146064804F0ECF967
:104CE8007B681B6801211846FDF7D5FA00BF0C3711
:104CF800BD4690BD8402002080B582B000AF7860C8
:104D08007B680433184600F08DF803461A221946CA
:104D1800064804F03DFA7B681B6800211846FDF739
:104D2800BAFA00BF0837BD4680BD00BF8402002024
:104D380080B582B000AF78607868FFF744FF7B6881
:104D480018460837BD4680BD80B582B000AF786090
:104D580039607B681846FCF769FF094A7B681A6066
:104D68007B683A685A603B681B697A68114618463E
:104D7800FCF7BBFB7B6818460837BD4680BD00BF03
:104D880080B0000880B582B000AF786039607B6879
:104D98001846FCF74BFF094A7B681A607B683A683B
:104DA8005A603B68DB687A6811461846FCF79DFB39
:104DB8007B6818460837BD4680BD00BF74B0000840
:104DC80080B487B000AFF8607A603B600B467B81A7
:104DD8007B89BB823A7D7B681A707A7D3B681A7042
:104DE80000BF1C37BD4680BC704780B483B000AF9D
:104DF80078600B46FB707B685B78192B0CD87B6856
:104E08005B781A467B681344FA789A707B685B78FB
:104E18000133DAB27B685A707B6818460C37BD4696
:104E280080BC704780B483B000AF78607B68023381
:104E380018460C37BD4680BC7047000080B582B06C
:104E480000AF786039607B68012B07D13B684FF66B
:104E5800FF72934202D10348FCF712FA00BF0837E9
:104E6800BD4680BD9800002080B582B000AF786054
:104E78007B685B68184600F011F800BF0837BD462C
:104E880080BD80B582B000AF78607B685B681846EB
:104E980000F011F800BF0837BD4680BD80B582B06C
:104EA80000AF78607B689B681846FFF725FF00BF56
:104EB8000837BD4680BD80B582B000AF78607B689A
:104EC800012283F84C207B6828331846FCF7D5FA72
:104ED80000BF0837BD4680BD80B500AF4FF6FF71F3
:104EE8000120FFF7ABFF80BD80B485B000AF154B44
:104EF8009B69144A43F001039361124B9B6903F0C9
:104F08000103BB60BB680F4BDB690E4A43F080535B
:104F1800D3610C4BDB6903F080537B607B680A4BE1
:104F28005B68FB60FB6823F0E063FB60FB6843F0B1
:104F38000073FB60044AFB68536000BF1437BD462A
:104F480080BC7047001002400000014080B58AB064
:104F580000AF786007F1180300221A605A609A605F
:104F6800DA607B681B68444A934252D1434B9B6981
:104F7800424A43F400739361404B9B6903F4007306
:104F88007B617B693D4B9B693C4A43F00403936119
:104F98003A4B9B6903F004033B613B698B23BB617C
:104FA8000323FB6107F118031946354802F0C2F8DC
:104FB800344B354A1A60334B00225A60314B002279
:104FC8009A60304B8022DA602E4B4FF480721A615F
:104FD8002C4B4FF480625A612A4B00229A61294B6C
:104FE8000022DA61274801F023FC0346002B01D098
:104FF800FFF7D2FA7B68234A1A62224A7B68536217
:1050080000220121122001F0DCFB122001F0F5FB47
:105018002EE07B681B681D4A934229D1174B9B6978
:10502800164A43F480639361144B9B6903F48063CD
:10503800FB60FB68114B9B69104A43F004039361C2
:105048000E4B9B6903F00403BB60BB687023BB6114
:105058000323FB6107F118031946094802F06AF8AF
:1050680000220121122001F0ACFB122001F0C5FB47
:1050780000BF2837BD4680BD002401400010024013
:105088000008014068010020080002400028014093
:1050980080B485B000AF78607B681B68124A934281
:1050A8000CD1124B9B69114A43F4006393610F4B77
:1050B8009B6903F40063FB60FB6810E07B681B6876
:1050C8000B4A93420BD1094BDB69084A43F00403AE
:1050D800D361064BDB6903F00403BB60BB6800BF08
:1050E8001437BD4680BC7047002C014000100240B8
:1050F8000008004080B584B000AF78607B681B680A
:105108000D4A934213D10D4BDB690C4A43F002035D
:10511800D3610A4BDB6903F00203FB60FB680022E2
:1051280000211D2001F04DFB1D2001F066FB00BF92
:105138001037BD4680BD00BF00040040001002408B
:1051480080B58AB000AF786007F1180300221A60B2
:105158005A609A60DA607B681B682B4A934232D1A6
:105168002A4B9B69294A43F008039361274B9B69A3
:1051780003F008037B617B69244B9B69234A43F056
:1051880004039361214B9B6903F004033B613B6972
:105198004FF46043BB610223FB6102237B6207F18A
:1051A800180319461A4801F0C5FF4FF4E063BB61C4
:1051B8000223FB6102237B6207F118031946154895
:1051C80001F0B8FF1CE07B681B68134A934217D1B3
:1051D8000E4B9B690D4A43F0080393610B4B9B6987
:1051E80003F00803FB60FB684023BB610223FB61FB
:1051F80002237B6207F118031946054801F09AFF5C
:1052080000BF2837BD4680BD002C01400010024079
:10521800000C0140000801400008004080B58AB039
:1052280000AF786007F1140300221A605A609A6090
:10523800DA607B681B68504A934240F099804F4B74
:10524800DB694E4A43F48023D3614C4BDB6903F49A
:1052580080233B613B69494B9B69484A43F01003F3
:105268009361464B9B6903F01003FB60FB684FF4A6
:1052780080637B610223BB6103233B6207F1140354
:1052880019463F4801F056FF4FF400637B61002345
:10529800BB610023FB6107F114031946384801F08C
:1052A80049FF384B5B687B627B6A23F030037B6283
:1052B8007B6A43F0E0637B627B6A43F010037B62A6
:1052C800304A7B6A5360304B304A1A602E4B1022AA
:1052D8005A602D4B00229A602B4B8022DA602A4BB1
:1052E80000221A61284B00225A61274B00229A613A
:1052F800254B4FF48052DA61234801F099FA0346AE
:10530800002B01D0FFF748F97B681F4A5A631E4AF1
:105318007B6853621E4B1F4A1A601D4B00225A605D
:105328001B4B00229A601A4B8022DA60184B00222D
:105338001A61174B00225A61154B00229A61144BCF
:105348000022DA61124801F073FA0346002B01D0FB
:10535800FFF722F97B680E4A9A630D4A7B6853620D
:1053680000220221272001F02CFA272001F045FA1B
:1053780000BF2837BD4680BD0048004000100240ED
:105388000010014000000140C80200201C0002403B
:105398000C0300203000024080B400AFFEE700009C
:1053A80080B500AF1A4B00225A63194B00229A634A
:1053B800174B0022DA630021164802F037FF00215C
:1053C800144803F0DBFC0421124802F02FFF0421EB
:1053D800104803F0D3FC08210E4802F027FF0821EB
:1053E8000C4803F0CBFC0C4802F09AFD0B4B002252
:1053F8005A6300210A4802F019FF012201210948D5
:1054080002F043F801222021074802F03EF8FEE7A7
:10541800002C0140AC010020F401002000080040ED
:105428003C02002000100140000C014080B400AF95
:10543800FEE780B400AFFEE780B400AFFEE780B4BB
:1054480000AF00BFBD4680BC704780B400AF00BF4E
:10545800BD4680BC704780B400AF00BFBD4680BC6D
:10546800704780B500AFFBF72FFF00BF80BD00007D
:1054780080B500AF024801F0F3FB00BF80BD00BF5C
:105488006801002080B500AF024801F0E9FB00BFC9
:1054980080BD00BFC802002080B500AF024801F0FF
:1054A800DFFB00BF80BD00BF0C03002080B500AF4C
:1054B800034800F0CEFA034800F0CBFA00BF80BDE5
:1054C800080100203801002080B500AF024802F032
:1054D8001DFF00BF80BD00BFF401002080B500AFF4
:1054E800024803F0A5FE00BF80BD00BF8402002073
:1054F80080B400AF01231846BD4680BC704780B514
:1055080082B000AF7860396005F0E8FC03461622E7
:105518001A604FF0FF3318460837BD4680BD80B586
:1055280082B000AF78604FF0FF317868FFF7E7FF8F
:10553800FEE780B400AF00BFBD4680BC70470000E6
:105548000C480D490D4A002302E0D458C4500433D6
:10555800C4188C42F9D30A4A0A4C002301E01360AC
:105568000432A242FBD3FFF7E4FF05F0BDFCFEF7CF
:1055780027FB7047000000207800002044B1000895
:10558800780000206C030020FEE7000080B500AF23
:10559800084B1B68074A43F010031360032001F00F
:1055A80005F9032000F008F8FFF79EFC00231846D1
:1055B80080BD00BF0020024080B582B000AF786097
:1055C800124B1A68124B1B7819464FF47A73B3FBC7
:1055D800F1F3B2FBF3F3184601F01DF90346002B73
:1055E80001D001230EE07B680F2B0AD800227968CE
:1055F8004FF0FF3001F0E5F8064A7B68136000239E
:1056080000E0012318460837BD4680BD0000002091
:10561800080000200400002080B400AF024B1B6883
:105628001846BD4680BC70476403002080B586B02C
:1056380000AF78600023FB7500233B610023BB604B
:105648000023FB607B68002B01D10123CEE07B683F
:105658009B68002B7B689B6A002B09D17B68002222
:10566800DA627B68002283F824207868FFF76EFCF2
:10567800786800F075FC0346FB757B689B6A03F04D
:105688001003002B40F0A980FB7D002B40F0A58083
:105698007B689B6A23F4885323F0020343F00202D9
:1056A8007B689A627B685A687B681B6851498B42A1
:1056B8000AD17B68DB69B3F5402F02D07B68DB69D0
:1056C80004E04FF4002301E07B68DB691A437B6840
:1056D8001B7B5B001343BA681343BB607B689B6802
:1056E800B3F5807F03D07B689B68012B02D14FF410
:1056F800807300E000233A6913433B617B681B7D9C
:10570800012B19D17B681B7B002B09D17B689B6916
:10571800013B5A033B69134343F400633B610BE0CD
:105728007B689B6A43F020027B689A627B68DB6A2D
:1057380043F001027B68DA627B681B685B6823F4CC
:1057480069417B681B683A690A435A607B681B6831
:105758009A68294B13407A681268B9680B439360BA
:105768007B689B68B3F5807F03D07B689B68012BBF
:1057780004D17B681B69013B1B05FB607B681B68C8
:10578800DB6A23F470017B681B68FA680A43DA62F3
:105798007B681B689A68194B1340BA689A420BD108
:1057A8007B680022DA627B689B6A23F0030343F07C
:1057B80001027B689A6218E07B689B6A23F01203F7
:1057C80043F010027B689A627B68DB6A43F001024F
:1057D8007B68DA620123FB7507E07B689B6A43F00C
:1057E80010027B689A620123FB75FB7D1846183707
:1057F800BD4680BD003C0140FDF7E1FFFE0E1FFFE6
:1058080080B586B000AFF860B9607A600023FB7598
:10581800FB681B68644A934204D0FB681B68634AB0
:10582800934206D1604B5B6803F47023002B40F071
:10583800B380FB6893F82430012B01D10223AEE03A
:10584800FB68012283F82420F86800F02FFB034648
:10585800FB75FB7D002B40F09A80FB689B6A23F464
:10586800706323F0010343F48072FB689A62FB685B
:105878001B684E4A934205D14B4B5B6803F4702377
:10588800002B15D1FB689B6A23F48012FB689A628F
:10589800FB681B685B6803F48063002B26D0FB68F9
:1058A8009B6A23F4405343F48052FB689A621DE0DC
:1058B800FB689B6A43F48012FB689A62FB681B686A
:1058C800394A934204D0FB681B68384A93420DD189
:1058D800354B5B6803F48063002B07D0FB689B6A39
:1058E80023F4405343F48052FB689A62FB689B6A36
:1058F80003F48053002B06D0FB68DB6A23F0060212
:10590800FB68DA6202E0FB680022DA62FB680022C8
:1059180083F82420FB681B6A254A9A62FB681B6A85
:10592800244ADA62FB681B6A234A1A63FB681B680D
:105938006FF002021A60FB681B689A68FB681B68B4
:1059480042F480729A60FB68186AFB681B684C33E3
:105958001946BA687B6800F0E1FFFB681B689B6822
:1059680003F46023B3F5602F08D1FB681B689A68BD
:10597800FB681B6842F4A0029A600FE0FB681B6892
:105988009A68FB681B6842F480129A6006E0FB681C
:10599800002283F8242001E00123FB75FB7D1846D3
:1059A8001837BD4680BD00BF0024014000280140D3
:1059B800EB5F0008676000088360000880B584B06A
:1059C80000AF78600023FB737B6893F82430012BC9
:1059D80001D1022339E07B68012283F8242078680A
:1059E80000F0BEFA0346FB73FB7B002B28D17B68D3
:1059F8001B689A687B681B6822F480729A607B68CF
:105A08001B6A93F82130022B1AD17B681B6A18464F
:105A180000F0E3FF0346FB73FB7B002B0AD17B6896
:105A28009B6A23F4885323F0010343F001027B6847
:105A38009A6205E07B689B6A43F040027B689A6241
:105A48007B68002283F82420FB7B18461037BD466C
:105A580080BD80B582B000AF78607B681B685B68EA
:105A680003F02003202B40D17B681B681B6803F0E0
:105A78000203022B39D17B689B6A03F01003002BC9
:105A880005D17B689B6A43F400727B689A627B68E5
:105A98001B689B6803F46023B3F5602F1DD17B68F6
:105AA8001B7B002B19D17B681B685A687B681B68B5
:105AB80022F020025A607B689B6A23F480727B681C
:105AC8009A627B689B6A03F48053002B05D17B683C
