:020000040800F2
:10000000000001208156000861550008675500086E
:100010006D55000873550008795500080000000070
:100020000000000000000000000000007F550008F4
:100030008B5500080000000097550008A3550008E4
:10004000C9560008C9560008C9560008C956000814
:10005000C9560008C9560008C9560008C956000804
:10006000C9560008C9560008C9560008B15500080D
:10007000C5550008D9550008C9560008C9560008DA
:10008000C9560008C9560008ED550008C9560008B1
:10009000C9560008C9560008C9560008C9560008C4
:1000A000C9560008C9560008C9560008C9560008B4
:1000B000C956000809560008C9560008C956000864
:1000C000C9560008C9560008C9560008C956000894
:1000D000C9560008C9560008C95600081D56000830
:1000E000C9560008C9560008C9560008C956000874
:1000F000C9560008C9560008C9560008C956000864
:10010000C9560008C9560008C9560008C956000853
:10011000C9560008C9560008C9560008C956000843
:10012000C9560008C9560008C9560008C956000833
:1001300000000000000000000000000000000000BF
:1001400000000000000000000000000000000000AF
:10015000000000000000000000000000000000009F
:10016000000000000000000000000000000000008F
:10017000000000000000000000000000000000007F
:10018000000000000000000000000000000000006F
:10019000000000000000000000000000000000005F
:1001A000000000000000000000000000000000004F
:1001B000000000000000000000000000000000003F
:1001C000000000000000000000000000000000002F
:1001D000000000000000000000000000000000001F
:0401E0005FF8E0F1F3
:1001E80010B5054C237833B9044B13B10448AFF369
:1001F80000800123237010BD78000020000000005B
:10020800F8B0000808B5034B1BB103490348AFF326
:10021800008008BD000000007C000020F8B0000845
:1002280081F0004102E000BF83F0004330B54FEA9F
:1002380041044FEA430594EA050F08BF90EA020F0C
:100248001FBF54EA000C55EA020C7FEA645C7FEA9F
:10025800655C00F0E2804FEA5454D4EB5555B8BFC2
:100268006D420CDD2C4480EA020281EA030382EA33
:10027800000083EA010180EA020281EA0303362DC5
:1002880088BF30BD11F0004F4FEA01314FF4801C98
:100298004CEA113102D0404261EB410113F0004FAA
:1002A8004FEA03334CEA133302D0524263EB430361
:1002B80094EA050F00F0A780A4F10104D5F1200EFF
:1002C8000DDB02FA0EFC22FA05F2801841F100015A
:1002D80003FA0EF2801843FA05F359410EE0A5F12E
:1002E80020050EF1200E012A03FA0EFC28BF4CF05F
:1002F800020C43FA05F3C01851EBE37101F0004515
:1003080007D54FF0000EDCF1000C7EEB00006EEB21
:100318000101B1F5801F1BD3B1F5001F0CD34908AB
:100328005FEA30004FEA3C0C04F101044FEA445202
:1003380012F5800F80F09A80BCF1004F08BF5FEA89
:10034800500C50F1000041EB045141EA050130BD69
:100358005FEA4C0C404141EB0101013C28BFB1F57B
:10036800801FE9D291F0000F04BF01460020B1FAC6
:1003780081F308BF2033A3F10B03B3F120020CDA99
:100388000C3208DD02F1140CC2F10C0201FA0CF077
:1003980021FA02F10CE002F11402D8BFC2F1200CDC
:1003A80001FA02F120FA0CFCDCBF41EA0C01904092
:1003B800E41AA2BF01EB0451294330BD6FEA0404DB
:1003C8001F3C1CDA0C340EDC04F11404C4F12002C6
:1003D80020FA04F001FA02F340EA030021FA04F3D8
:1003E80045EA030130BDC4F10C04C4F1200220FA2F
:1003F80002F001FA04F340EA0300294630BD21FA6D
:1004080004F0294630BD94F0000F83F4801306BF32
:1004180081F480110134013D4EE77FEA645C18BF26
:100428007FEA655C29D094EA050F08BF90EA020FBD
:1004380005D054EA000C04BF1946104630BD91EAB5
:10044800030F1EBF0021002030BD5FEA545C05D1B8
:100458004000494128BF41F0004130BD14F58004F7
:100468003CBF01F5801130BD01F0004545F0FE416B
:1004780041F470014FF0000030BD7FEA645C1ABFA0
:10048800194610467FEA655C1CBF0B46024650EAD7
:10049800013406BF52EA033591EA030F41F4002103
:1004A80030BD00BF90F0000F04BF0021704730B589
:1004B8004FF4806404F132044FF000054FF000015E
:1004C80050E700BF90F0000F04BF0021704730B51F
:1004D8004FF4806404F1320410F0004548BF4042F4
:1004E8004FF000013EE700BF42004FEAE2014FEA49
:1004F80031014FEA02701FBF12F07F4393F07F4F24
:1005080081F06051704732F07F4208BF704793F026
:100518007F4F04BF41F40021704730B54FF4607439
:1005280001F0004521F000411CE700BF50EA01023C
:1005380008BF704730B54FF000050AE050EA0102E5
:1005480008BF704730B511F0004502D5404261EB55
:1005580041014FF4806404F132045FEA915C3FF496
:10056800D8AE4FF003025FEADC0C18BF03325FEA33
:10057800DC0C18BF033202EBDC02C2F1200300FAE4
:1005880003FC20FA02F001FA03FE40EA0E0021FA09
:1005980002F11444BDE600BF70B54FF0FF0C4CF4F7
:1005A800E06C1CEA11541DBF1CEA135594EA0C0FA9
:1005B80095EA0C0F00F0DEF82C4481EA030621EAE4
:1005C8004C5123EA4C5350EA013518BF52EA03351F
:1005D80041F4801143F4801338D0A0FB02CE4FF0D1
:1005E8000005E1FB02E506F00042E0FB03E54FF001
:1005F8000006E1FB03569CF0000F18BF4EF0010EF9
:10060800A4F1FF04B6F5007F64F5407404D25FEAF4
:100618004E0E6D4146EB060642EAC62141EA5551A7
:100628004FEAC52040EA5E504FEACE2EB4F1FD0CE9
:1006380088BFBCF5E06F1ED8BEF1004F08BF5FEA67
:10064800500E50F1000041EB045170BD06F0004619
:1006580046EA010140EA020081EA0301B4EB5C04C6
:10066800C2BFD4EB0C0541EA045170BD41F48011BE
:100678004FF0000E013C00F3AB8014F1360FDEBFE3
:10068800002001F0004170BDC4F10004203C35DABF
:100698000C341BDC04F11404C4F1200500FA05F342
:1006A80020FA04F001FA05F240EA020001F00042E3
:1006B80021F0004110EBD37021FA04F642EB060159
:1006C8005EEA430E08BF20EAD37070BDC4F10C0483
:1006D800C4F1200500FA04F320FA05F001FA04F247
:1006E80040EA020001F0004110EBD37041F1000133
:1006F8005EEA430E08BF20EAD37070BDC4F120053E
:1007080000FA05F24EEA020E20FA04F301FA05F2A5
:1007180043EA020321FA04F001F0004121FA04F24D
:1007280020EA020000EBD3705EEA430E08BF20EA1D
:10073800D37070BD94F0000F0FD101F00046400057
:1007480041EB010111F4801F08BF013CF7D041EAD9
:10075800060195F0000F18BF704703F000465200DD
:1007680043EB030313F4801F08BF013DF7D043EAAE
:100778000603704794EA0C0F0CEA135518BF95EA64
:100788000C0F0CD050EA410618BF52EA4306D1D1EB
:1007980081EA030101F000414FF0000070BD50EA0A
:1007A800410606BF1046194652EA430619D094EA94
:1007B8000C0F02D150EA013613D195EA0C0F05D17E
:1007C80052EA03361CBF104619460AD181EA0301D2
:1007D80001F0004141F0FE4141F470014FF000008A
:1007E80070BD41F0FE4141F4780170BD70B54FF025
:1007F800FF0C4CF4E06C1CEA11541DBF1CEA1355A5
:1008080094EA0C0F95EA0C0F00F0A7F8A4EB050486
:1008180081EA030E52EA03354FEA013100F088807D
:100828004FEA03334FF0805545EA131343EA126346
:100838004FEA022245EA111545EA10654FEA0026FB
:100848000EF000419D4208BF964244F1FD0404F5B4
:10085800407402D25B084FEA3202B61A65EB030510
:100868005B084FEA32024FF480104FF4002CB6EBCD
:10087800020E75EB030E22BFB61A754640EA0C004D
:100888005B084FEA3202B6EB020E75EB030E22BF8D
:10089800B61A754640EA5C005B084FEA3202B6EBCE
:1008A800020E75EB030E22BFB61A754640EA9C008D
:1008B8005B084FEA3202B6EB020E75EB030E22BF5D
:1008C800B61A754640EADC0055EA060E18D04FEA1B
:1008D800051545EA16754FEA06164FEAC30343EABB
:1008E80052734FEAC2025FEA1C1CC0D111F4801F88
:1008F8000BD141EA00014FF000004FF0004CB6E781
:1009080011F4801F04BF01430020B4F1FD0C88BF1F
:10091800BCF5E06F3FF6AFAEB5EB030C04BFB6EB2A
:10092800020C5FEA500C50F1000041EB045170BD1D
:100938000EF0004E4EEA113114EB5C04C2BFD4EB4A
:100948000C0541EA045170BD41F480114FF0000ECE
:10095800013C90E645EA060E8DE60CEA135594EA4A
:100968000C0F08BF95EA0C0F3FF43BAF94EA0C0F4D
:100978000AD150EA01347FF434AF95EA0C0F7FF4C2
:1009880025AF104619462CE795EA0C0F06D152EA16
:1009980003353FF4FDAE1046194622E750EA4106FA
:1009A80018BF52EA43067FF4C5AE50EA41047FF40B
:1009B8000DAF52EA43057FF4EBAE12E74FF0FF3C70
:1009C80006E000BF4FF0010C02E000BF4FF0010C41
:1009D8004DF804CD4FEA410C7FEA6C5C4FEA430CBA
:1009E80018BF7FEA6C5C1BD001B050EA410C0CBF09
:1009F80052EA430C91EA030F02BF90EA020F00206B
:100A0800704710F1000F91EA030F58BF994208BFD1
:100A180090422CBFD8176FEAE37040F0010070478E
:100A28004FEA410C7FEA6C5C02D150EA013C07D1E5
:100A38004FEA430C7FEA6C5CD6D152EA033CD3D030
:100A48005DF8040B704700BF8446104662468C462A
:100A58001946634600E000BF01B5FFF7B7FF00285D
:100A680048BF10F1000F01BD4DF808EDFFF7F4FF86
:100A78000CBF012000205DF808FB00BF4DF808ED11
:100A8800FFF7EAFF34BF012000205DF808FB00BF34
:100A98004DF808EDFFF7E0FF94BF012000205DF856
:100AA80008FB00BF4DF808EDFFF7CEFF94BF01200B
:100AB80000205DF808FB00BF4DF808EDFFF7C4FF04
:100AC80034BF012000205DF808FB00BF4FEA410C4D
:100AD8007FEA6C5C02D150EA013C0AD14FEA430C30
:100AE8007FEA6C5C02D152EA033C02D14FF000006D
:100AF80070474FF0010070474FEA410212F50012AB
:100B080015D211D56FF47873B3EB625212D94FEA4C
:100B1800C12343F0004343EA505311F0004F23FA36
:100B280002F018BF404270474FF00000704750EA8B
:100B3800013005D111F0004008BF6FF00040704748
:100B48004FF00000704700BF80F0004002E000BF97
:100B580081F0004142001FBF5FEA410392EA030FA0
:100B68007FEA226C7FEA236C6AD04FEA1262D2EBEA
:100B78001363C1BFD218414048404140B8BF5B42EF
:100B8800192B88BF704710F0004F40F4000020F088
:100B98007F4018BF404211F0004F41F4000121F09E
:100BA8007F4118BF494292EA030F3FD0A2F10102E8
:100BB80041FA03FC10EB0C00C3F1200301FA03F126
:100BC80000F0004302D5494260EB4000B0F5000F49
:100BD80013D3B0F1807F06D340084FEA310102F108
:100BE8000102FE2A51D2B1F1004F40EBC25008BFBA
:100BF80020F0010040EA03007047490040EB000084
:100C0800013A28BFB0F5000FEDD2B0FA80FCACF184
:100C1800080CB2EB0C0200FA0CF0AABF00EBC250B1
:100C280052421843BCBFD0401843704792F0000F9F
:100C380081F4000106BF80F400000132013BB5E7F2
:100C48004FEA41037FEA226C18BF7FEA236C21D068
:100C580092EA030F04D092F0000F08BF08467047CD
:100C680090EA010F1CBF0020704712F07F4F04D19B
:100C7800400028BF40F00040704712F100723CBFAE
:100C880000F50000704700F0004343F0FE4040F4D8
:100C9800000070477FEA226216BF08467FEA236396
:100CA8000146420206BF5FEA412390EA010F40F481
:100CB800800070474FF0000304E000BF10F00043CD
:100CC80048BF40425FEA000C08BF704743F09643B4
:100CD80001464FF000001CE050EA010208BF7047CF
:100CE8004FF000030AE000BF50EA010208BF704756
:100CF80011F0004302D5404261EB41015FEA010C6B
:100D080002BF84460146002043F0B64308BFA3F162
:100D18008053A3F50003BCFA8CF2083AA3EBC25344
:100D280010DB01FA02FC634400FA02FCC2F1200263
:100D3800BCF1004F20FA02F243EB020008BF20F09A
:100D48000100704702F1200201FA02FCC2F1200200
:100D580050EA4C0021FA02F243EB020008BF20EAF5
:100D6800DC7070474FF0FF0C1CEAD0521EBF1CEA23
:100D7800D15392EA0C0F93EA0C0F6FD01A4480EA11
:100D8800010C400218BF5FEA41211ED04FF00063FA
:100D980043EA501043EA5111A0FB01310CF0004026
:100DA800B1F5000F3EBF490041EAD3715B0040EA4C
:100DB800010062F17F02FD2A1DD8B3F1004F40EB1C
:100DC800C25008BF20F00100704790F0000F0CF0EF
:100DD800004C08BF49024CEA502040EA51207F3AB3
:100DE800C2BFD2F1FF0340EAC250704740F400008E
:100DF8004FF00003013A5DDC12F1190FDCBF00F07F
:100E080000407047C2F10002410021FA02F1C2F12C
:100E1800200200FA02FC5FEA310040F1000053EAC8
:100E28004C0308BF20EADC70704792F0000F00F016
:100E3800004C02BF400010F4000F013AF9D040EA1C
:100E48000C0093F0000F01F0004C02BF490011F4B0
:100E5800000F013BF9D041EA0C018FE70CEAD153AE
:100E680092EA0C0F18BF93EA0C0F0AD030F0004C2E
:100E780018BF31F0004CD8D180EA010000F00040E2
:100E8800704790F0000F17BF90F0004F084691F0A0
:100E9800000F91F0004F14D092EA0C0F01D14202DA
:100EA8000FD193EA0C0F03D14B0218BF084608D1A3
:100EB80080EA010000F0004040F0FE4040F40000ED
:100EC800704740F0FE4040F4400070474FF0FF0C80
:100ED8001CEAD0521EBF1CEAD15392EA0C0F93EAC7
:100EE8000C0F69D0A2EB030280EA010C49024FEA19
:100EF800402037D04FF0805343EA111143EA1013D2
:100F08000CF000408B4238BF5B0042F17D024FF489
:100F1800000C8B4224BF5B1A40EA0C00B3EB510F64
:100F280024BFA3EB510340EA5C00B3EB910F24BF4D
:100F3800A3EB910340EA9C00B3EBD10F24BFA3EBD2
:100F4800D10340EADC001B0118BF5FEA1C1CE0D19A
:100F5800FD2A3FF650AF8B4240EBC25008BF20F04D
:100F6800010070470CF0004C4CEA50207F32C2BFA1
:100F7800D2F1FF0340EAC250704740F400004FF03E
:100F88000003013A37E792F0000F00F0004C02BF6F
:100F9800400010F4000F013AF9D040EA0C0093F039
:100FA800000F01F0004C02BF490011F4000F013B93
:100FB800F9D041EA0C0195E70CEAD15392EA0C0FFB
:100FC80008D142027FF47DAF93EA0C0F7FF470AF33
:100FD800084676E793EA0C0F04D14B023FF44CAF76
:100FE80008466EE730F0004C18BF31F0004CCAD10B
:100FF80030F000427FF45CAF31F000437FF43CAF47
:101008005FE700BF4FF0FF3C06E000BF4FF0010C68
:1010180002E000BF4FF0010C4DF804CD4FEA40024A
:101028004FEA41037FEA226C18BF7FEA236C11D094
:1010380001B052EA530C18BF90EA010F58BFB2EB47
:10104800030088BFC81738BF6FEAE17018BF40F0C7
:10105800010070477FEA226C02D15FEA402C05D17B
:101068007FEA236CE4D15FEA412CE1D05DF8040B00
:10107800704700BF844608466146FFE70FB5FFF793
:10108800C9FF002848BF10F1000F0FBD4DF808ED4B
:10109800FFF7F4FF0CBF012000205DF808FB00BF3C
:1010A8004DF808EDFFF7EAFF34BF012000205DF896
:1010B80008FB00BF4DF808EDFFF7E0FF94BF0120E3
:1010C80000205DF808FB00BF4DF808EDFFF7D2FFE0
:1010D80094BF012000205DF808FB00BF4DF808ED23
:1010E800FFF7C8FF34BF012000205DF808FB00BFF0
:1010F8004FEA40024FEA41037FEA226C02D15FEADD
:10110800402C08D17FEA236C02D15FEA412C02D13E
:101118004FF0000070474FF0010070474FEA40025F
:10112800B2F1FE4F0FD34FF09E03B3EB12620DD90D
:101138004FEA002343F0004310F0004F23FA02F077
:1011480018BF404270474FF00000704712F1610F1E
:1011580001D1420205D110F0004008BF6FF00040F5
:1011680070474FF00000704780B582B000AF7860DC
:1011780039607B683968184603F0A9FA00BF083758
:10118800BD4680BD80B582B000AF786039607B68AD
:101198003968184603F0B2FA00BF0837BD4680BD6B
:1011A80080B584B000AF78600023FB737B68184675
:1011B80003F0DEFA03461A46FB7B934234BF012351
:1011C8000023DBB2002B0ED07B68FA7B1146184651
:1011D80003F0DAFA03461A68126818469047FB7B50
:1011E8000133FB73E2E700BF1037BD4680BD80B511
:1011F80082B000AF78607B68184603F0D3FA7B684A
:1012080018460837BD4680BD80B582B000AF78600B
:101218007B681846FFF7EBFF7B6818460837BD4622
:1012280080BD000080B582B000AF78607B6818464A
:10123800FFF7DDFF7B68343334220021184609F0BC
:101248000BFF7B6834331846FFF7DEFF7B6800220C
:101258009A667B680122DA66034803F0ADFA7B6878
:1012680018460837BD4680BD9400002080B500AF01
:10127800024800F0A8F800BF80BD00BF9800002019
:1012880080B582B000AF78607B681B7983F001037A
:10129800DBB2002B07D07B6801221A717B681946E4
:1012A8000348FFF761FF00BF0837BD4680BD00BF98
:1012B8009800002080B582B000AF78607B681B7909
:1012C800002B07D07B6800221A717B6819460348F7
:1012D800FFF758FF00BF0837BD4680BD98000020C3
:1012E80080B483B000AF7860044A7B681A607B687A
:1012F80018460C37BD4680BC704700BFC4B1000813
:1013080080B582B000AF78607B681846FFF7E8FFC9
:10131800034A7B681A607B6818460837BD4680BD5B
:10132800B8B1000880B582B000AF78607B68184615
:10133800FFF7E6FF064A7B681A607B6800229A601E
:101348007B6800221A717B6818460837BD4680BD45
:10135800ACB1000880B582B000AF786039607B68B6
:101368001846FFF7CDFF094A7B681A607B680022A0
:101378009A607B6800221A713968786800F034F83E
:101388007B6818460837BD4680BD00BFACB1000871
:1013980080B483B000AF78607B689B685A1C7B6818
:1013A8009A6000BF0C37BD4680BC704780B582B0DC
:1013B80000AF78607B681B681846FFF7F1FE00BF36
:1013C8000837BD4680BD80B582B000AF78607B68C5
:1013D80003F168007B68DB6E7A68194603F002FA4D
:1013E80000BF0837BD4680BD80B582B000AF7860C9
:1013F80039607B6800229A607B683A68DA607B68AB
:101408001846FFF73DFF00BF0837BD4680BD80B4D2
:1014180083B000AF78607B689A687B68DB689A4223
:101428002CBF01230023DBB2002B04D07B680022F1
:101438009A60012300E0002318460C37BD4680BCA3
:10144800704780B582B000AF78607B6800229A60F0
:101458007B681846FFF72EFF00BF0837BD4680BDE2
:1014680080B483B000AF78607B689A687B68DB687B
:101478009A422CBF01230023DBB218460C37BD4625
:1014880080BC704780B582B000AF78607B68184632
:10149800FFF7F6FE00BF0837BD4680BD80B483B0B5
:1014A80000AF78607B681B7918460C37BD4680BC56
:1014B800704780B483B000AF786039607B683A6861
:1014C8001A6000BF0C37BD4680BC704780B582B03B
:1014D80000AF78607B681A687B681B681B681B68AC
:1014E8001046984700BF0837BD4680BD80B582B01A
:1014F80000AF7860194804F0FDFA7B689A8B7B6826
:10150800A3F878207B68B3F878301A467B68B3F87C
:101518007630D31A002BB8BF5B42AA2B03DD7B6859
:10152800012283F88C207B68B3F876207B68B3F8B7
:10153800783019467B68B3F87630CB1A084981FBB6
:101548000301DB17CB1A9BB213449AB27B68A3F84A
:10155800762000BF0837BD4680BD00BF08010020C7
:1015680056555555B0B584B000AF7860624804F060
:10157800BFFE0121604804F005FF02467B6893F82E
:10158800843011B27A680C335B0013440A46DA805F
:101598000221594804F0F6FE01467B6893F884302E
:1015A8001A4609B27B68183223F8121003215248F0
:1015B80004F0E8FE02467B6893F8843011B27A683A
:1015C80020335B0013440A465A807B68012283F863
:1015D80087207B6893F8863083F00103DBB2002B09
:1015E80000F08E807B680022A3F8F4207B6800223C
:1015F800A3F8F6207B680022A3F8F8200023FB60FC
:10160800FB68082B37DC7B68B3F9F4309AB2796849
:10161800FB680C335B000B44B3F906309BB21344F0
:101628009BB21AB27B68A3F8F4207B68B3F9F63052
:101638009AB27B68F968183133F911309BB21344B8
:101648009BB21AB27B68A3F8F6207B68B3F9F8302E
:101658009AB27968FB6820335B000B44B3F9023017
:101668009BB213449BB21AB27B68A3F8F820FB68BC
:101678000133FB60C4E77B68B3F9F4301F4A82FB8F
:1016880003125210DB17D31A1AB27B68A3F8F4209E
:101698007B68B3F9F630194A82FB03125210DB1744
:1016A800D31A1AB27B68A3F8F6207B68B3F9F8302E
:1016B800124A82FB03125210DB17D31A1AB27B6844
:1016C800A3F8F8207B68002283F8D6207B680022E4
:1016D80083F8D7207B68002283F8D8207B68002213
:1016E80083F8DC207B68002283F8E0207B680022F6
:1016F80083F8E12059E200BF38010020398EE33831
:101708007B6893F88630002B00F04F827B6893F853
:1017180084307A680C335B001344B3F906301A46F8
:101728007B68B3F9F430D31A83EAE372A2EBE3726D
:101738007B6893F8843011B27A6844335B001344B1
:101748000A46DA807B6893F884301A467B68183238
:1017580033F912301A467B68B3F9F630D31A83EAA4
:10176800E372A2EBE3727B6893F8843011B27A6873
:1017780058335B0013440A465A807B6893F88430D8
:101788001A467B68183233F912301A467B68B3F967
:10179800F630D31A83EAE372A2EBE3727B6893F81C
:1017A8008430796820335B000B44B3F90230194662
:1017B8007B68B3F9F830CB1A002BB8BF5B42D31A59
:1017C80083EAE372A2EBE3727B6893F8843011B288
:1017D8007A6860335B0013440A469A807B6893F802
:1017E80084307A6820335B001344B3F902301A4618
:1017F8007B68B3F9F830D31A83EAE371A1EBE3719C
:101808007B6893F884301A4609B27B68503223F813
:1018180012107B6893F884301A467B68183233F9C3
:1018280012301A467B68B3F9F630D21A13469B0079
:1018380013445B00C54A82FB03129210DB17D31ACC
:101848001AB27B68A3F87A207B6893F884307A68A8
:1018580020335B001344B3F902301A467B68B3F9AE
:10186800F830D21A13469B0013445B00B74A82FB38
:1018780003129210DB17D31A1AB27B68A3F87E20E2
:101888007B68B3F97A309AB27B68B3F97E309BB241
:1018980013449BB25B429BB21AB27B68A3F87C20CC
:1018A8007B6893F884307A6860335B001344B3F93B
:1018B80004301A467B68B3F9F63019467B68B3F9E9
:1018C800F830CB1A002BB8BF5B429A4215DC7B6814
:1018D80093F88D30002B10D07B6893F8D730013304
:1018E800DAB27B6883F8D7207B6893F8D730062B69
:1018F80003D97B68012283F888207B6893F88430B9
:101908007A6858335B001344B3F90230052B15DCB1
:101918007B6893F88D30002B10D07B6893F8D63015
:101928000133DAB27B6883F8D6207B6893F8D63027
:10193800062B03D97B68012283F888207B6893F8FB
:1019480084301A467B68503233F91230052B15DC87
:101958007B6893F88D30002B10D07B6893F8D830D3
:101968000133DAB27B6883F8D8207B6893F8D830E3
:10197800062B03D97B68012283F888207B6893F8BB
:1019880084307A6844335B001344B3F906306F4AF5
:1019980082FB03129210DB17D31A1BB21A467B681C
:1019A800B3F8DA309A4215DB7B6893F88D30002B58
:1019B80010D07B6893F8DC300133DAB27B6883F8A7
:1019C800DC207B6893F8DC30032B03D97B68012289
:1019D80083F889207B6893F884307A6858335B00F1
:1019E8001344B3F90230594A82FB03129210DB17F1
:1019F800D31A1BB21A467B68B3F8DE309A4222DB50
:101A08007B6893F88D30002B1DD07B6893F8E0300D
:101A18000133DAB27B6883F8E0207B6893F8E03022
:101A2800022B10D97B6893F8DD300133DAB27B687A
:101A380083F8DD207B6893F8DD30012B03D97B68C0
:101A4800012283F88A207B6893F884301A467B68E1
:101A5800503233F912303D4A82FB03129210DB17E1
:101A6800D31A1BB21A467B68B3F8DE309A4222DBDF
:101A78007B6893F88D30002B1DD07B6893F8E1309C
:101A88000133DAB27B6883F8E1207B6893F8E130B0
:101A9800022B10D97B6893F8DD300133DAB27B680A
:101AA80083F8DD207B6893F8DD30012B03D97B6850
:101AB800012283F88B207B68B3F97A3019467B685A
:101AC800B3F97C30DA0F13445B101BB2CA1A7B6877
:101AD800B3F97E30D90F0B445B101BB2D31A022125
:101AE800184602F0A0FE04460D467B68B3F97C3028
:101AF8001A4613461B011344154A82FB0312D210DF
:101B0800DB17D21A7B68B3F97E3019460B461B01E6
:101B18000B440F4981FB0301C910DB175B1A1344FF
:101B28000221184602F07FFE02460B46204629464F
:101B3800FEF77CFB02460B461046194608F01AFBD6
:101B480002460B46FEF772FB04E000BF310CC330BF
:101B58006766666602460B46104619464FF0000255
:101B68002B4BFEF743FE02460B4610461946FEF77E
:101B7800C3FF03461AB27B68A3F882207B68B3F9D7
:101B880080309AB27B68B3F9823019467B68B3F922
:101B98008030CB1A002B00DA03339B109BB213441E
:101BA8009BB21AB27B68A3F880207B6893F88430D4
:101BB800072B08D87B6893F884300133DAB27B6846
:101BC80083F884201FE07B68002283F884207B68E8
:101BD800002283F8D6207B68002283F8D7207B6810
:101BE800002283F8D8207B68002283F8DC207B68F9
:101BF800002283F8E0207B68002283F8E1207B68DC
:101C0800002283F8DD2000BF1037BD46B0BD00BFFD
:101C18000000084080B483B000AF7860044A7B6855
:101C28001A607B6818460C37BD4680BC704700BFF9
:101C3800A0B1000880B582B000AF786039607B68D9
:101C48001846FFF7E7FF094A7B681A607B683A681D
:101C58005A603B689B687A6811461846FFF729FC6A
:101C68007B6818460837BD4680BD00BF94B10008A0
:101C780080B582B000AF78607B685B681846FFF774
:101C880035FC00BF0837BD4680BD000080B582B076
:101C980000AF786039607B681846FFF7BBFF094AD8
:101CA8007B681A607B683A685A603B68DB687A68C8
:101CB80011461846FFF7FDFB7B6818460837BD46F6
:101CC80080BD00BF88B1000880B582B000AF7860E1
:101CD8007B685B681846FFF745FC00BF0837BD46C0
:101CE80080BD000080B584B000AFF860B9607A604C
:101CF800FB70FB681846FFF703FB724AFB681A6023
:101D0800FB68BA689A60FB687A68DA60FB68FA78F8
:101D18001A74FB683A8B5A82FB6800229A82FB6825
:101D28001E3300221A605A609A60DA601A82FB68D1
:101D3800303300221A605A609A60DA601A82FB68AF
:101D4800423300221A605A609A60DA601A82FB688D
:101D5800543320220021184609F07EF9FB6800223E
:101D6800A3F87420FB680022A3F87620FB68002201
:101D7800A3F87820FB680022A3F87A20FB680022E9
:101D8800A3F87C20FB680022A3F87E20FB680022D1
:101D9800A3F88020FB680022A3F88220FB680022B9
:101DA80083F88420FB68002283F88520FB680022E2
:101DB80083F88620FB68002283F88720FB680022CE
:101DC80083F88820FB68002283F88920FB680022BA
:101DD80083F88A20FB68002283F88B20FB680022A6
:101DE80083F88C20FB68002283F88D20FB688E33F3
:101DF80000221A605A609A60DA601A82FB68A0337F
:101E080000221A605A609A60DA601A82FB68B2335C
:101E180000221A605A609A60DA601A82FB68C4333A
:101E280000221A605A609A60DA601A82FB680022FF
:101E380083F8D620FB68002283F8D720FB680022AD
:101E480083F8D820FB681422A3F8DA20FB68002264
:101E580083F8DC20FB68002283F8DD20FB6814226D
:101E6800A3F8DE20FB68002283F8E020FB6800224C
:101E780083F8E120FB68E433F9681846FFF7DAFED7
:101E8800FB68EC33F9681846FFF700FFFB6800228F
:101E9800A3F8F420FB680022A3F8F620FB680022D0
:101EA800A3F8F820FB6800221A713B8B002B03D0A3
:101EB800FB681846FFF7E4F9FB6818461037BD467B
:101EC80080BD00BF7CB1000880B483B000AF7860EB
:101ED8007B68002283F8862000BF0C37BD4680BC93
:101EE800704780B483B000AF78607B68012283F8C4
:101EF800862000BF0C37BD4680BC704780B483B0D5
:101F080000AF78600B46FB70FB787A6808335B009B
:101F18001344DB8818460C37BD4680BC704780B434
:101F280083B000AF78600B46FB70FB78012B0AD1B9
:101F38007B6893F884307A680C335B001344B3F9F8
:101F480006309BB21AE0FB78022B09D17B6893F824
:101F580084301A467B68183233F912309BB20DE090
:101F6800FB78032B0AD17B6893F884307A68203396
:101F78005B001344B3F902309BB2FFE718460C37F5
:101F8800BD4680BC704780B483B000AF78607B6882
:101F9800B3F980309BB218460C37BD4680BC7047F9
:101FA80080B483B000AF78607B68B3F876301846A9
:101FB8000C37BD4680BC704780B483B000AF7860F2
:101FC8007B68002283F8872000BF0C37BD4680BCA1
:101FD800704780B483B000AF78607B68002283F8D4
:101FE800882000BF0C37BD4680BC704780B483B0E2
:101FF80000AF78607B6893F8893018460C37BD4687
:1020080080BC704780B483B000AF78607B680022E2
:1020180083F8892000BF0C37BD4680BC704780B468
:1020280083B000AF78607B6893F88A3018460C3725
:10203800BD4680BC704780B483B000AF78607B68D1
:10204800002283F88A2000BF0C37BD4680BC704749
:1020580080B483B000AF78607B6893F88B30184603
:102068000C37BD4680BC704780B483B000AF786041
:102078007B68002283F88B2000BF0C37BD4680BCEC
:10208800704780B483B000AF78607B6893F88C3079
:1020980018460C37BD4680BC704780B483B000AF8B
:1020A80078607B68002283F88C2000BF0C37BD461F
:1020B80080BC704780B483B000AF78600B467B80EB
:1020C8007B88322B8CBF01230023DAB27B6883F82C
:1020D8008D2000BF0C37BD4680BC704780B582B0EC
:1020E80000AF78607B689B8A5A1C91B27A689182AB
:1020F8007A68528A93422CBF01230023DBB2002B5B
:102108000BD07B6800229A827B6803F116017B68FA
:102118001B7C1A460D4803F00FFC7B689B8A002B3A
:102128000CBF01230023DBB2002B0AD07B6893F895
:10213800863083F00103DBB2002B02D0044804F0A0
:1021480049F800BF0837BD4680BD00BF0801002020
:102158003801002080B483B000AF78600B467B80E4
:102168007B687A88A3F8DA2000BF0C37BD4680BCAC
:10217800704780B483B000AF78600B467B807B6883
:102188007A88A3F8DE2000BF0C37BD4680BC7047B4
:1021980080B582B000AF78607B681B68044A9342C0
:1021A80002D10448FFF792F900BF0837BD4680BD49
:1021B800002401405003002080B582B000AF786051
:1021C8007B681B68044A934202D10448FFF77EF9F2
:1021D80000BF0837BD4680BD0028014054030020D9
:1021E80080B485B000AFF860B9601346FB80FB6827
:1021F800BA681A60FB68FA889A80FB681846143730
:10220800BD4680BC704780B582B000AF78607B68FF
:1022180018687B689B880122194605F0C8F900BF39
:102228000837BD4680BD80B582B000AF78607B6856
:1022380018687B689B880022194605F0B8F900BF2A
:102248000837BD4680BD80B582B000AF78607B6836
:102258001A687B689B881946104605F091F9034671
:10226800002B14BF01230023DBB218460837BD46F4
:1022780080BD80B582B000AF78600B46FB70FB78FC
:10228800002B03D07868FFF7BEFF02E07868FFF7FD
:10229800CAFFFB7818460837BD4680BD80B582B0B6
:1022A80000AF78607868FFF7CEFF03461846083716
:1022B800BD4680BD80B483B000AF78607B68054AB6
:1022C8005A607B68044A9A607B6818460C37BD469A
:1022D80080BC704700401C463313954390B583B0CB
:1022E80000AF78600B467B807B881846FEF7E6FCDB
:1022F800034619462D48FEF72BFC03461A467B6811
:102308001A607B881846FEF7D9FC02467B681B6872
:1023180019461046FEF7DAFD03461A467B681A602E
:102328007B681B6822491846FEF71CFD03461A46BF
:102338007B681A607B681B68184607F02FFD044607
:102348007B685B68184607F029FD03461946204656
:10235800FEF7FEFB034617491846FEF7B7FD03468E
:102368001C467B689B6819464FF07E50FEF7AEFD11
:10237800034619462046FEF7EDFB034619464FF083
:102388007E50FEF7A3FD03461A467B68DA607B6839
:10239800DB681846FEF7C2FE03461BB29BB2A3F2E7
:1023A80011139BB218460C37BD4690BD00F07F450F
:1023B80000401C460000794580B582B000AF7860C7
:1023C8007B681B68044A934202D10448FFF77EF8F1
:1023D80000BF0837BD4680BD0048004058030020B4
:1023E80080B582B000AF78600B467B807B681B6845
:1023F800044A934202D10448FFF768F800BF08373F
:10240800BD4680BD004800405C03002080B584B014
:1024180000AFF860B9607A60FB68BA681A60FB6858
:102428007A685A60FB6808331846FEF77BFFFB683A
:1024380000221A76FB6800225A76FB6800229A76F8
:10244800FB6818461037BD4680BD80B582B000AF26
:1024580078607B6801225A767B6800229A767B68CE
:1024680008331846FEF7EDFF00BF0837BD4680BDAC
:1024780080B582B000AF78600A4B00225A63002111
:10248800094805F065FF7B6800229A767B68002280
:102498005A767B6808331846FEF7D3FF00BF083723
:1024A800BD4680BD000800403C02002080B483B0D7
:1024B80000AF78607B681B7E18460C37BD4680BC31
:1024C8007047000080B582B000AF78607B685B7EA3
:1024D800002B42D07B689B7E83F00103DBB2002B8C
:1024E8003BD07B685B68B3F88830B3F5967F34D30C
:1024F8000021364805F072FE354B40F207725A63E8
:102508007868FFF7D3FF0346002B0CD07B680833AD
:102518001846FEF7C3FF034683F00103DBB2002B26
:1025280001D0012300E00023002B06D07B6808338C
:102538004FF47A711846FEF757FF7B680833184640
:10254800FEF78EFF0346002B07D07B68083318463A
:10255800FEF777FF7B6801229A767B689B7E002BCB
:1025680023D07B685B68B3F87A30F02B04D9184B1A
:102578004FF461725A6318E07B685B68B3F87A308D
:10258800C72B04D8124B40F207725A630DE07B68E0
:102598005B68B3F87A301A466FF0110303FB02F355
:1025A80003F5A35304330A4A53630421094804F08A
:1025B800E7FF0346002B14BF01230023DAB27B6830
:1025C8001A7600BF0837BD4680BD00BF3C02002018
:1025D800000800400014014080B582B000AF786068
:1025E80039607B681846FFF715FB094A7B681A6053
:1025F8007B683A685A603B681B697A6811461846D6
:10260800FEF757FF7B6818460837BD4680BD00BFF8
:1026180058B1000880B582B000AF78607B685B680D
:10262800184600F031F800BF0837BD4680BD0000ED
:1026380080B582B000AF786039607B681846FFF7D4
:10264800E9FA094A7B681A607B683A685A603B680D
:102658005B697A6811461846FEF72BFF7B681846B7
:102668000837BD4680BD00BF4CB1000880B582B0B8
:1026780000AF78607B685B68184600F079F800BFA7
:102688000837BD4680BD000080B582B000AF7860D5
:102698007B68D3F8B4207B6893F8B130591CC8B272
:1026A800796881F8B100796844335B000B449B88F2
:1026B80003FB02F32B4A2C49A1FB03139B09536329
:1026C8007B68D3F8B4207B6893F8B230591CC8B241
:1026D800796881F8B200796844335B000B449B88C1
:1026E80003FB02F31F4A2049A1FB03139B099363D1
:1026F8007B68D3F8B4207B6893F8B330591CC8B210
:10270800796881F8B300796844335B000B449B888F
:1027180003FB02F3134A1449A1FB03139B09D36378
:102728007B6893F8B130112B03D97B68002283F8BA
:10273800B1207B6893F8B230112B03D97B68002253
:1027480083F8B2207B6893F8B330112B03D97B68E8
:10275800002283F8B320054803F03CFD00BF08378A
:10276800BD4680BD002C0140D34D621038010020C9
:1027780080B483B000AF786000BF0C37BD4680BC22
:1027880070470000B0B584B000AFF860B9607A60F7
:102798003B60FB6800221A70FB68BA685A60FB68E5
:1027A8007A689A60FB683A68DA60FB683A6A1A6184
:1027B800FB687A6A5A61FB68BA6A9A61FB68FA6AC6
:1027C800DA61FB683A6B1A62FB687A6B5A62FB68DB
:1027D800BA6B9A62FB68FA6BDA62FB683A6C1A6346
:1027E800FB687A6C5A63FB68BA6C9A63FB683C3383
:1027F8001846FEF797FDFB684C331846FEF792FD26
:10280800FB685C331846FEF78DFDFB686C33184691
:10281800FEF788FDFB687C331846FEF783FDFB68EE
:102828004D4A03F18C0415460FCD0FC40FCD0FC4CC
:102838002B682360FB68002283F8B020FB68002225
:1028480083F8B120FB68062283F8B220FB680C22CB
:1028580083F8B320FB680522C3F8B420FB6840F274
:102868007E42A3F8B820FB686422A3F8BA20FB686C
:102878001922A3F8BC20FB684FF47A62A3F8BE20A3
:10288800FB680022A3F8C020FB680222A3F8C2203C
:10289800FB680022A3F8C420FB68002283F8C62046
:1028A800FB68002283F8C720FB680022A3F8C82031
:1028B800FB68192283F8CA20FB68002283F8CB2022
:1028C800FB68002283F8CC20FB68002283F8CD2027
:1028D800FB68002283F8CE20FB68002283F8CF2013
:1028E800FB684FF4B272A3F8D020FB68012283F88A
:1028F800D220FB68002283F8D320FB68002283F8EB
:10290800D420FB68002283F8D520FB68134AC3F85B
:10291800D820FB68DC33F9681846FFF75DFEFB68D2
:10292800E433F9681846FFF783FEFB6800229A65CE
:10293800FB6800229A66FB6800229A67B86CFFF76A
:10294800ADFC03461A46FB6883F8C720FB681846A7
:102958001037BD46B0BD00BF10B10008A086010009
:1029680090B583B000AF78607B689B68184601F02B
:1029780075FF7B68DB681846FFF7A4FD7B68D3F812
:10298800B4207B689B6812B2A3F87E207B685A6BE0
:102998007B689C681046FFF781FC03461A4694F84A
:1029A800923062F3041384F892307B689B687A68EB
:1029B800B2F8C420A3F890207B68DB6A1846FFF7BA
:1029C8006DFC034619467B689A6881F00103D9B209
:1029D80092F8923061F3861382F892307B689A6895
:1029E8007B6893F8C61092F8923061F3451382F829
:1029F80092307B689B68B3F87A307A689268122BB9
:102A080094BF01230023D9B292F8933061F34103B4
:102A180082F893307B689B687A68B2F8D020A3F874
:102A28008C207B689B687A68B2F8C820A3F88E204F
:102A38007B689B687A68B2F8B820A3F87A20994B2B
:102A4800DA6A7B689B6892B2A3F88A207B689B68E5
:102A5800B3F88830B3F5967F04D87B68012283F8F1
:102A6800C6200FE07B689B68B3F88830B3F5967F83
:102A780008D97B68002283F8C6207B685B68184603
:102A8800FFF70BFB7B689B6893F89230C3F3C01386
:102A9800DBB21A467B689B68B3F980303B2BCCBF0E
:102AA80001230023DBB21A437B689B68002A14BF0A
:102AB80001220022D1B293F8922061F3C71283F861
:102AC800922093F89230C3F3C013DBB2002B10D0DE
:102AD8007B689B68B3F980307A689268312BCCBFE9
:102AE80001230023D9B292F8923061F3C71382F818
:102AF80092307B6893F8D4301A467B689B68B3F9A8
:102B08008030272BCCBF01230023DBB21343002BDB
:102B180014BF01230023DAB27B6883F8D4207B68D2
:102B280093F8D430002B0BD07B689B68B3F98030C6
:102B38001D2BCCBF01230023DAB27B6883F8D42095
:102B48007B6893F8D230002B09D07B681A6A7B68BF
:102B580093F8D43019461046FFF78BFB05E07B68E5
:102B68001B6A00211846FFF784FB7B68DB68184660
:102B7800FFF79CFC0346002B06D07B6893F8D23005
:102B8800002B01D0012300E00023002B02D078683D
:102B980000F0C6FE7B681B78002B04D0012B00F0E8
:102BA800E78100F0C0BD7B689B6B1846FFF776FB9A
:102BB80003461A467B6883F8C7207B6893F8C730BA
:102BC800012B77D17B685B6814211846FFF7C2FA9E
:102BD8007B685B6818211846FFF7CBFA7B685B6A4D
:102BE80000211846FFF745FB7B689B68B3F88830DF
:102BF800B3F5967F4CD97B689B68B3F88830B3F5FA
:102C0800077F45D27B689B68B3F88830264AA2FBC9
:102C180003231B099BB21A4640F2DE3303FB02F37F
:102C2800224A82FB03125211DB17D31A732202FBCA
:102C380003F31F4A82FB03125211DB17D31A9AB20D
:102C48007B68A3F8C8207B68D3F8D8207B68B3F8E2
:102C5800C83019460B469B000B44B2FBF3F39BB2FA
:102C68001A4692001A44520013445B009AB27B68D9
:102C7800A3F8D0207B68B3F8D03040F62102934205
:102C880000F287807B6840F62102A3F8D02080E01C
:102C98007B68DC22A3F8C8207B684FF40262A3F8A3
:102CA800D02076E000040040CDCCCCCC1F6B193A84
:102CB8001F85EB517B6893F8C730002B69D17B687F
:102CC8005B680E211846FFF745FA7B685B681A2196
:102CD8001846FFF74EFA7B685B6A01211846FFF732
:102CE800C8FA7B689B68B3F88830B3F5967F47D9F4
:102CF8007B689B68B3F88830B3F5077F40D27B6860
:102D08009B68B3F88830964AA2FB03231B099BB241
:102D18001A464FF46B7303FB02F3924A82FB0312C9
:102D28005211DB17D31A732202FB03F38E4A82FB7C
:102D380003125211DB17D31A9AB27B68A3F8C82082
:102D48007B68D3F8D8307A68B2F8C820B3FBF2F3BE
:102D5800322202FB03F35B08844AA2FB03235B09CC
:102D68009AB27B68A3F8D0207B68B3F8D030B3F56B
:102D7800B57F0ED27B684FF4B572A3F8D02008E077
:102D88007B68DE22A3F8C8207B684FF4B572A3F8ED
:102D9800D0207B685B6B1846FFF780FA0346002B50
:102DA80049D07B684C331846FEF778FB034683F01E
:102DB8000103DBB2002B3ED07B689B6893F892300E
:102DC800C3F3C013DBB283F00103DBB2002B32D0B4
:102DD8007B689B6893F89230C3F38013DBB283F06F
:102DE8000103DBB2002B26D07B689B6893F89230F6
:102DF800C3F34013DBB283F00103DBB2002B1AD01C
:102E08007B689B6893F89330C3F34003DBB283F08D
:102E18000103DBB2002B0ED07B6893F8CB30022B7A
:102E280009D87B6893F8C63083F00103DBB2002B26
:102E380001D0012200E000227B6883F8D2207B6861
:102E48004C331846FEF70CFB0346002B04D07B6876
:102E58004C331846FEF7F5FA7B6893F8CB30022B13
:102E68000CD97B686C331846FEF718FB034683F0D1
:102E78000103DBB2002B01D0012300E00023002B6B
:102E880006D07B686C3341F288311846FEF7ACFAFD
:102E98007B6893F8CB30022B09D97B686C331846D2
:102EA800FEF7DEFA0346002B01D0012300E00023E1
:102EB800002B08D07B686C331846FEF7C2FA7B6893
:102EC800002283F8CB207B6893F8D230002B17D0F0
:102ED8007B684C331846FEF7B4FA7B68DB68184603
:102EE800FFF7B3FA7B68DB681846FFF7DFFA03469B
:102EF800002B05D0786800F01DFC7B6801221A7051
:102F08007B685B6B1846FFF7C9F9034683F001033A
:102F1800DBB2002B00F004847B684C331846FEF7C4
:102F280090FA7B6800229A657B686C331846FEF736
:102F380088FA7B6800229A677B68002283F8CB2096
:102F48007B689B6900211846FFF793F97B685B68EB
:102F58001846FFF73EF87B68002283F8D320DFE3AA
:102F6800CDCCCCCC1F6B193A1F85EB51EBA00EEAE8
:102F78007B685A687B68D3F8B4309BB21946104610
:102F8800FFF798F87B6893F8C730012B40F06C8105
:102F98007B689B68B3F88830B3F5967F4BD97B681C
:102FA8009B68B3F88830B3F5077F44D27B689B6889
:102FB800B3F88830A74AA2FB03231B099BB21A4621
:102FC80040F2DE3303FB02F3A34A82FB03125211E1
:102FD800DB17D31A732202FB03F3A04A82FB031206
:102FE8005211DB17D31A9AB27B68A3F8C8207B6802
:102FF800D3F8D8207B68B3F8C83019460B469B0035
:103008000B44B2FBF3F39BB21A4692001A445200E7
:1030180013445B009AB27B68A3F8D0207B68B3F8AE
:10302800D03040F6210293420ED87B6840F6210248
:10303800A3F8D02008E07B68DC22A3F8C8207B68CE
:103048004FF40262A3F8D0207B689B68B3F88830FD
:10305800804AA2FB03231B099BB21A467B68D3F85C
:10306800B43003FB02F37C4AA2FB03235A0913463C
:10307800DB009B1A1B011A46784BA3FB02235B0952
:103088009AB27B68A3F8C4207B6893F8CA301946C3
:103098007B68B3F8B83018467B68D3F8D820704BF3
:1030A800DB6AB2FBF3F303FB00F37A689268B2F8C9
:1030B8008820B3FBF2F39B006A4AA2FB03235B0858
:1030C800CA187B68C3F8B420654BDB6A7A68B2F823
:1030D800D0200532934294BF01230023DBB2002B9A
:1030E80009D07B685B6A01211846FFF7C2F87B6844
:1030F800002283F8CB207B68B3F8B83042F6E06250
:10310800934204D97B6842F6E062A3F8B820544B96
:10311800DB6A7A68B2F8D020934294BF0123002377
:10312800DBB2002B4DD07B68B3F8C4301A467B68FD
:10313800B3F8C830D31A0A2B08DD7B68B3F8B83067
:10314800013B9AB27B68A3F8B8201EE07B685B68F5
:103158001846FEF718FF0346772B0BD87B68B3F8A1
:10316800C8301A467B68B3F8C430D31A0A2B01DD7D
:10317800012300E00023002B07D07B68B3F8B830A8
:1031880001339AB27B68A3F8B8207B685B6818465D
:10319800FEF7F9FE0346A02B8CBF01230023DBB208
:1031A800002B0ED07B68B3F8B83041F288329342D6
:1031B80007D97B68B3F8B830043B9AB27B68A3F8A8
:1031C800B8207B685B681846FEF7DDFE0346222BB5
:1031D80094BF01230023DBB2002B0ED07B68B3F829
:1031E800B83042F6DF62934207D87B68B3F8B8304C
:1031F80001339AB27B68A3F8B820194BDB6A7A6866
:10320800B2F8D020053293428CBF01230023DBB2F1
:10321800002B00F0B0817B685B681846FEF7B3FEB0
:1032280003464B2B8CBF01230023DBB2002B00F09D
:10323800A2817B68B3F8B83041F26F72934240F2D2
:103248009A817B68B3F8B830013B9AB27B68A3F8DF
:10325800B82090E1CDCCCCCC1F6B193A1F85EB512F
:1032680000040040ABAAAAAA7B6893F8C730002BD9
:1032780040F081817B689B68B3F88830B3F5967F0E
:103288004FD97B689B68B3F88830B3F5077F48D27D
:103298007B6893F8D53083F00103DBB2002B40D074
:1032A8007B689B68B3F888306D4AA2FB03231B092F
:1032B8009BB21A464FF46B7303FB02F3694A82FB15
:1032C80003125211DB17D31A732202FB03F3664A67
:1032D80082FB03125211DB17D31A9AB27B68A3F848
:1032E800C8207B68D3F8D8307A68B2F8C820B3FB16
:1032F800F2F3322202FB03F35B085C4AA2FB0323CE
:103308005B099AB27B68A3F8D0207B68B3F8D03009
:10331800B3F5B57F16D27B684FF4B572A3F8D02009
:1033280010E07B6893F8D53083F00103DBB2002B03
:1033380008D07B684FF4B572A3F8D0207B68DE22F2
:10334800A3F8C8207B689B68B3F88830444AA2FB7E
:1033580003231B099BB21A467B68D3F8B43003FBDE
:1033680002F3404AA2FB03235B09732202FB03F327
:103378003D4AA2FB03235B099AB27B68A3F8C420E9
:103388007B68B3F8C4207B68B3F8C83019467B68FB
:10339800B3F8C430CB1A364981FB03014910DB1757
:1033A800CB1A9BB213449AB27B68A3F8C4207B68FB
:1033B80093F8CA3019467B68B3F8B83018467B686A
:1033C800D3F8D8202B4BDB6AB2FBF3F303FB00F3F3
:1033D8007A689268B2F88820B3FBF2F3CA187B685F
:1033E800C3F8B420234BDB6A7A68B2F8D0200532E0
:1033F800934294BF01230023DBB2002B09D07B68E2
:103408005B6A00211846FEF734FF7B68002283F8C8
:10341800CB20184BDB6A7A68B2F8D020934294BF6D
:1034280001230023DBB2002B54D07B68B3F8C420FF
:103438007B68B3F8C8309A421ED97B68B3F8C430A9
:103448001A467B68B3F8C830D31A0A2B26DD7B6886
:10345800B3F8B830013B9AB27B68A3F8B8201DE0F6
:10346800CDCCCCCC1F6B193A1F85EB51EBA00EEAE3
:1034780067666666000400407B68B3F8C8301A4681
:103488007B68B3F8C430D31A0A2B07DD7B68B3F81E
:10349800B83001339AB27B68A3F8B8207B685B68C0
:1034A8001846FEF770FD0346A02B8CBF01230023AE
:1034B800DBB2002B0ED07B68B3F8B83040F2E242A2
:1034C800934207D97B68B3F8B830043B9AB27B685B
:1034D800A3F8B8207B685B681846FEF754FD0346DE
:1034E800222B94BF01230023DBB2002B0ED07B6874
:1034F800B3F8B83040F69702934207D87B68B3F820
:10350800B83001339AB27B68A3F8B820884BDB6ADD
:103518007A68B2F8D020053293428CBF0123002389
:10352800DBB2002B1BD07B685B681846FEF72BFDCF
:1035380003466E2B8CBF01230023DBB2002B0ED079
:103548007B68B3F8B83040F2E242934207D97B680F
:10355800B3F8B830013B9AB27B68A3F8B8207B680F
:10356800B3F8B83040F69702934204D97B6840F626
:103578009802A3F8B8207B68D3F8B43040F2DD3263
:10358800934204D97B6840F2DE32C3F8B4207B68EA
:103598003C331846FDF764FF0346002B00F0C28059
:1035A8007B683C331846FDF74CFF7B6803F13C020F
:1035B8007B68B3F8C23019461046FDF715FF7B68E3
:1035C80093F8C730012B34D1594BDB6A7A68B2F8CB
:1035D800D020934214BF01230023DBB2002B00F05C
:1035E800A180534BDB6A41F2707293428CBF012376
:1035F8000023DBB2002B05D04D4BDB6A4C4A193B4C
:10360800D3628FE04A4BDB6A7A68B2F8D0209342E3
:103618008CBF01230023DBB2002B05D0444BDB6AAF
:10362800434A053BD3627DE0414BDA6A0132DA62F4
:1036380078E07B6893F8C730002B73D13C4BDB6A8A
:103648007A68B2F8D020934214BF01230023DBB27A
:10365800002B67D0364BDB6A7A68B2F8D0209342E9
:103668008CBF01230023DBB2002B26D0304BDB6A52
:10367800B3F51C7F8CBF01230023DBB2002B16D0CF
:103688002B4BDB6A40F2DC5293428CBF01230023B0
:10369800DBB2002B05D0264BDB6A254A203BD362E0
:1036A8000FE0234BDB6A224A033BD36209E0204B3D
:1036B800DB6A1F4A013BD36203E01D4BDA6A013221
:1036C800DA621B4BDB6AB3F51C7F8CBF0123002336
:1036D800DBB2002B04D07B680322A3F8C22021E0D0
:1036E800134BDB6A40F2292293428CBF012300234B
:1036F800DBB2002B04D07B680622A3F8C22011E0BD
:103708000B4BDB6A40F22922934294BF012300232A
:10371800DBB2002B06D07B680822A3F8C22001E0A8
:1037280000BF00E000BF00BF0C37BD4690BD00BF22
:103738000004004080B582B000AF78607B6893F8E1
:10374800C730012B11D17B683C22A3F8BA207B68D3
:1037580041F27072A3F8B8207B680322A3F8C22054
:103768007B68232283F8CA2015E07B6893F8C7306A
:10377800002B10D17B680A22A3F8BA207B6840F29C
:103788007442A3F8B8207B680222A3F8C2207B68A1
:10379800262283F8CA207B680522C3F8B4207B68F8
:1037A800D3F8D8307A68B2F8BA20B3FBF2F21346ED
:1037B8009B0013445B002F4A013BD36200212E4833
:1037C80004F00CFD00212C4805F0BEFA04212A481B
:1037D80004F004FD0421284805F0B6FA082126481B
:1037E80004F0FCFC0821244805F0AEFA234804F054
:1037F800C9FB7B6803F13C027B68B3F8C230194609
:103808001046FDF7F1FD7B685B681846FEF769FB1B
:103818007B689A6892F892306FF3000382F89230CE
:103828007B689A6892F892306FF3410382F892307D
:103838007B689A6892F892306FF3820382F892302C
:103848007B689A6892F893306FF3000382F893309C
:103858007B689A6892F892306FF3C30382F89230CB
:103868007B689B6900211846FEF703FD00BF0837F7
:10387800BD4680BD00040040AC010020F4010020DA
:1038880080B582B000AF7860224B00225A63214B8A
:1038980000229A631F4B0022DA6300211E4804F0BD
:1038A80057FD00211C4805F0FBFA04211A4804F0D2
:1038B8004FFD0421184805F0F3FA0821164804F0D2
:1038C80047FD0821144805F0EBFA144804F0BAFB48
:1038D8007B683C331846FDF7B4FD7B68DB68184607
:1038E800FEF7C6FD7B68002283F8B1207B680622BC
:1038F80083F8B2207B680C2283F8B3207B6800220F
:103908001A707B685B681846FEF7DEFA00BF083756
:10391800BD4680BD002C0140AC010020F401002010
:1039280080B582B000AF78607B685B6B1846FEF7A5
:10393800B5FC034683F00103DBB2002B36D17B686C
:103948005C331846FDF78CFD0346002B2ED17B68AF
:10395800DB681846FEF7AAFD034683F00103DBB2D5
:10396800002B23D17B689B6893F89230C3F3C01374
:10397800DBB2002B1AD17B689B6893F89230C3F3B3
:103988008013DBB2002B11D17B689B6893F89230CF
:10399800C3F34013DBB2002B08D17B689B6893F814
:1039A8009330C3F34003DBB2002B01D0012300E0C6
:1039B8000023002B7DD07B685B6B1846FEF76EFCFE
:1039C800034683F00103DBB2002B0CD07B685C3329
:1039D8001846FDF763FD034683F00103DBB2002BB5
:1039E80001D0012300E00023002B06D07B685C3364
:1039F8004FF47A711846FDF7F7FC7B685C3318467C
:103A0800FDF72EFD0346002B0CD07B685B6B184638
:103A1800FEF744FC034683F00103DBB2002B01D020
:103A2800012300E00023002B07D07868FFF728FF68
:103A38007B685C331846FDF704FD7B68DB68184635
:103A4800FEF734FD034683F00103DBB2002B23D1DC
:103A58007B689B6893F89230C3F3C013DBB2002BEA
:103A68001AD17B689B6893F89230C3F38013DBB25A
:103A7800002B11D17B689B6893F89230C3F34013F5
:103A8800DBB2002B08D17B689B6893F89330C3F3B3
:103A98004003DBB2002B01D0012300E00023002B00
:103AA80007D07868FFF7ECFE7B685C331846FDF7B3
:103AB800C8FC7B685B681846FEF7E3FA0346002BF0
:103AC80024D07B685B681846FEF7E7FA7B6893F8B2
:103AD800CB300133DAB27B6883F8CB207B689B69F3
:103AE80001211846FEF7C5FB7868FFF7C9FE7B6819
:103AF8009A6892F8923043F0080382F892307B6813
:103B08004C3341F288311846FDF76EFC7B685B68E0
:103B18001846FEF76BFA0346002B0DD07B689B68AE
:103B280093F89230C3F30003DBB283F00103DBB2F6
:103B3800002B01D0012300E00023002B24D07B6858
:103B48005B681846FEF75EFA7B6893F8CB30013362
:103B5800DAB27B6883F8CB207B689B690121184621
:103B6800FEF787FB7868FFF78BFE7B689A6892F808
:103B7800923043F0010382F892307B684C3341F273
:103B880088311846FDF730FC7B685B681846FEF7FD
:103B980046FA0346002B0DD07B689B6893F8923059
:103BA800C3F34003DBB283F00103DBB2002B01D087
:103BB800012300E00023002B24D07B685B681846B3
:103BC800FEF739FA7B6893F8CB300133DAB27B68B9
:103BD80083F8CB207B689B6901211846FEF749FBD7
:103BE8007868FFF74DFE7B689A6892F8923043F048
:103BF800020382F892307B684C3341F288311846D0
:103C0800FDF7F2FB7B685B681846FEF721FA03466E
:103C1800002B0DD07B689B6893F89230C3F3800328
:103C2800DBB283F00103DBB2002B01D0012300E0FB
:103C38000023002B24D07B685B681846FEF714FA33
:103C48007B6893F8CB300133DAB27B6883F8CB20FA
:103C58007B689B6901211846FEF70BFB7868FFF724
:103C68000FFE7B689A6892F8923043F0040382F85A
:103C780092307B684C3341F288311846FDF7B4FB2B
:103C88007B685B681846FEF797F900BF0837BD46A2
:103C980080BD000080B582B000AF78607B681B688B
:103CA800044A934202D10448FDF710FC00BF0837CC
:103CB800BD4680BD000400406003002080B582B08E
:103CC80000AF78607B681B68044A934202D10448BD
:103CD800FDF7FCFB00BF0837BD4680BD002801404A
:103CE8006403002090B5ADF5557D0CAF01F0EAFCFA
:103CF80000F0C8F800F03CFC00F00CFC00F054FAAE
:103D080000F0DAFB00F070FB00F02AF900F0AAF9E5
:103D180000F004FB07F54673012251491846FEF7E7
:103D28005FFA07F5447320224D491846FEF758FA02
:103D380007F542734FF400724A491846FEF750FAE5
:103D480007F54073102246491846FEF749FA07F569
:103D58003E734FF4004244491846FEF741FA07F50E
:103D68003C734FF480523F491846FEF739FA07F57D
:103D78003A7380223A491846FEF732FA07F5387343
:103D88004FF4807236491846FEF72AFA07F536735B
:103D98004FF4007232491846FEF722FA07F53473D9
:103DA800042231491846FEF71BFA07F5EA70012389
:103DB800009304232D4A2E49FDF794FF07F542721C
:103DC80007F5DA731146184600F04AFF07F5D27373
:103DD8001846FEF76FFA07F5DA7307F5D27207F59A
:103DE800EA7107F58670234C0194234C009400F087
:103DF80049FF07F5867207F5EA7107F1F0031846DF
:103E0800FEF704FB07F1F00407F5867207F5EA717F
:103E1800381D07F534730A9307F53673099307F5C8
:103E28003873089307F53A73079307F53C730693BD
:103E380007F53E73059307F54073049307F544733C
:103E4800039307F5467302930C4B01930C4B0093B5
:103E58002346FEF797FC3B1D1846FEF781FDFAE75F
:103E6800000C0140001001400008014054030020EC
:103E7800500300205C030020580300206403002046
:103E88006003002080B596B000AF07F13003282208
:103E98000021184607F0E0F807F11C0300221A6019
:103EA8005A609A60DA601A613B1D00221A605A60F3
:103EB8009A60DA601A615A6101233B634FF48033D8
:103EC8007B634FF40033BB6301233B640223FB6431
:103ED8004FF480333B654FF4E0137B6507F1300303
:103EE800184603F07DFB0346002B14BF0123002373
:103EF800DBB2002B01D000F0E5FB0F23FB610223AE
:103F08003B6200237B624FF48063BB620023FB6249
:103F180007F11C030221184603F0E2FD0346002BBB
:103F280014BF01230023DBB2002B01D000F0CAFB31
:103F380002237B604FF40043FB603B1D184603F0EF
:103F48006BFF0346002B14BF01230023DBB2002BB9
:103F580001D000F0B7FB00BF5837BD4680BD000058
:103F680080B584B000AF3B1D00221A605A609A6089
:103F78003A4B3B4A1A60394B4FF480729A60374B80
:103F880000221A73354B00221A75344B4FF4602205
:103F9800DA61324B00225A60304B04221A612F48F2
:103FA80001F0E0FB0346002B14BF01230023DBB222
:103FB800002B01D000F086FB00237B600123BB604F
:103FC8000223FB603B1D1946244801F0B3FE03465B
:103FD800002B14BF01230023DBB2002B01D000F01B
:103FE80071FB01237B600223BB603B1D19461B4804
:103FF80001F0A0FE0346002B14BF01230023DBB20F
:10400800002B01D000F05EFB03237B600323BB6021
:104018003B1D1946114801F08DFE0346002B14BFC5
:1040280001230023DBB2002B01D000F04BFB072358
:104038007B600423BB603B1D1946084801F07AFEEB
:104048000346002B14BF01230023DBB2002B01D051
:1040580000F038FB00BF1037BD4680BD08010020C6
:104068000024014080B58EB000AF07F12003002284
:104078001A605A609A60DA601A615A613B1D002220
:104088001A605A609A60DA601A615A619A61444B00
:10409800444A1A60424B4FF480729A60404B0022A7
:1040A8001A733F4B00221A753D4B4FF46022DA61B8
:1040B8003B4B00225A603A4B01221A61384801F002
:1040C80051FB0346002B14BF01230023DBB2002B56
:1040D80001D000F0F7FA4FF480033B6240F68C23DE
:1040E800FB6200233B63012387F8283007F1200394
:1040F80019462B4801F016FF0346002B14BF012375
:104108000023DBB2002B01D000F0DCFA04237B6033
:104118000123BB6003237B610323FB604FF4E0436F
:10412800FB6100237B7600233B7600233B613B1D2C
:1041380019461B4802F054F90346002B14BF01230B
:104148000023DBB2002B01D000F0BCFA05237B6012
:104158000223BB603B1D1946114802F041F9034692
:10416800002B14BF01230023DBB2002B01D000F089
:10417800A9FA06237B600323BB603B1D1946084848
:1041880002F02EF90346002B14BF01230023DBB2F3
:10419800002B01D000F096FA00BF3837BD4680BD2D
:1041A800380100200028014080B592B000AF07F127
:1041B800400300221A605A6007F1240300221A60A3
:1041C8005A609A60DA601A615A619A613B1D20222E
:1041D8000021184606F040FF4E4B4F4A1A604D4BDF
:1041E80000225A604B4B20229A604A4B41F61F42EC
:1041F800DA60484B00221A61464B00225A61454B4F
:1042080000229A61434803F09AFF0346002B14BF2B
:1042180001230023DBB2002B01D000F053FA002366
:104228003B6400237B6407F140031946394804F0D6
:1042380095FE0346002B14BF01230023DBB2002B9D
:1042480001D000F03FFA60237B620023BB620023A9
:10425800FB6200233B6300237B630023BB630023D3
:10426800FB6307F12403002219462A4804F040FAA8
:104278000346002B14BF01230023DBB2002B01D01F
:1042880000F020FA07F1240304221946214804F01B
:104298002FFA0346002B14BF01230023DBB2002BA7
:1042A80001D000F00FFA07F1240308221946194833
:1042B80004F01EFA0346002B14BF01230023DBB2CF
:1042C800002B01D000F0FEF900237B600023BB60C7
:1042D8000023FB6073233B6100237B614FF4005391
:1042E800BB6100233B623B1D19460A4804F0A2FE4D
:1042F8000346002B14BF01230023DBB2002B01D09F
:1043080000F0E0F9034800F0FBFF00BF4837BD4666
:1043180080BD00BFAC010020002C014080B58AB0F0
:1043280000AF07F1200300221A605A603B1D0022EB
:104338001A605A609A60DA601A615A619A61284B69
:10434800284A1A60264B27225A60254B00229A6079
:10435800234B4CF24F32DA60214B00221A61204B7A
:1043680080229A611E4803F09BFE0346002B14BF6F
:1043780001230023DBB2002B01D000F0A3F90023B6
:104388003B6200237B6207F120031946144804F0BE
:10439800E5FD0346002B14BF01230023DBB2002BED
:1043A80001D000F08FF900237B600023BB6000235D
:1043B800FB6000237B613B1D00221946084804F07E
:1043C8003FF90346002B14BF01230023DBB2002B67
:1043D80001D000F077F900BF2837BD4680BD00BF87
:1043E800F40100200004004080B58AB000AF07F156
:1043F800200300221A605A603B1D00221A605A608E
:104408009A60DA601A615A619A61294B294A1A60DE
:10441800274B00225A60264B00229A60244B4FF407
:10442800E162DA60224B00221A61214B00229A6174
:104438001F4803F084FE0346002B14BF012300230A
:10444800DBB2002B01D000F03DF900233B620023D2
:104458007B6207F120031946154804F07FFD0346E7
:10446800002B14BF01230023DBB2002B01D000F086
:1044780029F960237B600023BB600023FB600023D5
:104488007B613B1D00221946094804F031F90346B7
:10449800002B14BF01230023DBB2002B01D000F056
:1044A80011F9034800F02CFF00BF2837BD4680BD36
:1044B8003C0200200008004080B500AF134B144AAE
:1044C8001A60124B4FF4E1325A60104B00229A6086
:1044D8000E4B0022DA600D4B00221A610B4B0C22A6
:1044E8005A610A4B00229A61084B0022DA61074898
:1044F80004F027FE0346002B14BF01230023DBB280
:10450800002B01D000F0DEF800BF80BD840200203F
:104518000048004080B582B000AF144B5B69134A75
:1045280043F001035361114B5B6903F001037B60A6
:104538007B68002200210B2002F0D5F90B2002F045
:10454800EEF9002200210C2002F0CDF90C2002F037
:10455800E6F9002200210D2002F0C5F90D2002F035
:10456800DEF900BF0837BD4680BD00BF001002401D
:1045780080B588B000AF07F1100300221A605A60B6
:104588009A60DA604A4B9B69494A43F02003936179
:10459800474B9B6903F02003FB60FB68444B9B6916
:1045A800434A43F010039361414B9B6903F01003A6
:1045B800BB60BB683E4B9B693D4A43F00403936173
:1045C8003B4B9B6903F004037B607B68384B9B691A
:1045D800374A43F008039361354B9B6903F008039E
:1045E8003B603B68002241F20121324802F0DFFFC4
:1045F80000224FF40041304802F0D9FF0022302158
:104608002E4802F0D4FF41F201233B6101237B6174
:104618000023BB610223FB6107F1100319462548FB
:1046280002F01AFE04233B6100237B610023BB6177
:1046380007F110031946204802F00EFE4FF400431C
:104648003B6101237B610023BB610223FB6107F10E
:1046580010031946184802F0FFFD04233B610023AC
:104668007B610023BB6107F110031946144802F06F
:10467800F3FD30233B6101237B610023BB610223EF
:10468800FB6107F1100319460C4802F0E5FD4FF4F1
:1046980060733B6100237B610023BB6107F110035A
:1046A8001946064802F0D8FD00BF2037BD4680BD38
:1046B800001002400010014000080140000C0140B9
:1046C8000014014080B400AF72B600BFFEE780B4AA
:1046D80083B000AF786039607B681B6B0B2B08D800
:1046E8007B681B6B591C7A6811637A68396842F8D1
:1046F800231000BF0C37BD4680BC704780B485B01E
:1047080000AF786039600023FB730023BB73BA7B6A
:104718007B681B6B9A420DD2BA7B7B6853F82230B8
:104728003A689A4202D1BB7BFB7303E0BB7B01333F
:10473800BB73ECE7FB7B7B737A7B7B681B6B9A42D2
:104748000CD27B7B591C7A7B7B6853F821107B68E1
:1047580043F822107B7B01337B73EDE77B681B6B8F
:104768005A1E7B681A6300BF1437BD4680BC704769
:1047780080B483B000AF78607B681B6BDBB21846EF
:104788000C37BD4680BC704780B483B000AF7860FA
:1047980039607B683A6853F8223018460C37BD46B2
:1047A80080BC704780B483B000AF78607B681846DF
:1047B8000C37BD4680BC704780B582B000AF7860CA
:1047C80003F0DAFA0346064AA2FB03239B09013BDE
:1047D800184602F0B2F800BF0837BD4680BD00BFDA
:1047E800D34D621080B584B000AFF860B9607A60CC
:1047F800FB681B68591CFA681160BA68B3FBF2F2CF
:10480800B96801FB02F29B1A002B0CBF012300239D
:10481800DBB2002B03D03B1D1846FCF7C7FD00BFD9
:104828001037BD4680BDB0B582B000AF7860396042
:104838007868FBF747FE04460D463868FBF742FEEA
:1048480002460B462046294605F0E8FB02460B4681
:10485800104619460837BD46B0BD000090B585B072
:1048680000AF78607B685C687B681B68022118462B
:10487800FDF744FB034619462046FDF72FFD034686
:104888001AB27B68A3F880207B681B680121184650
:10489800FDF734FB03461846FCF710FA03468B492C
:1048A8001846FCF75FFA034689491846FCF75AFA96
:1048B800034688491846FCF755FA03464FF08041ED
:1048C8001846FCF703FB03461846FCF727FC03468B
:1048D8001AB27B68A3F860207B68B3F87C207B68F9
:1048E800B3F9603019467B68B3F87C30CB1AD90F1E
:1048F8000B445B109BB213449AB27B68A3F87C20EC
:104908007B681B6801211846FDF709FB03461A4618
:104918007B681B68B3F9F430D31A002BB8BF5B422D
:10492800642202FB03F36C4A82FB03129210DB172A
:10493800D31A9AB27B68A3F882207B681B68184652
:10494800FDF721FB03461A467B68A3F884207B68A1
:104958001B681846FDF724FB03461A464FF4AF734D
:1049680003FB02F35D4A82FB03121A44D212DB17DF
:10497800D21A13465B0013441A01D31A584A82FB11
:1049880003129210DB17D31A1AB27B68A3F85E20C1
:104998007B684C331846FCF763FD0346002B65D053
:1049A8007B684C331846FCF74CFD7B684C33184643
:1049B800FCF768FD7B68B3F95E207B6893F82830C4
:1049C80091B27A6808335B0013440A469A807B6880
:1049D80093F82830082B08D87B6893F828300133DF
:1049E800DAB27B6883F8282003E07B68002283F82A
:1049F80028207B6800225A850023FB60FB68092B6E
:104A080012DC7B68B3F92A309AB27968FB680833FC
:104A18005B000B449B8813449BB21AB27B685A858F
:104A2800FB680133FB60E9E77B68B3F92A302C4A5D
:104A380082FB03129210DB17D31A1AB27B685A85CD
:104A48007B68B3F888207B68B3F92A3019467B68FD
:104A5800B3F88830CB1A234981FB0301DB17CB1A43
:104A68009BB213449AB27B68A3F888207B682C33E6
:104A78001846FCF7CCFC03461A467B6893F863306B
:104A88005340DBB2002B14BF01230023DAB27B684A
:104A980083F863207B6893F86230002B05D17B682C
:104AA80093F86330002B00F0D7807B689B68043351
:104AB8000021184600F058F90346042B04D07B68FF
:104AC80093F86330002B0FD001230EE06740533A70
:104AD8000000C84200004040310CC330810008800B
:104AE80067666666ABAAAA2A0023002B70D07B688B
:104AF8009B680433184600F046F97B689B681A1DCA
:104B08007B68B3F87A301946104600F04BF9024634
:104B18007B68B3F87C301946104600F043F902462A
:104B28007B68B3F97E301946104600F059F9024601
:104B38007B68B3F980301946104600F051F90246F7
:104B48007B68B3F882301946104600F02BF902460C
:104B58007B68B3F884301946104600F023F9024602
:104B68007B68B3F886301946104600F01BF90246F8
:104B78007B68B3F888301946104600F013F90246EE
:104B88007B68B3F88A301946104600F00BF90246E4
:104B98007B68B3F88C301946104600F003F90246DA
:104BA8007B68B3F88E301946104600F0FBF80246D1
:104BB8007B68B3F890301946104600F0F3F80246C7
:104BC8007B68B3F892301946104600F0EBF822E003
:104BD8007B689B6804330021184600F0C5F803463B
:104BE8002B2B0CBF01230023DBB2002B13D07B68D7
:104BF8009B680433184600F0C6F87B689B6804334A
:104C08004F21184600F00AF97B689B6804334B2152
:104C1800184600F003F97B68002283F862207B685D
:104C2800002283F863207B689B680433184600F0F1
:104C380012F90346002B14BF01230023DBB2002B1B
:104C480005D07B689B68184600F014F904E07B687F
:104C58009B68184600F030F900BF1437BD4690BD78
:104C680080B582B000AF786039607B683A681A60B6
:104C78007B680433184600F03BF97B681846083710
:104C8800BD4680BD80B584B000AFF860B9607A6079
:104C98003B60FB68BA681A60FB687A685A60FB6810
:104CA8003A689A60FB68BA69DA60FB68FA691A615F
:104CB800FB68143300221A605A609A60DA601A613D
:104CC800FB68002283F82820FB6800225A85FB68CD
:104CD8002C331846FCF726FBFB683C331846FCF7D8
:104CE80021FBFB684C3319211846FCF733FBFB68A2
:104CF800002283F85C20FB680022A3F85E20FB6892
:104D08000022A3F86020FB68002283F86220FB6879
:104D1800002283F86320FB68012283F86420FB6883
:104D28006833F968184600F0EFF8FB687033F968E3
:104D3800184600F007F9FB687A3300221A605A60B7
:104D48009A60DA601A615A611A83386800F0B4F818
:104D5800FB682C334FF4FA611846FCF745FBFB68F7
:104D680018461037BD4680BD80B483B000AF786068
:104D780039607A683B68134402331B7818460C374D
:104D8800BD4680BC704780B483B000AF78607B6854
:104D980000221A707B6800225A7000BF0C37BD468B
:104DA80080BC704780B584B000AF78600B467B80CC
:104DB80007F10E0307F10F027988786800F0E0F830
:104DC800BB7B1946786800F0F0F80246FB7B194671
:104DD800104600F0EAF87B6818461037BD4680BDDB
:104DE80080B584B000AF78600B467B80798807F186
:104DF8000E0307F10F02786800F0C2F8BB7B194672
:104E0800786800F0D2F80246FB7B1946104600F09D
:104E1800CCF87B6818461037BD4680BD80B483B097
:104E280000AF78600B46FB707B685B78192B0CD859
:104E38007B685B781A467B681344FA789A707B68BB
:104E48005B780133DAB27B685A707B6818460C3796
:104E5800BD4680BC704780B483B000AF78607B6883
:104E68005A787B681B78D31ADBB218460C37BD46D4
:104E780080BC704790B583B000AF78607B6804331E
:104E8800184600F0AFF804467B6804331846FFF76D
:104E9800E2FF03469BB21A462146064804F09EF9F3
:104EA8007B681B6801211846FDF7E3F900BF0C3742
:104EB800BD4690BD8402002080B582B000AF786006
:104EC8007B680433184600F08DF803461A22194609
:104ED800064804F0EFF97B681B6800211846FDF7C7
:104EE800C8F900BF0837BD4680BD00BF8402002056
:104EF80080B582B000AF78607868FFF744FF7B68C0
:104F080018460837BD4680BD80B582B000AF7860CE
:104F180039607B681846FCF77DFE094A7B681A6091
:104F28007B683A685A603B681B697A68114618467C
:104F3800FCF7BFFA7B6818460837BD4680BD00BF3E
:104F480070B1000880B582B000AF786039607B68C6
:104F58001846FCF75FFE094A7B681A607B683A6866
:104F68005A603B68DB687A6811461846FCF7A1FA74
:104F78007B6818460837BD4680BD00BF64B100088D
:104F880080B487B000AFF8607A603B600B467B81E5
:104F98007B89BB823A7D7B681A707A7D3B681A7080
:104FA80000BF1C37BD4680BC704780B483B000AFDB
:104FB80078600B46FB707B685B78192B0CD87B6894
:104FC8005B781A467B681344FA789A707B685B783A
:104FD8000133DAB27B685A707B6818460C37BD46D5
:104FE80080BC704780B483B000AF78607B680233C0
:104FF80018460C37BD4680BC7047000080B582B0AB
:1050080000AF786039607B68012B07D13B684FF6A9
:10501800FF72934202D10348FCF704F900BF083736
:10502800BD4680BD9800002080B582B000AF786092
:105038007B685B68184600F011F800BF0837BD466A
:1050480080BD80B582B000AF78607B685B68184629
:1050580000F011F800BF0837BD4680BD80B582B0AA
:1050680000AF78607B689B681846FFF725FF00BF94
:105078000837BD4680BD80B582B000AF78607B68D8
:10508800012283F862207B682C331846FCF7D9F993
:1050980000BF0837BD4680BD80B500AF4FF6FF7131
:1050A8000120FFF7ABFF80BD80B485B000AF154B82
:1050B8009B69144A43F001039361124B9B6903F007
:1050C8000103BB60BB680F4BDB690E4A43F080539A
:1050D800D3610C4BDB6903F080537B607B680A4B20
:1050E8005B68FB60FB6823F0E063FB60FB6843F0F0
:1050F8000073FB60044AFB68536000BF1437BD4669
:1051080080BC7047001002400000014080B58AB0A2
:1051180000AF786007F1180300221A605A609A609D
:10512800DA607B681B68444A934252D1434B9B69BF
:10513800424A43F400739361404B9B6903F4007344
:105148007B617B693D4B9B693C4A43F00403936157
:105158003A4B9B6903F004033B613B698B23BB61BA
:105168000323FB6107F118031946354802F074F868
:10517800344B354A1A60334B00225A60314B0022B7
:105188009A60304B8022DA602E4B4FF480721A619D
:105198002C4B4FF480625A612A4B00229A61294BAA
:1051A8000022DA61274801F0D5FB0346002B01D025
:1051B800FFF788FA7B68234A1A62224A7B6853629F
:1051C80000220121122001F08EFB122001F0A7FB22
:1051D8002EE07B681B681D4A934229D1174B9B69B7
:1051E800164A43F480639361144B9B6903F480630C
:1051F800FB60FB68114B9B69104A43F00403936101
:105208000E4B9B6903F00403BB60BB687023BB6152
:105218000323FB6107F118031946094802F01CF83B
:1052280000220121122001F05EFB122001F077FB21
:1052380000BF2837BD4680BD002401400010024051
:1052480000080140680100200800024000280140D1
:1052580080B485B000AF78607B681B68124A9342BF
:105268000CD1124B9B69114A43F4006393610F4BB5
:105278009B6903F40063FB60FB6810E07B681B68B4
:105288000B4A93420BD1094BDB69084A43F00403EC
:10529800D361064BDB6903F00403BB60BB6800BF46
:1052A8001437BD4680BC7047002C014000100240F6
:1052B8000008004080B584B000AF78607B681B6848
:1052C8000D4A934213D10D4BDB690C4A43F002039C
:1052D800D3610A4BDB6903F00203FB60FB68002221
:1052E80000211D2001F0FFFA1D2001F018FB00BF6E
:1052F8001037BD4680BD00BF0004004000100240CA
:1053080080B58AB000AF786007F1180300221A60F0
:105318005A609A60DA607B681B682B4A934232D1E4
:105328002A4B9B69294A43F008039361274B9B69E1
:1053380003F008037B617B69244B9B69234A43F094
:1053480004039361214B9B6903F004033B613B69B0
:105358004FF46043BB610223FB6102237B6207F1C8
:10536800180319461A4801F077FF4FF4E063BB6150
:105378000223FB6102237B6207F1180319461548D3
:1053880001F06AFF1CE07B681B68134A934217D13F
:105398000E4B9B690D4A43F0080393610B4B9B69C5
:1053A80003F00803FB60FB684023BB610223FB6139
:1053B80002237B6207F118031946054801F04CFFE8
:1053C80000BF2837BD4680BD002C014000100240B8
:1053D800000C0140000801400008004080B58AB078
:1053E80000AF786007F1140300221A605A609A60CF
:1053F800DA607B681B68504A934240F099804F4BB3
:10540800DB694E4A43F48023D3614C4BDB6903F4D8
:1054180080233B613B69494B9B69484A43F0100331
:105428009361464B9B6903F01003FB60FB684FF4E4
:1054380080637B610223BB6103233B6207F1140392
:1054480019463F4801F008FF4FF400637B610023D1
:10545800BB610023FB6107F114031946384801F0CA
:10546800FBFE384B5B687B627B6A23F030037B6210
:105478007B6A43F0E0637B627B6A43F010037B62E4
:10548800304A7B6A5360304B304A1A602E4B1022E8
:105498005A602D4B00229A602B4B8022DA602A4BEF
:1054A80000221A61284B00225A61274B00229A6178
:1054B800254B4FF48052DA61234801F04BFA03463A
:1054C800002B01D0FFF7FEF87B681F4A5A631E4A7B
:1054D8007B6853621E4B1F4A1A601D4B00225A609C
:1054E8001B4B00229A601A4B8022DA60184B00226C
:1054F8001A61174B00225A61154B00229A61144B0E
:105508000022DA61124801F025FA0346002B01D087
:10551800FFF7D8F87B680E4A9A630D4A7B68536296
:1055280000220221272001F0DEF9272001F0F7F9F7
:1055380000BF2837BD4680BD00480040001002402B
:105548000010014000000140C80200201C00024079
:105558000C0300203000024080B400AFFEE780B4A6
:1055680000AFFEE780B400AFFEE780B400AFFEE70F
:1055780080B400AFFEE780B400AF00BFBD4680BC7A
:10558800704780B400AF00BFBD4680BC704780B490
:1055980000AF00BFBD4680BC704780B500AFFBF7C9
:1055A80065FE00BF80BD000080B500AF024801F075
:1055B800E9FB00BF80BD00BF6801002080B500AFD7
:1055C800024801F0DFFB00BF80BD00BFC802002019
:1055D80080B500AF024801F0D5FB00BF80BD00BF19
:1055E8000C03002080B500AF034800F0CEFA034852
:1055F80000F0CBFA00BF80BD080100203801002070
:1056080080B500AF024802F013FF00BF80BD00BFA5
:10561800F401002080B500AF024803F09BFE00BFF4
:1056280080BD00BF8402002080B400AF012318466B
:10563800BD4680BC704780B582B000AF78603960E5
:1056480005F0E0FC034616221A604FF0FF331846B7
:105658000837BD4680BD80B582B000AF78604FF096
:10566800FF317868FFF7E7FFFEE780B400AF00BFBF
:10567800BD4680BC704700000C480D490D4A002308
:1056880002E0D458C4500433C4188C42F9D30A4AEF
:105698000A4C002301E013600432A242FBD3FFF757
:1056A800E4FF05F0B5FCFEF71DFB70470000002085
:1056B8007800002034B20008780000207003002031
:1056C800FEE7000080B500AF084B1B68074A43F0AF
:1056D80010031360032001F0FBF8012000F008F824
:1056E800FFF7E2FC0023184680BD00BF00200240FF
:1056F80080B582B000AF7860124B1A68124B1B78E5
:1057080019464FF47A73B3FBF1F3B2FBF3F318467F
:1057180001F013F90346002B01D001230EE07B684A
:105728000F2B0AD8002279684FF0FF3001F0DBF820
:10573800064A7B681360002300E0012318460837F7
:10574800BD4680BD000000200800002004000020A5
:1057580080B400AF024B1B681846BD4680BC70473A
:105768006803002080B586B000AF78600023FB7521
:1057780000233B610023BB600023FB607B68002B98
:1057880001D10123CEE07B689B68002B7B689B6A74
:10579800002B09D17B680022DA627B68002283F83B
:1057A80024207868FFF7B2FC786800F06BFC0346A9
:1057B800FB757B689B6A03F01003002B40F0A980FF
:1057C800FB7D002B40F0A5807B689B6A23F48853FF
:1057D80023F0020343F002027B689A627B685A68EE
:1057E8007B681B6851498B420AD17B68DB69B3F53A
:1057F800402F02D07B68DB6904E04FF4002301E00E
:105808007B68DB691A437B681B7B5B001343BA68C0
:105818001343BB607B689B68B3F5807F03D07B68CC
:105828009B68012B02D14FF4807300E000233A6992
:1058380013433B617B681B7D012B19D17B681B7B64
:10584800002B09D17B689B69013B5A033B691343D1
:1058580043F400633B610BE07B689B6A43F02002E2
:105868007B689A627B68DB6A43F001027B68DA62D4
:105878007B681B685B6823F469417B681B683A692D
:105888000A435A607B681B689A68294B13407A68F8
:105898001268B9680B4393607B689B68B3F5807F97
:1058A80003D07B689B68012B04D17B681B69013B93
:1058B8001B05FB607B681B68DB6A23F470017B684F
:1058C8001B68FA680A43DA627B681B689A68194B96
:1058D8001340BA689A420BD17B680022DA627B686F
:1058E8009B6A23F0030343F001027B689A6218E085
:1058F8007B689B6A23F0120343F010027B689A626C
:105908007B68DB6A43F001027B68DA620123FB757E
:1059180007E07B689B6A43F010027B689A62012368
:10592800FB75FB7D18461837BD4680BD003C01401D
:10593800FDF7E1FFFE0E1FFF80B586B000AFF860EF
:10594800B9607A600023FB75FB681B68644A934260
:1059580004D0FB681B68634A934206D1604B5B68BE
:1059680003F47023002B40F0B380FB6893F82430D5
:10597800012B01D10223AEE0FB68012283F8242029
:10598800F86800F025FB0346FB75FB7D002B40F013
:105998009A80FB689B6A23F4706323F0010343F445
:1059A8008072FB689A62FB681B684E4A934205D175
:1059B8004B4B5B6803F47023002B15D1FB689B6A83
:1059C80023F48012FB689A62FB681B685B6803F427
:1059D8008063002B26D0FB689B6A23F4405343F472
:1059E8008052FB689A621DE0FB689B6A43F4801250
:1059F800FB689A62FB681B68394A934204D0FB68CB
:105A08001B68384A93420DD1354B5B6803F48063B9
:105A1800002B07D0FB689B6A23F4405343F4805261
:105A2800FB689A62FB689B6A03F48053002B06D0DC
:105A3800FB68DB6A23F00602FB68DA6202E0FB68B7
:105A48000022DA62FB68002283F82420FB681B6AC4
:105A5800254A9A62FB681B6A244ADA62FB681B6A59
:105A6800234A1A63FB681B686FF002021A60FB681E
:105A78001B689A68FB681B6842F480729A60FB682E
:105A8800186AFB681B684C331946BA687B6800F0D3
:105A9800D7FFFB681B689B6803F46023B3F5602F8E
:105AA80008D1FB681B689A68FB681B6842F4A0026F
:105AB8009A600FE0FB681B689A68FB681B6842F4F1
:105AC80080129A6006E0FB68002283F8242001E037
