:020000040800F2
:100000000000012069560008C1540008C9540008C6
:10001000555500085B5500086155000800000000B8
:10002000000000000000000000000000675500080C
:1000300073550008000000007F5500088B5500082C
:10004000B1560008B1560008B1560008B156000874
:10005000B1560008B1560008B1560008B156000864
:10006000B1560008B1560008B1560008995500086D
:10007000AD550008C1550008B1560008B15600083A
:10008000B1560008B1560008D5550008B156000811
:10009000B1560008B1560008B1560008B156000824
:1000A000B1560008B1560008B1560008B156000814
:1000B000B1560008F1550008B1560008B1560008C5
:1000C000B1560008B1560008B1560008B1560008F4
:1000D000B1560008B1560008B15600080556000890
:1000E000B1560008B1560008B1560008B1560008D4
:1000F000B1560008B1560008B1560008B1560008C4
:10010000B1560008B1560008B1560008B1560008B3
:10011000B1560008B1560008B1560008B1560008A3
:10012000B1560008B1560008B1560008B156000893
:1001300000000000000000000000000000000000BF
:1001400000000000000000000000000000000000AF
:10015000000000000000000000000000000000009F
:10016000000000000000000000000000000000008F
:10017000000000000000000000000000000000007F
:10018000000000000000000000000000000000006F
:10019000000000000000000000000000000000005F
:1001A000000000000000000000000000000000004F
:1001B000000000000000000000000000000000003F
:1001C000000000000000000000000000000000002F
:1001D000000000000000000000000000000000001F
:0401E0005FF8E0F1F3
:1001E80010B5054C237833B9044B13B10448AFF369
:1001F80000800123237010BD78000020000000005B
:100208003CB1000808B5034B1BB103490348AFF3E1
:10021800008008BD000000007C0000203CB1000800
:1002280081F0004102E000BF83F0004330B54FEA9F
:1002380041044FEA430594EA050F08BF90EA020F0C
:100248001FBF54EA000C55EA020C7FEA645C7FEA9F
:10025800655C00F0E2804FEA5454D4EB5555B8BFC2
:100268006D420CDD2C4480EA020281EA030382EA33
:10027800000083EA010180EA020281EA0303362DC5
:1002880088BF30BD11F0004F4FEA01314FF4801C98
:100298004CEA113102D0404261EB410113F0004FAA
:1002A8004FEA03334CEA133302D0524263EB430361
:1002B80094EA050F00F0A780A4F10104D5F1200EFF
:1002C8000DDB02FA0EFC22FA05F2801841F100015A
:1002D80003FA0EF2801843FA05F359410EE0A5F12E
:1002E80020050EF1200E012A03FA0EFC28BF4CF05F
:1002F800020C43FA05F3C01851EBE37101F0004515
:1003080007D54FF0000EDCF1000C7EEB00006EEB21
:100318000101B1F5801F1BD3B1F5001F0CD34908AB
:100328005FEA30004FEA3C0C04F101044FEA445202
:1003380012F5800F80F09A80BCF1004F08BF5FEA89
:10034800500C50F1000041EB045141EA050130BD69
:100358005FEA4C0C404141EB0101013C28BFB1F57B
:10036800801FE9D291F0000F04BF01460020B1FAC6
:1003780081F308BF2033A3F10B03B3F120020CDA99
:100388000C3208DD02F1140CC2F10C0201FA0CF077
:1003980021FA02F10CE002F11402D8BFC2F1200CDC
:1003A80001FA02F120FA0CFCDCBF41EA0C01904092
:1003B800E41AA2BF01EB0451294330BD6FEA0404DB
:1003C8001F3C1CDA0C340EDC04F11404C4F12002C6
:1003D80020FA04F001FA02F340EA030021FA04F3D8
:1003E80045EA030130BDC4F10C04C4F1200220FA2F
:1003F80002F001FA04F340EA0300294630BD21FA6D
:1004080004F0294630BD94F0000F83F4801306BF32
:1004180081F480110134013D4EE77FEA645C18BF26
:100428007FEA655C29D094EA050F08BF90EA020FBD
:1004380005D054EA000C04BF1946104630BD91EAB5
:10044800030F1EBF0021002030BD5FEA545C05D1B8
:100458004000494128BF41F0004130BD14F58004F7
:100468003CBF01F5801130BD01F0004545F0FE416B
:1004780041F470014FF0000030BD7FEA645C1ABFA0
:10048800194610467FEA655C1CBF0B46024650EAD7
:10049800013406BF52EA033591EA030F41F4002103
:1004A80030BD00BF90F0000F04BF0021704730B589
:1004B8004FF4806404F132044FF000054FF000015E
:1004C80050E700BF90F0000F04BF0021704730B51F
:1004D8004FF4806404F1320410F0004548BF4042F4
:1004E8004FF000013EE700BF42004FEAE2014FEA49
:1004F80031014FEA02701FBF12F07F4393F07F4F24
:1005080081F06051704732F07F4208BF704793F026
:100518007F4F04BF41F40021704730B54FF4607439
:1005280001F0004521F000411CE700BF50EA01023C
:1005380008BF704730B54FF000050AE050EA0102E5
:1005480008BF704730B511F0004502D5404261EB55
:1005580041014FF4806404F132045FEA915C3FF496
:10056800D8AE4FF003025FEADC0C18BF03325FEA33
:10057800DC0C18BF033202EBDC02C2F1200300FAE4
:1005880003FC20FA02F001FA03FE40EA0E0021FA09
:1005980002F11444BDE600BF70B54FF0FF0C4CF4F7
:1005A800E06C1CEA11541DBF1CEA135594EA0C0FA9
:1005B80095EA0C0F00F0DEF82C4481EA030621EAE4
:1005C8004C5123EA4C5350EA013518BF52EA03351F
:1005D80041F4801143F4801338D0A0FB02CE4FF0D1
:1005E8000005E1FB02E506F00042E0FB03E54FF001
:1005F8000006E1FB03569CF0000F18BF4EF0010EF9
:10060800A4F1FF04B6F5007F64F5407404D25FEAF4
:100618004E0E6D4146EB060642EAC62141EA5551A7
:100628004FEAC52040EA5E504FEACE2EB4F1FD0CE9
:1006380088BFBCF5E06F1ED8BEF1004F08BF5FEA67
:10064800500E50F1000041EB045170BD06F0004619
:1006580046EA010140EA020081EA0301B4EB5C04C6
:10066800C2BFD4EB0C0541EA045170BD41F48011BE
:100678004FF0000E013C00F3AB8014F1360FDEBFE3
:10068800002001F0004170BDC4F10004203C35DABF
:100698000C341BDC04F11404C4F1200500FA05F342
:1006A80020FA04F001FA05F240EA020001F00042E3
:1006B80021F0004110EBD37021FA04F642EB060159
:1006C8005EEA430E08BF20EAD37070BDC4F10C0483
:1006D800C4F1200500FA04F320FA05F001FA04F247
:1006E80040EA020001F0004110EBD37041F1000133
:1006F8005EEA430E08BF20EAD37070BDC4F120053E
:1007080000FA05F24EEA020E20FA04F301FA05F2A5
:1007180043EA020321FA04F001F0004121FA04F24D
:1007280020EA020000EBD3705EEA430E08BF20EA1D
:10073800D37070BD94F0000F0FD101F00046400057
:1007480041EB010111F4801F08BF013CF7D041EAD9
:10075800060195F0000F18BF704703F000465200DD
:1007680043EB030313F4801F08BF013DF7D043EAAE
:100778000603704794EA0C0F0CEA135518BF95EA64
:100788000C0F0CD050EA410618BF52EA4306D1D1EB
:1007980081EA030101F000414FF0000070BD50EA0A
:1007A800410606BF1046194652EA430619D094EA94
:1007B8000C0F02D150EA013613D195EA0C0F05D17E
:1007C80052EA03361CBF104619460AD181EA0301D2
:1007D80001F0004141F0FE4141F470014FF000008A
:1007E80070BD41F0FE4141F4780170BD70B54FF025
:1007F800FF0C4CF4E06C1CEA11541DBF1CEA1355A5
:1008080094EA0C0F95EA0C0F00F0A7F8A4EB050486
:1008180081EA030E52EA03354FEA013100F088807D
:100828004FEA03334FF0805545EA131343EA126346
:100838004FEA022245EA111545EA10654FEA0026FB
:100848000EF000419D4208BF964244F1FD0404F5B4
:10085800407402D25B084FEA3202B61A65EB030510
:100868005B084FEA32024FF480104FF4002CB6EBCD
:10087800020E75EB030E22BFB61A754640EA0C004D
:100888005B084FEA3202B6EB020E75EB030E22BF8D
:10089800B61A754640EA5C005B084FEA3202B6EBCE
:1008A800020E75EB030E22BFB61A754640EA9C008D
:1008B8005B084FEA3202B6EB020E75EB030E22BF5D
:1008C800B61A754640EADC0055EA060E18D04FEA1B
:1008D800051545EA16754FEA06164FEAC30343EABB
:1008E80052734FEAC2025FEA1C1CC0D111F4801F88
:1008F8000BD141EA00014FF000004FF0004CB6E781
:1009080011F4801F04BF01430020B4F1FD0C88BF1F
:10091800BCF5E06F3FF6AFAEB5EB030C04BFB6EB2A
:10092800020C5FEA500C50F1000041EB045170BD1D
:100938000EF0004E4EEA113114EB5C04C2BFD4EB4A
:100948000C0541EA045170BD41F480114FF0000ECE
:10095800013C90E645EA060E8DE60CEA135594EA4A
:100968000C0F08BF95EA0C0F3FF43BAF94EA0C0F4D
:100978000AD150EA01347FF434AF95EA0C0F7FF4C2
:1009880025AF104619462CE795EA0C0F06D152EA16
:1009980003353FF4FDAE1046194622E750EA4106FA
:1009A80018BF52EA43067FF4C5AE50EA41047FF40B
:1009B8000DAF52EA43057FF4EBAE12E74FF0FF3C70
:1009C80006E000BF4FF0010C02E000BF4FF0010C41
:1009D8004DF804CD4FEA410C7FEA6C5C4FEA430CBA
:1009E80018BF7FEA6C5C1BD001B050EA410C0CBF09
:1009F80052EA430C91EA030F02BF90EA020F00206B
:100A0800704710F1000F91EA030F58BF994208BFD1
:100A180090422CBFD8176FEAE37040F0010070478E
:100A28004FEA410C7FEA6C5C02D150EA013C07D1E5
:100A38004FEA430C7FEA6C5CD6D152EA033CD3D030
:100A48005DF8040B704700BF8446104662468C462A
:100A58001946634600E000BF01B5FFF7B7FF00285D
:100A680048BF10F1000F01BD4DF808EDFFF7F4FF86
:100A78000CBF012000205DF808FB00BF4DF808ED11
:100A8800FFF7EAFF34BF012000205DF808FB00BF34
:100A98004DF808EDFFF7E0FF94BF012000205DF856
:100AA80008FB00BF4DF808EDFFF7CEFF94BF01200B
:100AB80000205DF808FB00BF4DF808EDFFF7C4FF04
:100AC80034BF012000205DF808FB00BF4FEA410C4D
:100AD8007FEA6C5C02D150EA013C0AD14FEA430C30
:100AE8007FEA6C5C02D152EA033C02D14FF000006D
:100AF80070474FF0010070474FEA410212F50012AB
:100B080015D211D56FF47873B3EB625212D94FEA4C
:100B1800C12343F0004343EA505311F0004F23FA36
:100B280002F018BF404270474FF00000704750EA8B
:100B3800013005D111F0004008BF6FF00040704748
:100B48004FF00000704700BF80F0004002E000BF97
:100B580081F0004142001FBF5FEA410392EA030FA0
:100B68007FEA226C7FEA236C6AD04FEA1262D2EBEA
:100B78001363C1BFD218414048404140B8BF5B42EF
:100B8800192B88BF704710F0004F40F4000020F088
:100B98007F4018BF404211F0004F41F4000121F09E
:100BA8007F4118BF494292EA030F3FD0A2F10102E8
:100BB80041FA03FC10EB0C00C3F1200301FA03F126
:100BC80000F0004302D5494260EB4000B0F5000F49
:100BD80013D3B0F1807F06D340084FEA310102F108
:100BE8000102FE2A51D2B1F1004F40EBC25008BFBA
:100BF80020F0010040EA03007047490040EB000084
:100C0800013A28BFB0F5000FEDD2B0FA80FCACF184
:100C1800080CB2EB0C0200FA0CF0AABF00EBC250B1
:100C280052421843BCBFD0401843704792F0000F9F
:100C380081F4000106BF80F400000132013BB5E7F2
:100C48004FEA41037FEA226C18BF7FEA236C21D068
:100C580092EA030F04D092F0000F08BF08467047CD
:100C680090EA010F1CBF0020704712F07F4F04D19B
:100C7800400028BF40F00040704712F100723CBFAE
:100C880000F50000704700F0004343F0FE4040F4D8
:100C9800000070477FEA226216BF08467FEA236396
:100CA8000146420206BF5FEA412390EA010F40F481
:100CB800800070474FF0000304E000BF10F00043CD
:100CC80048BF40425FEA000C08BF704743F09643B4
:100CD80001464FF000001CE050EA010208BF7047CF
:100CE8004FF000030AE000BF50EA010208BF704756
:100CF80011F0004302D5404261EB41015FEA010C6B
:100D080002BF84460146002043F0B64308BFA3F162
:100D18008053A3F50003BCFA8CF2083AA3EBC25344
:100D280010DB01FA02FC634400FA02FCC2F1200263
:100D3800BCF1004F20FA02F243EB020008BF20F09A
:100D48000100704702F1200201FA02FCC2F1200200
:100D580050EA4C0021FA02F243EB020008BF20EAF5
:100D6800DC7070474FF0FF0C1CEAD0521EBF1CEA23
:100D7800D15392EA0C0F93EA0C0F6FD01A4480EA11
:100D8800010C400218BF5FEA41211ED04FF00063FA
:100D980043EA501043EA5111A0FB01310CF0004026
:100DA800B1F5000F3EBF490041EAD3715B0040EA4C
:100DB800010062F17F02FD2A1DD8B3F1004F40EB1C
:100DC800C25008BF20F00100704790F0000F0CF0EF
:100DD800004C08BF49024CEA502040EA51207F3AB3
:100DE800C2BFD2F1FF0340EAC250704740F400008E
:100DF8004FF00003013A5DDC12F1190FDCBF00F07F
:100E080000407047C2F10002410021FA02F1C2F12C
:100E1800200200FA02FC5FEA310040F1000053EAC8
:100E28004C0308BF20EADC70704792F0000F00F016
:100E3800004C02BF400010F4000F013AF9D040EA1C
:100E48000C0093F0000F01F0004C02BF490011F4B0
:100E5800000F013BF9D041EA0C018FE70CEAD153AE
:100E680092EA0C0F18BF93EA0C0F0AD030F0004C2E
:100E780018BF31F0004CD8D180EA010000F00040E2
:100E8800704790F0000F17BF90F0004F084691F0A0
:100E9800000F91F0004F14D092EA0C0F01D14202DA
:100EA8000FD193EA0C0F03D14B0218BF084608D1A3
:100EB80080EA010000F0004040F0FE4040F40000ED
:100EC800704740F0FE4040F4400070474FF0FF0C80
:100ED8001CEAD0521EBF1CEAD15392EA0C0F93EAC7
:100EE8000C0F69D0A2EB030280EA010C49024FEA19
:100EF800402037D04FF0805343EA111143EA1013D2
:100F08000CF000408B4238BF5B0042F17D024FF489
:100F1800000C8B4224BF5B1A40EA0C00B3EB510F64
:100F280024BFA3EB510340EA5C00B3EB910F24BF4D
:100F3800A3EB910340EA9C00B3EBD10F24BFA3EBD2
:100F4800D10340EADC001B0118BF5FEA1C1CE0D19A
:100F5800FD2A3FF650AF8B4240EBC25008BF20F04D
:100F6800010070470CF0004C4CEA50207F32C2BFA1
:100F7800D2F1FF0340EAC250704740F400004FF03E
:100F88000003013A37E792F0000F00F0004C02BF6F
:100F9800400010F4000F013AF9D040EA0C0093F039
:100FA800000F01F0004C02BF490011F4000F013B93
:100FB800F9D041EA0C0195E70CEAD15392EA0C0FFB
:100FC80008D142027FF47DAF93EA0C0F7FF470AF33
:100FD800084676E793EA0C0F04D14B023FF44CAF76
:100FE80008466EE730F0004C18BF31F0004CCAD10B
:100FF80030F000427FF45CAF31F000437FF43CAF47
:101008005FE700BF4FF0FF3C06E000BF4FF0010C68
:1010180002E000BF4FF0010C4DF804CD4FEA40024A
:101028004FEA41037FEA226C18BF7FEA236C11D094
:1010380001B052EA530C18BF90EA010F58BFB2EB47
:10104800030088BFC81738BF6FEAE17018BF40F0C7
:10105800010070477FEA226C02D15FEA402C05D17B
:101068007FEA236CE4D15FEA412CE1D05DF8040B00
:10107800704700BF844608466146FFE70FB5FFF793
:10108800C9FF002848BF10F1000F0FBD4DF808ED4B
:10109800FFF7F4FF0CBF012000205DF808FB00BF3C
:1010A8004DF808EDFFF7EAFF34BF012000205DF896
:1010B80008FB00BF4DF808EDFFF7E0FF94BF0120E3
:1010C80000205DF808FB00BF4DF808EDFFF7D2FFE0
:1010D80094BF012000205DF808FB00BF4DF808ED23
:1010E800FFF7C8FF34BF012000205DF808FB00BFF0
:1010F8004FEA40024FEA41037FEA226C02D15FEADD
:10110800402C08D17FEA236C02D15FEA412C02D13E
:101118004FF0000070474FF0010070474FEA40025F
:10112800B2F1FE4F0FD34FF09E03B3EB12620DD90D
:101138004FEA002343F0004310F0004F23FA02F077
:1011480018BF404270474FF00000704712F1610F1E
:1011580001D1420205D110F0004008BF6FF00040F5
:1011680070474FF00000704742000ED2B2F1FE4FB8
:101178000BD34FF09E03B3EB126209D44FEA00235E
:1011880043F0004323FA02F070474FF00000704725
:1011980012F1610F01D1420202D14FF0FF307047C6
:1011A8004FF00000704700BF80B582B000AF786094
:1011B80039607B683968184603F083FA00BF08373E
:1011C800BD4680BD80B582B000AF786039607B686D
:1011D8003968184603F08CFA00BF0837BD4680BD51
:1011E80080B584B000AF78600023FB737B68184635
:1011F80003F0B8FA03461A46FB7B934234BF012337
:101208000023DBB2002B1ED07B68FA7B1146184600
:1012180003F0B4FA0346002B14BF01230023DBB20A
:10122800002B0BD07B68FA7B1146184603F0A6FA10
:1012380003461A6812681846904700E000BFFB7B17
:101248000133FB73D2E700BF1037BD4680BD80B5C0
:1012580082B000AF78607B68184603F09DFA7B681F
:1012680018460837BD4680BD80B582B000AF7860AB
:101278007B681846FFF7EBFF7B6818460837BD46C2
:1012880080BD000080B582B000AF78607B681846EA
:10129800FFF7DDFF7B68343334220021184609F05C
:1012A800FDFE7B6834331846FFF7DEFF7B680022BB
:1012B8009A667B680122DA66034803F077FA7B684E
:1012C80018460837BD4680BD9400002080B500AFA1
:1012D800024800F09BF800BF80BD00BF98000020C6
:1012E80080B582B000AF78607B681B7983F001031A
:1012F800DBB2002B07D07B6801221A717B68194684
:101308000348FFF751FF00BF0837BD4680BD00BF47
:101318009800002080B582B000AF78607B681B79A8
:10132800002B07D07B6800221A717B681946034896
:10133800FFF748FF00BF0837BD4680BD9800002072
:1013480080B483B000AF7860044A7B681A607B6819
:1013580018460C37BD4680BC704700BF24B2000851
:1013680080B582B000AF78607B681846FFF7E8FF69
:10137800034A7B681A607B6818460837BD4680BDFB
:1013880018B2000880B582B000AF78607B68184654
:10139800FFF7E6FF064A7B681A607B6800229A60BE
:1013A8007B6800221A717B6818460837BD4680BDE5
:1013B8000CB2000880B582B000AF786039607B68F5
:1013C8001846FFF7CDFF094A7B681A607B68002240
:1013D8009A607B6800221A713968786800F022F8F0
:1013E8007B6818460837BD4680BD00BF0CB20008B0
:1013F80080B483B000AF78607B689B685A1C7B68B8
:101408009A6000BF0C37BD4680BC704780B582B07B
:1014180000AF78607B681846FFF7E2FE00BF083728
:10142800BD4680BD80B582B000AF786039607B680A
:1014380000229A607B683A68DA607B681846FFF792
:101448004FFF00BF0837BD4680BD80B483B000AFF2
:1014580078607B689A687B68DB689A422CBF0123B6
:101468000023DBB2002B04D07B6800229A600123A2
:1014780000E0002318460C37BD4680BC704780B595
:1014880082B000AF78607B6800229A607B6818465B
:10149800FFF740FF00BF0837BD4680BD80B483B06A
:1014A80000AF78607B689A687B68DB689A422CBFDB
:1014B80001230023DBB218460C37BD4680BC7047B9
:1014C80080B582B000AF78607B681846FFF708FFE8
:1014D80000BF0837BD4680BD80B483B000AF7860D8
:1014E8007B681B7918460C37BD4680BC704780B4B2
:1014F80083B000AF786039607B683A681A6000BFD3
:101508000C37BD4680BC704780B582B000AF7860AC
:101518007B681A687B681B681B681B6810469847BD
:1015280000BF0837BD4680BD80B582B000AF786087
:101538000E4804F0D3FA7B68B3F8783040F6980286
:10154800934203D97B68012283F88C207B689A8BAD
:101558007B68A3F878207B68B3F878207B68A3F8C9
:10156800762000BF0837BD4680BD00BF08010020B7
:10157800B0B584B000AF7860624804F0B7FE0121CE
:10158800604804F0FDFE02467B6893F8843011B28F
:101598007A680C335B0013440A46DA800221594802
:1015A80004F0EEFE01467B6893F884301A4609B2CF
:1015B8007B68183223F812100321524804F0E0FE29
:1015C80002467B6893F8843011B27A6820335B0056
:1015D80013440A465A807B68012283F887207B6877
:1015E80093F8863083F00103DBB2002B00F08E8085
:1015F8007B680022A3F8F4207B680022A3F8F62079
:101608007B680022A3F8F8200023FB60FB68082B06
:1016180037DC7B68B3F9F4309AB27968FB680C332D
:101628005B000B44B3F906309BB213449BB21AB269
:101638007B68A3F8F4207B68B3F9F6309AB27B682C
:10164800F968183133F911309BB213449BB21AB2BE
:101658007B68A3F8F6207B68B3F9F8309AB279680A
:10166800FB6820335B000B44B3F902309BB2134490
:101678009BB21AB27B68A3F8F820FB680133FB60C1
:10168800C4E77B68B3F9F4301F4A82FB0312521097
:10169800DB17D31A1AB27B68A3F8F4207B68B3F976
:1016A800F630194A82FB03125210DB17D31A1AB20A
:1016B8007B68A3F8F6207B68B3F9F830124A82FBFE
:1016C80003125210DB17D31A1AB27B68A3F8F8205A
:1016D8007B68002283F8D6207B68002283F8D72015
:1016E8007B68002283F8D8207B68002283F8DC20FE
:1016F8007B68002283F8E2207B68002283F8E320DD
:1017080061E200BF38010020398EE3387B6893F826
:101718008630002B00F057827B6893F884307A6813
:101728000C335B001344B3F906301A467B68B3F9EF
:10173800F430D31A83EAE372A2EBE3727B6893F87E
:10174800843011B27A6844335B0013440A46DA8065
:101758007B6893F884301A467B68183233F9123064
:101768001A467B68B3F9F630D31A83EAE372A2EB20
:10177800E3727B6893F8843011B27A6858335B005F
:1017880013440A465A807B6893F884301A467B686B
:10179800183233F912301A467B68B3F9F630D31A87
:1017A80083EAE372A2EBE3727B6893F8843079688A
:1017B80020335B000B44B3F9023019467B68B3F958
:1017C800F830CB1A002BB8BF5B42D31A83EAE37216
:1017D800A2EBE3727B6893F8843011B27A686033C5
:1017E8005B0013440A469A807B6893F884307A68D1
:1017F80020335B001344B3F902301A467B68B3F90F
:10180800F830D31A83EAE371A1EBE3717B6893F8AC
:1018180084301A4609B27B68503223F812107B686C
:1018280093F884301A467B68183233F912301A4616
:101838007B68B3F9F630D21A13469B0013445B0059
:10184800C44A82FB03129210DB17D31A1AB27B68C0
:10185800A3F87A207B6893F884307A6820335B0099
:101868001344B3F902301A467B68B3F9F830D21A38
:1018780013469B0013445B00B64A82FB0312921086
:10188800DB17D31A1AB27B68A3F87E207B68B3F9FA
:101898007A309AB27B68B3F97E309BB213449BB21C
:1018A8005B429BB21AB27B68A3F87C207B6893F8F2
:1018B80084307A6860335B001344B3F904301A4605
:1018C8007B68B3F9F63019467B68B3F9F830CB1A60
:1018D800002BB8BF5B429A4215DC7B6893F88D30C9
:1018E800002B10D07B6893F8D7300133DAB27B68CD
:1018F80083F8D7207B6893F8D730062B03D97B6809
:10190800012283F888207B6893F884307A685833FA
:101918005B001344B3F90230052B15DC7B6893F8A0
:101928008D30002B10D07B6893F8D6300133DAB2B3
:101938007B6883F8D6207B6893F8D630062B03D9CA
:101948007B68012283F888207B6893F884301A46E4
:101958007B68503233F91230052B15DC7B6893F81D
:101968008D30002B10D07B6893F8D8300133DAB271
:101978007B6883F8D8207B6893F8D830062B03D986
:101988007B68012283F888207B6893F884307A6822
:1019980044335B001344B3F906306E4A82FB0312EA
:1019A8009210DB17D31A1BB21A467B68B3F8DA30E9
:1019B8009A4215DB7B6893F88D30002B10D07B683A
:1019C80093F8DC300133DAB27B6883F8DC207B687B
:1019D80093F8DC30022B03D97B68012283F8892035
:1019E8007B6893F884307A6858335B001344B3F902
:1019F8000230584A82FB03129210DB17D31A1BB22B
:101A08001A467B68B3F8E0309A4226DB7B6893F885
:101A18008D30002B21D07B6893F8E2300133DAB2A5
:101A28007B6883F8E2207B6893F8E230022B14D9B4
:101A38007B6893F8DD300133DAB27B6883F8DD2008
:101A48007B68002283F8E2207B6893F8DD30022B64
:101A580003D97B68012283F88A207B6893F8843055
:101A68001A467B68503233F912303A4A82FB031225
:101A78009210DB17D31A1BB21A467B68B3F8E03012
:101A88009A4226DB7B6893F88D30002B21D07B6847
:101A980093F8E3300133DAB27B6883F8E3207B689C
:101AA80093F8E330022B14D97B6893F8DD300133C7
:101AB800DAB27B6883F8DD207B68002283F8E320B4
:101AC8007B6893F8DD30022B03D97B68012283F809
:101AD8008B207B68B3F97A3019467B68B3F97C3080
:101AE800DA0F13445B101BB2CA1A7B68B3F97E3055
:101AF800D90F0B445B101BB2D31A0221184602F00F
:101B08006BFE04460D467B68B3F97C301A461346D3
:101B18001B011344104A82FB0312D210DB17D21A9E
:101B28007B68B3F97E3019460B461B010B440A4902
:101B380081FB0301C910DB175B1A13440221184605
:101B480002F04AFE02460B4620462946FEF76EFB87
:101B580004E000BF310CC3306766666602460B4678
:101B68001046194608F01CFB02460B46FEF75EFBC2
:101B780002460B46104619464FF000022B4BFEF763
:101B880035FE02460B4610461946FEF7B5FF0346DA
:101B98001AB27B68A3F882207B68B3F980309AB2C6
:101BA8007B68B3F9823019467B68B3F98030CB1A69
:101BB800002B00DA03339B109BB213449BB21AB27A
:101BC8007B68A3F880207B6893F88430072B08D8BB
:101BD8007B6893F884300133DAB27B6883F8842019
:101BE8001FE07B68002283F884207B68002283F84A
:101BF800D6207B68002283F8D7207B68002283F8F0
:101C0800D8207B68002283F8DC207B68002283F8D8
:101C1800E2207B68002283F8E3207B68002283F8B7
:101C2800DD2000BF1037BD46B0BD00BF0000084032
:101C380080B483B000AF7860044A7B681A607B6820
:101C480018460C37BD4680BC704700BF00B200087C
:101C580080B582B000AF786039607B681846FFF7BE
:101C6800E7FF094A7B681A607B683A685A603B68F4
:101C78009B687A6811461846FFF739FC7B68184656
:101C88000837BD4680BD00BFF4B1000880B582B0FA
:101C980000AF78607B685B681846FFF745FC00BFBB
:101CA8000837BD4680BD000080B582B000AF7860BF
:101CB80039607B681846FFF7BBFF094A7B681A60E2
:101CC8007B683A685A603B68DB687A681146184650
:101CD800FFF70DFC7B6818460837BD4680BD00BF7E
:101CE800E8B1000880B582B000AF78607B685B68B7
:101CF8001846FFF73DFC00BF0837BD4680BD000011
:101D080080B584B000AFF860B9607A60FB70FB689A
:101D18001846FFF725FB744AFB681A60FB68BA6827
:101D28009A60FB687A68DA60FB68FA781A74FB686C
:101D38003A8B5A82FB6800229A82FB681E33002283
:101D48001A605A609A60DA601A82FB68303300229F
:101D58001A605A609A60DA601A82FB68423300227D
:101D68001A605A609A60DA601A82FB68543320223B
:101D78000021184609F092F9FB680022A3F87420A4
:101D8800FB680022A3F87620FB680022A3F87820DD
:101D9800FB680022A3F87A20FB680022A3F87C20C5
:101DA800FB680022A3F87E20FB680022A3F88020AD
:101DB800FB680022A3F88220FB68002283F88420B5
:101DC800FB68002283F88520FB68002283F88620C0
:101DD800FB68002283F88720FB68002283F88820AC
:101DE800FB68002283F88920FB68002283F88A2098
:101DF800FB68002283F88B20FB68002283F88C2084
:101E0800FB68002283F88D20FB688E3300221A605D
:101E18005A609A60DA601A82FB68A03300221A605E
:101E28005A609A60DA601A82FB68B23300221A603C
:101E38005A609A60DA601A82FB68C43300221A601A
:101E48005A609A60DA601A82FB68002283F8D6200A
:101E5800FB68002283F8D720FB68002283F8D8208B
:101E6800FB681422A3F8DA20FB68002283F8DC2040
:101E7800FB68002283F8DD20FB68002283F8DE205F
:101E8800FB681422A3F8E020FB68002283F8E22014
:101E9800FB68002283F8E320FB68E433F9681846FE
:101EA800FFF7D6FEFB68EC33F9681846FFF7FCFE2F
:101EB800FB680022A3F8F420FB680022A3F8F620B0
:101EC800FB680022A3F8F820FB6800221A713B8BFC
:101ED800002B03D0FB681846FFF702FAFB68184688
:101EE8001037BD4680BD00BFDCB1000880B483B0A8
:101EF80000AF78607B68002283F8862000BF0C372B
:101F0800BD4680BC704780B483B000AF78607B6802
:101F1800012283F8862000BF0C37BD4680BC70477D
:101F280080B483B000AF78600B46FB70FB787A68AA
:101F380008335B001344DB8818460C37BD4680BC69
:101F4800704780B483B000AF78600B46FB70FB78B5
:101F5800012B0AD17B6893F884307A680C335B00D4
:101F68001344B3F906309BB21BE0FB78022B09D16E
:101F78007B6893F884301A467B68183233F912303C
:101F88009BB20EE0FB78032B0AD17B6893F8843070
:101F98007A6820335B001344B3F902309BB200E047
:101FA800002318460C37BD4680BC704780B483B008
:101FB80000AF78607B68B3F980309BB218460C3765
:101FC800BD4680BC704780B483B000AF78607B6842
:101FD800B3F8763018460C37BD4680BC704780B4DD
:101FE80083B000AF78607B68002283F8872000BF49
:101FF8000C37BD4680BC704780B483B000AF7860B2
:102008007B68002283F8882000BF0C37BD4680BC5F
:10201800704780B483B000AF78607B6893F88930EC
:1020280018460C37BD4680BC704780B483B000AFFB
:1020380078607B68002283F8892000BF0C37BD4692
:1020480080BC704780B483B000AF78607B6893F839
:102058008A3018460C37BD4680BC704780B483B0C0
:1020680000AF78607B68002283F88A2000BF0C37B5
:10207800BD4680BC704780B483B000AF78607B6891
:1020880093F88B3018460C37BD4680BC704780B437
:1020980083B000AF78607B68002283F88B2000BF94
:1020A8000C37BD4680BC704780B483B000AF786001
:1020B8007B6893F88C3018460C37BD4680BC704757
:1020C80080B483B000AF78607B68002283F88C20EE
:1020D80000BF0C37BD4680BC704780B483B000AFEA
:1020E80078600B467B807B88322B8CBF01230023D2
:1020F800DAB27B6883F88D2000BF0C37BD4680BC00
:102108007047000080B582B000AF78607B689B8A1A
:102118005A1C91B27A6891827A68528A93422CBF8B
:1021280001230023DBB2002B0BD07B6800229A82AC
:102138007B6803F116017B681B7C1A460D4803F087
:10214800EFFB7B689B8A002B0CBF01230023DBB2CB
:10215800002B0AD07B6893F8863083F00103DBB24A
:10216800002B02D0044804F033F800BF0837BD46FE
:1021780080BD00BF080100203801002080B483B072
:1021880000AF78600B467B807B687A88A3F8DA20FA
:1021980000BF0C37BD4680BC704780B483B000AF29
:1021A80078600B467B807B687A88A3F8E02000BFC4
:1021B8000C37BD4680BC704780B582B000AF7860F0
:1021C8007B681B68044A934202D10448FFF79CF9D4
:1021D80000BF0837BD4680BD0024014050030020E1
:1021E80080B582B000AF78607B681B68044A934270
:1021F80002D10448FFF788F900BF0837BD4680BD03
:10220800002801405403002080B485B000AFF86076
:10221800B9601346FB80FB68BA681A60FB68FA88E5
:102228009A80FB6818461437BD4680BC704780B555
:1022380082B000AF78607B6818687B689B88012251
:10224800194605F0B2F900BF0837BD4680BD80B514
:1022580082B000AF78607B6818687B689B88002232
:10226800194605F0A2F900BF0837BD4680BD80B504
:1022780082B000AF78607B681A687B689B881946D3
:10228800104605F07BF90346002B14BF01230023F9
:10229800DBB218460837BD4680BD80B582B000AFB6
:1022A80078607B681A687B689B881946104605F039
:1022B80094F900BF0837BD4680BD80B582B000AF35
:1022C80078600B46FB70FB78002B03D07868FFF72B
:1022D800AEFF02E07868FFF7BAFFFB7818460837C8
:1022E800BD4680BD80B582B000AF78600B46FB70FC
:1022F800FB78002B02D07868FFF7CFFF00BF0837C4
:10230800BD4680BD80B582B000AF78607868FFF7C1
:10231800AEFF034618460837BD4680BD80B483B07B
:1023280000AF78607B68054A5A607B68044A9A6007
:102338007B6818460C37BD4680BC704700401C4679
:102348003313954390B583B000AF78600B467B801C
:102358007B881846FEF7B2FC034619462D48FEF75F
:10236800F7FB03461A467B681A607B881846FEF717
:10237800A5FC02467B681B6819461046FEF7A6FDB9
:1023880003461A467B681A607B681B682249184610
:10239800FEF7E8FC03461A467B681A607B681B68F0
:1023A800184607F011FD04467B685B68184607F07D
:1023B8000BFD034619462046FEF7CAFB034617499C
:1023C8001846FEF783FD03461C467B689B68194642
:1023D8004FF07E50FEF77AFD034619462046FEF779
:1023E800B9FB034619464FF07E50FEF76FFD0346D2
:1023F8001A467B68DA607B68DB681846FEF78EFE53
:1024080003461BB29BB2A3F211139BB218460C37BA
:10241800BD4690BD00F07F4500401C460000794550
:1024280080B582B000AF78607B681B68044A93422D
:1024380002D10448FFF768F800BF0837BD4680BDE1
:10244800004800405803002080B582B000AF786093
:102458000B467B807B681B68044A934202D1044880
:10246800FFF752F800BF0837BD4680BD004800405E
:102478005C03002080B584B000AFF860B9607A6072
:10248800FB68BA681A60FB687A685A60FB680833A8
:102498001846FEF777FFFB6800221A76FB680022D1
:1024A8005A76FB6800229A76FB6818461037BD46B4
:1024B80080BD80B582B000AF78607B6801225A7613
:1024C8007B6800229A767B6808331846FEF7D7FFA8
:1024D80000BF0837BD4680BD80B582B000AF7860C8
:1024E8000A4B00225A630021094805F047FF7B6820
:1024F80000229A767B6800225A767B680833184651
:10250800FEF7BDFF00BF0837BD4680BD000800408C
:102518003C02002080B483B000AF78607B681B7EEB
:1025280018460C37BD4680BC7047000080B582B0A5
:1025380000AF78607B685B7E002B42D07B689B7E17
:1025480083F00103DBB2002B3BD07B685B68B3F8F8
:102558007030B3F5967F34D30021364805F054FE29
:10256800354B40F207725A637868FFF7D3FF03468A
:10257800002B0CD07B6808331846FEF7ADFF0346E6
:1025880083F00103DBB2002B01D0012300E000231C
:10259800002B06D07B6808334FF47A711846FEF793
:1025A80041FF7B6808331846FEF778FF0346002B87
:1025B80007D07B6808331846FEF761FF7B68012265
:1025C8009A767B689B7E002B23D07B685B68B3F888
:1025D8006230F02B04D9184B4FF461725A6318E03B
:1025E8007B685B68B3F86230C72B04D8124B40F2A3
:1025F80007725A630DE07B685B68B3F862301A466D
:102608006FF0110303FB02F303F5A35304330A4AE3
:1026180053630421094804F0B1FF0346002B14BF9B
:1026280001230023DAB27B681A7600BF0837BD465B
:1026380080BD00BF3C02002000080040001401409B
:1026480080B582B000AF786039607B681846FFF7C4
:10265800EFFA094A7B681A607B683A685A603B68F7
:102668001B697A6811461846FEF741FF7B681846D1
:102678000837BD4680BD00BFB8B1000880B582B03C
:1026880000AF78607B685B68184600F005F800BF0B
:102698000837BD4680BD000080B582B000AF7860C5
:1026A8007B68D3F8F43040F2DD32934204D97B687A
:1026B80040F2DE32C3F8F4207B68D3F8F4207B685C
:1026C80093F8F230591CC8B2796881F8F2001946BB
:1026D8007B68543133F8113003FB02F3354A36492D
:1026E800A1FB03139B0953637B68D3F8F4207B6831
:1026F80093F8F130591CC8B2796881F8F10019468D
:102708007B68543133F8113003FB02F3294A2A4914
:10271800A1FB03139B0993637B68D3F8F4207B68C0
:1027280093F8F330591CC8B2796881F8F300194658
:102738007B68543133F8113003FB02F31D4A1E49FC
:10274800A1FB03139B09D3637B6893F8F130232B18
:1027580003D97B68002283F8F1207B6893F8F23074
:10276800232B03D97B68002283F8F2207B6893F837
:10277800F330232B03D97B68002283F8F3207B688E
:1027880093F81C3183F00103DBB2002B14BF012343
:102798000023DAB27B6883F81C217B6893F81C312C
:1027A800002B02D0054803F013FD00BF0837BD46D3
:1027B80080BD00BF002C0140D34D621038010020BD
:1027C80080B584B000AFF860B9607A603B60FB68A0
:1027D80000221A70FB68BA685A60FB687A689A60C7
:1027E800FB683A68DA60FB68BA691A61FB68FA69DB
:1027F8005A61FB683A6A9A61FB687A6ADA61FB682F
:10280800BA6A1A62FB68FA6A5A62FB683A6B9A6299
:10281800FB687A6BDA62FB68BA6B1A63FB68FA6B5F
:102828005A63FB6838331846FEF7ACFDFB6848333B
:102838001846FEF7A7FDFB6858331846FEF7A2FDB9
:10284800FB6868331846FEF79DFDFB687833184629
:10285800FEF798FDFB6888331846FEF793FDFB6882
:1028680098331846FEF78EFDFB685B4AA83311467D
:102878004822184608F004FCFB68002283F8F02080
:10288800FB68002283F8F120FB680C2283F8F22011
:10289800FB68182283F8F320FB680522C3F8F420AC
:1028A800FB6840F27E42A3F8F820FB686422A3F894
:1028B800FA20FB681922A3F8FC20FB684FF47A621F
:1028C800A3F8FE20FB680022A3F80021FB6802227F
:1028D800A3F80221FB680022A3F80421FB68002268
:1028E80083F80621FB68002283F80721FB68002291
:1028F800A3F80821FB68192283F80A21FB68002243
:1029080083F80B21FB68002283F80C21FB68002266
:1029180083F80D21FB68002283F80E21FB68002252
:1029280083F80F21FB684FF4B472A3F81021FB68F9
:102938004FF4BE72A3F81221FB684FF4FA62A3F8B1
:102948001421FB6840F25742A3F81621FB680122C4
:1029580083F81821FB68002283F81921FB680022FC
:1029680083F81A21FB68002283F81B21FB680022E8
:1029780083F81C21FB68194AC3F82021FB6803F57A
:102988009273F9681846FFF75BFEFB6800225A65E8
:10299800FB6800225A66FB6800225A67FB6893F8B6
:1029A8000731002B0AD10121B86AFFF786FCFB68C2
:1029B800683343F698211846FEF734FDF86BFFF7A5
:1029C800A1FC03461A46FB6883F80721FB681846F2
:1029D8001037BD4680BD00BF58B10008A086010071
:1029E80090B583B000AF78607B689B68184601F0AB
:1029F8000DFF7B68DB681846FFF798FD7B68D3F806
:102A0800F4207B689B6812B2A3F866207B681A6B77
:102A18007B689C681046FFF775FC03461A4694F8D5
:102A28007A3062F3041384F87A307B689B687A689A
:102A3800B2F80421A3F878207B689B6A1846FFF750
:102A480061FC034619467B689A6881F00103D9B294
:102A580092F87A3061F3861382F87A307B689A6844
:102A68007B6893F8061192F87A3061F3451382F87F
:102A78007A307B689B68B3F862307A689268B32BC7
:102A880094BF01230023D9B292F87B3061F341034C
:102A980082F87B307B689B68B3F862307A6892680A
:102AA800B3F5A07F8CBF01230023D9B292F87B3005
:102AB80061F3820382F87B307B689B687A68B2F89E
:102AC8001021A3F874207B689B687A68B2F8082103
:102AD800A3F876207B689B687A68B2F8F820A3F898
:102AE8006E208D4BDA6A7B689B6892B2A3F87220DD
:102AF8007B689B68B3F87030B3F5967F04D87B6821
:102B0800012283F806210FE07B689B68B3F87030D8
:102B1800B3F59B7F08D97B68002283F806217B6880
:102B28005B681846FFF7CCFA7B689B6893F87A30A5
:102B3800C3F3C013DBB21A467B689B68B3F96830ED
:102B48004A2BCCBF01230023DBB21A437B689B6866
:102B5800002A14BF01220022D1B293F87A2061F32F
:102B6800C71283F87A2093F87A30C3F3C013DBB224
:102B7800002B10D07B689B68B3F968307A6892683C
:102B8800452BCCBF01230023D9B292F87A3061F3E8
:102B9800C71382F87A307B6893F81A311A467B6833
:102BA8009B68B3F96830222BCCBF01230023DBB22A
:102BB8001343002B14BF01230023DAB27B6883F888
:102BC8001A217B6893F81A31002B0BD07B689B681D
:102BD800B3F968301D2BCCBF01230023DAB27B6820
:102BE80083F81A217B68DA697B6893F81A311946E9
:102BF8001046FFF762FB7B68DB681846FFF78AFC24
:102C08000346002B06D07B6893F81831002B01D0BF
:102C1800012300E00023002B02D0786800F004FEB6
:102C28007B681B78002B04D0012B00F0E18100F0B9
:102C3800E8BC7B6893F80731012B75D17B685B682A
:102C480018211846FFF79AFA7B685B681A2118461C
:102C5800FFF7A3FA7B689B68B3F87030B3F5967FEB
:102C68004FD97B689B68B3F87030B3F5C87F48D2FA
:102C78007B689B68B3F87030284AA2FB03231B09C2
:102C88009BB21A4640F2DE3303FB02F3244A82FB6E
:102C980003125211DB17D21A1346DB009B1A1B01D1
:102CA800204A82FB03125211DB17D31A9AB27B68AF
:102CB800A3F808217B68D3F820217B68B3F8083192
:102CC80019460B46DB000B44B2FBF3F39BB21A46E2
:102CD80092001A44520013445B009AB27B68A3F82E
:102CE80010217B68B3F810217B68B3F816319A423B
:102CF80000F29A807B68B3F816217B68A3F810214C
:102D080092E07B68B422A3F808217B68B3F8162107
:102D18007B68A3F8102187E000040040CDCCCCCC20
:102D28001F6B193A1F85EB517B6893F80731002B0D
:102D38007AD17B685B6810211846FFF71FFA7B6819
:102D48005B6814211846FFF728FA7B686833184631
:102D5800FEF7A4FB0346002B0AD07B6868331846AD
:102D6800FEF78DFB7B681B6A00211846FFF7A5FA62
:102D78007B689B68B3F87030B3F5967F4AD97B6857
:102D88009B68B3F87030B3F5077F43D27B689B68C4
:102D9800B3F87030924AA2FB03231B099BB21A4670
:102DA8004FF46B7303FB02F38E4A82FB031252113A
:102DB800DB17D31A732202FB03F38B4A82FB03123D
:102DC8005211DB17D31A9AB27B68A3F808217B68E3
:102DD800D3F820317A68B2F80821B3FBF2F3322233
:102DE80002FB03F35B08814AA2FB03235B099AB247
:102DF8007B68A3F810217B68B3F810217B68B3F8CF
:102E080012319A4210D27B68B3F812217B68A3F87A
:102E1800102109E07B68D422A3F808217B68B3F865
:102E280012217B68A3F810217B681B6B1846FFF7FB
:102E380069FA0346002B43D07B6848331846FEF7EF
:102E48004BFB034683F00103DBB2002B38D07B68D1
:102E580088331846FEF740FB034683F00103DBB2D4
:102E6800002B2DD07B689B6893F87A30C3F3C0138E
:102E7800DBB283F00103DBB2002B21D07B689B68B7
:102E880093F87B30C3F34003DBB283F00103DBB27A
:102E9800002B15D07B689B6893F87B30C3F38003C5
:102EA800DBB283F00103DBB2002B09D07B6893F817
:102EB800063183F00103DBB2002B01D0012200E0D0
:102EC80000227B6883F818217B6848331846FEF790
:102ED800E5FA0346002B04D07B6848331846FEF712
:102EE800CEFA7B6888331846FEF7D8FA0346002BDB
:102EF80004D07B6888331846FEF7C1FA7B6898339C
:102F08001846FEF7CBFA0346002B09D07B688833B6
:102F18001846FEF7E1FA0346002B01D0012300E032
:102F28000023002B20D07B6898331846FEF7A7FAB9
:102F38007B6898334FF496711846FEF773FA7B68EE
:102F48005B6901211846FFF7CDF97B689C697B68AE
:102F58005B691846FFF7D6F9034683F00103DBB235
:102F680019462046FFF7A9F97B6893F81831002B1A
:102F780017D07B6848331846FEF781FA7B68DB6810
:102F88001846FFF796FA7B68DB681846FFF7C2FA1F
:102F98000346002B05D0786800F03AFB7B680122D5
:102FA8001A707B681B6B1846FFF7ACF9034683F071
:102FB8000103DBB2002B00F021837B6848331846FD
:102FC800FEF75DFA7B6800225A657B685B681846E5
:102FD800FFF712F87B68002283F819210EE300BF7F
:102FE800CDCCCCCC1F6B193A1F85EB51EBA00EEA68
:102FF8007B685A687B68D3F8F4309BB21946104650
:10300800FFF76BF87B6893F80731012B40F00981D3
:103018007B689B68B3F87030B3F5967F4DD97B68B1
:103028009B68B3F87030B3F5C87F46D27B689B685D
:10303800B3F87030A74AA2FB03231B099BB21A46B8
:1030480040F2DE3303FB02F3A34A82FB0312521160
:10305800DB17D31A732202FB03F3A04A82FB031285
:103068005211DB17D31A9AB27B68A3F808217B6840
:10307800D3F820217B68B3F8083119460B46DB00EA
:103088000B44B2FBF3F39BB21A4692001A44520067
:1030980013445B009AB27B68A3F810217B68B3F8ED
:1030A80010217B68B3F816319A4210D87B68B3F8C0
:1030B80016217B68A3F8102109E07B68B422A3F8E5
:1030C80008217B68B3F816217B68A3F810217B6878
:1030D80093F80A3119467B68B3F8F83018467B68CC
:1030E800D3F820217E4BDB6AB2FBF3F303FB00F33A
:1030F8007A689268B2F870200132B3FBF2F3CA180A
:103108007B68C3F8F420764BDB6A7A68B2F8102142
:103118000A32934294BF01230023DBB2002B03D071
:103128007B68002283F80B217B68B3F8F83041F202
:10313800D962934204D97B6841F2DA62A3F8F82095
:10314800674BDB6A7A68B2F81021934294BF012377
:103158000023DBB2002B1BD07B685B681846FEF7A8
:1031680025FF0346DC2B8CBF01230023DBB2002B99
:103178000ED07B68B3F8F83041F29412934207D925
:103188007B68B3F8F830043B9AB27B68A3F8F82060
:103198007B685B681846FEF709FF03468B2B94BFD4
:1031A80001230023DBB2002B0ED07B68B3F8F83084
:1031B80041F2D962934207D87B68B3F8F8300133FB
:1031C8009AB27B68A3F8F820454BDB6A7A68B2F8B4
:1031D8001021053293428CBF01230023DBB2002B60
:1031E80000F02F817B685B681846FEF7DFFE034618
:1031F800642B8CBF01230023DBB2002B00F021815C
:103208007B68B3F8F83041F28732934240F2198173
:103218007B68B3F8F830013B9AB27B68A3F8F820D2
:103228000FE17B6893F80731002B40F00A817B6837
:103238009B68B3F87030B3F5967F55D97B689B6867
:10324800B3F87030B3F5077F4ED27B689B68B3F84C
:103258007030204AA2FB03231B099BB21A464FF485
:10326800757303FB02F31C4A82FB03125211DB172E
:10327800D31A732202FB03F3184A82FB031252117A
:10328800DB17D31A9AB27B68A3F808217B68D3F8B6
:1032980020317A68B2F80821B3FBF2F3322202FB3C
:1032A80003F35B080F4AA2FB03235B099AB27B680E
:1032B800A3F810217B68B3F810217B68B3F81231AA
:1032C8009A421BD27B68B3F812217B68A3F81021BD
:1032D80014E000BFCDCCCCCC1F6B193A1F85EB5145
:1032E80000040040EBA00EEA7B68B3F812217B686B
:1032F800A3F810217B68D422A3F808217B689B6877
:10330800B3F87030A94AA2FB03231B099BB21A46E3
:103318007B68D3F8F43003FB02F3A54AA2FB03232E
:103328005B09732202FB03F3A24AA2FB03235B0996
:103338009AB27B68A3F804217B6893F80A3119468E
:103348007B68B3F8F83018467B68D3F820219A4B8D
:10335800DB6AB2FBF3F303FB00F37A689268B2F816
:1033680070200132B3FBF2F3CA187B68C3F8F4206B
:10337800914BDB6A7A68B2F810210532934294BF08
:1033880001230023DBB2002B09D07B681B6A0021D4
:103398001846FEF792FF7B68002283F80B21864BC4
:1033A800DB6A7A68B2F81021053293428CBF012398
:1033B8000023DBB2002B38D07B685B681846FEF729
:1033C800F5FD03461E2B8CBF01230023DBB2002B27
:1033D8002BD07B68B3F8F830B3F5FA6F07D97B6860
:1033E800B3F8F830013B9AB27B68A3F8F8207B6801
:1033F800B3F8F830B3F5E16F17D27B68B3F8F8305B
:1034080001339AB27B68A3F8F8207B68B3F8F830E8
:1034180001339AB27B68A3F8F8207B68B3F8F830D8
:1034280001339AB27B68A3F8F8207B68B3F8F830C8
:1034380040F69702934204D97B6840F69802A3F8B5
:10344800F8207B6838331846FEF728F80346002B27
:1034580008D0594BDB6A7A68B2F81021934201D040
:10346800012300E00023002B00F0CA807B6838337A
:103478001846FEF704F87B6803F138027B68B3F856
:10348800023119461046FDF7CDFF7B6893F80731E6
:10349800012B33D1484BDB6A7A68B2F8102193428A
:1034A80014BF01230023DBB2002B00F0A980424B9C
:1034B800DB6AB3F57A6F8CBF01230023DBB2002BE4
:1034C80005D03D4BDB6A3C4A193BD36298E03A4B46
:1034D800DB6A7A68B2F8102193428CBF012300237B
:1034E800DBB2002B05D0344BDB6A334A023BD36294
:1034F80086E0314BDA6A0132DA6281E07B6893F860
:103508000731002B7CD12C4BDB6A7A68B2F810218A
:10351800934214BF01230023DBB2002B70D0264B4B
:10352800DB6A7A68B2F8102193428CBF012300232A
:10353800DBB2002B26D0204BDB6AB3F51C7F8CBF97
:1035480001230023DBB2002B16D01B4BDB6A40F2B1
:10355800DC5293428CBF01230023DBB2002B05D041
:10356800154BDB6A144A373BD3620FE0124BDB6A18
:10357800114A033BD36209E00F4BDB6A0E4A013B59
:10358800D36203E00C4BDA6A0132DA620A4BDB6A77
:10359800B3F51C7F8CBF01230023DBB2002B0DD0B9
:1035A8007B680222A3F802212AE000BFCDCCCCCC54
:1035B8001F6B193A1F85EB5100040040134BDB6A5F
:1035C80040F22D2293428CBF01230023DBB2002B53
:1035D80004D07B680522A3F8022111E00B4BDB6ABB
:1035E80040F22D22934294BF01230023DBB2002B2B
:1035F80006D07B680722A3F8022101E000BF00E0A3
:1036080000BF00BF0C37BD4690BD00BF000400409E
:1036180080B582B000AF78607B6893F80731012BE2
:1036280015D17B680522A3F8FA207B6840F6C412FE
:10363800A3F8F8207B680322A3F802217B680A22FA
:1036480083F80A217B680522C3F8F42019E07B6817
:1036580093F80731002B14D17B680322A3F8FA20D2
:103668007B684FF41672A3F8F8207B680222A3F84F
:1036780002217B68322283F80A217B680A22C3F878
:10368800F4207B68D3F820317A68B2F8FA20B3FBCB
:10369800F2F33A4A013BD3620021394804F0B4FD01
:1036A8000021374805F066FB0421354804F0ACFDDD
:1036B8000421334805F05EFB0821314804F0A4FDDD
:1036C80008212F4805F056FB2E4804F071FC7B6852
:1036D80003F138027B68B3F8023119461046FDF74A
:1036E800A1FE7B685B681846FEF70DFC7B689A684C
:1036F80092F87A306FF3000382F87A307B689A6820
:1037080092F87A306FF3410382F87A307B689A68CE
:1037180092F87A306FF3820382F87A307B689A687D
:1037280092F87B306FF3000382F87B307B689A68ED
:1037380092F87A306FF3C30382F87A307B685B695A
:1037480000211846FEF7B9FD7B689B6900211846E1
:10375800FEF7B3FD7B6898331846FDF790FE7B684B
:1037680093F80731002B05D17B681B6A01211846A5
:10377800FEF7A3FD00BF0837BD4680BD000400402A
:10378800AC010020F401002080B582B000AF786061
:10379800224B00225A63214B00229A631F4B0022BE
:1037A800DA6300211E4804F0E9FD00211C4805F0F9
:1037B8008DFB04211A4804F0E1FD0421184805F0A6
:1037C80085FB0821164804F0D9FD0821144805F0A6
:1037D8007DFB144804F04CFC7B6838331846FDF731
:1037E8004EFE7B68DB681846FEF776FE7B68002293
:1037F80083F8F1207B680C2283F8F2207B6818227A
:1038080083F8F3207B6800221A707B685B6818468F
:10381800FEF76CFB00BF0837BD4680BD002C014099
:10382800AC010020F401002080B582B000AF7860C0
:103838007B681B6B1846FEF765FD034683F00103A2
:10384800DBB2002B36D17B6858331846FDF726FECD
:103858000346002B2ED17B68DB681846FEF75AFE1C
:10386800034683F00103DBB2002B23D17B689B68FE
:1038780093F87A30C3F3C013DBB2002B1AD17B68FC
:103888009B6893F87A30C3F34013DBB2002B11D155
:103898007B689B6893F87B30C3F34003DBB2002B53
:1038A80008D17B689B6893F87B30C3F38003DBB255
:1038B800002B01D0012300E00023002B00F0BD8085
:1038C8007B681B6B1846FEF71DFD034683F001035A
:1038D800DBB2002B0CD07B6858331846FDF7FCFD93
:1038E800034683F00103DBB2002B01D0012300E083
:1038F8000023002B14D07868FFF746FF7B6893F805
:103908000731002B0CD17B681B6A01211846FEF792
:10391800D4FC7B68683343F698211846FDF782FD8E
:103928007B6858331846FDF7B9FD0346002B0CD0C9
:103938007B681B6B1846FEF7E5FC034683F0010322
:10394800DBB2002B01D0012300E00023002B19D0AB
:103958007868FFF719FF7B6858331846FDF78FFD25
:103968007B6893F80731002B0CD17B681B6A012117
:103978001846FEF7A2FC7B68683343F69821184680
:10398800FDF750FD7B68DB681846FEF7C3FD03466C
:1039980083F00103DBB2002B23D17B689B6893F88B
:1039A8007A30C3F3C013DBB2002B1AD17B689B6853
:1039B80093F87A30C3F34013DBB2002B11D17B6844
:1039C8009B6893F87B30C3F34003DBB2002B08D12C
:1039D8007B689B6893F87B30C3F38003DBB2002BD2
:1039E80001D0012300E00023002B26D07868FFF7E0
:1039F800CBFE7B6858331846FDF741FD7B6848339A
:103A080041F288311846FDF70DFD7B685B6901219D
:103A18001846FEF752FC7B6893F80731002B0CD14F
:103A28007B681B6A01211846FEF747FC7B686833F0
:103A380043F698211846FDF7F5FC7B68783318465D
:103A4800FDF72CFD0346002B05D07B681B78012B66
:103A580001D1012300E00023002B1BD07868FFF779
:103A680093FE7B6893F80731002B0CD17B681B6AA7
:103A780001211846FEF721FC7B68683343F698213C
:103A88001846FDF7CFFC7B6898334FF496711846BB
:103A9800FDF7C8FC7B685B681846FEF705FB034624
:103AA800002B28D07B685B681846FEF709FB78680E
:103AB800FFF76AFE7B689A6892F87A3043F0080349
:103AC80082F87A307B68483341F288311846FDF72E
:103AD800A9FC7B6893F80731002B0CD17B681B6A23
:103AE80001211846FEF7E9FB7B68683343F6982105
:103AF8001846FDF797FC7B685B681846FEF789FA5D
:103B08000346002B0DD07B689B6893F87A30C3F38B
:103B18000003DBB283F00103DBB2002B01D00123E9
:103B280000E00023002B2ED07B685B681846FEF768
:103B38007CFA7B685B6901211846FEF7BEFB786852
:103B4800FFF722FE7B689A6892F87A3043F0010307
:103B580082F87A307B68483341F288311846FDF79D
:103B680061FC7B6893F80731002B0CD17B681B6ADA
:103B780001211846FEF7A1FB7B68683343F69821BC
:103B88001846FDF74FFC7B685B681846FEF75AFA43
:103B98000346002B0DD07B689B6893F87A30C3F3FB
:103BA8004003DBB283F00103DBB2002B01D0012319
:103BB80000E00023002B2ED07B685B681846FEF7D8
:103BC8004DFA7B685B6901211846FEF776FB786839
:103BD800FFF7DAFD7B689A6892F87A3043F00203BF
:103BE80082F87A307B68483341F288311846FDF70D
:103BF80019FC7B6893F80731002B0CD17B681B6A92
:103C080001211846FEF759FB7B68683343F6982173
:103C18001846FDF707FC7B685B681846FEF72BFA29
:103C28000346002B0DD07B689B6893F87A30C3F36A
:103C38008003DBB283F00103DBB2002B01D0012348
:103C480000E00023002B2ED07B685B681846FEF747
:103C58001EFA7B685B6901211846FEF72EFB78681F
:103C6800FFF792FD7B689A6892F87A3043F0040374
:103C780082F87A307B68483341F288311846FDF77C
:103C8800D1FB7B6893F80731002B0CD17B681B6A4A
:103C980001211846FEF711FB7B68683343F698212B
:103CA8001846FDF7BFFB7B685B681846FEF797F977
:103CB80000BF0837BD4680BD80B582B000AF7860D0
:103CC8007B681B68044A934202D10448FDF71CFC38
:103CD80000BF0837BD4680BD0004004060030020D7
:103CE80090B5ADF55D7D0AAF01F0E0FC00F0C4F8D9
:103CF80000F038FC00F008FC00F050FA00F0D6FBA9
:103D080000F06CFB00F026F900F0A6F900F000FBCB
:103D180007F55073012250491846FEF775FA07F562
:103D28004E7320224D491846FEF76EFA07F54C737C
:103D38004FF4007248491846FEF766FA07F54A73C9
:103D4800102246491846FEF75FFA07F548734FF404
:103D5800004243491846FEF757FA07F546734FF4F1
:103D680080523D491846FEF74FFA07F54473802202
:103D78003A491846FEF748FA07F542734FF480723D
:103D880036491846FEF740FA07F540734FF40072BB
:103D980032491846FEF738FA07F53E7304223049CF
:103DA8001846FEF731FA07F5FE7005230093042341
:103DB8002C4A2D49FDF7A4FF07F54C7207F5EE7361
:103DC8001146184600F006FF07F5E6731846FEF799
:103DD800A5FA07F5EE7307F5E67207F5FE7107F524
:103DE800A670224C0194224C009400F005FF07F5C0
:103DF800A67207F5FE7107F598731846FEF73AFBA9
:103E080007F5987407F5A67207F5FE71381D07F5D2
:103E18003E73099307F54073089307F542730793B8
:103E280007F54473069307F54673059307F548733A
:103E3800049307F54A73039307F54E73029307F546
:103E4800507301930B4B00932346FEF7B9FC3B1DBF
:103E58001846FEF7C5FDFAE700100140000C0140C6
:103E68000008014054030020500300205C03002098
:103E7800580300206003002080B596B000AF07F11A
:103E8800300328220021184607F008F907F11C031F
:103E980000221A605A609A60DA601A613B1D00229B
:103EA8001A605A609A60DA601A615A6101233B63AA
:103EB8004FF480337B634FF40033BB6301233B64CF
:103EC8000223FB644FF480333B654FF4E0137B65BA
:103ED80007F13003184603F099FB0346002B14BF83
:103EE80001230023DBB2002B01D000F0E5FB0F23F8
:103EF800FB6102233B6200237B624FF48063BB6259
:103F08000023FB6207F11C030221184603F0FEFDA3
:103F18000346002B14BF01230023DBB2002B01D082
:103F280000F0CAFB02237B604FF40043FB603B1D9B
:103F3800184603F087FF0346002B14BF0123002314
:103F4800DBB2002B01D000F0B7FB00BF5837BD46ED
:103F580080BD000080B584B000AF3B1D00221A6010
:103F68005A609A603A4B3B4A1A60394B4FF4807258
:103F78009A60374B00221A73354B00221A75344B5E
:103F88004FF46022DA61324B00225A60304B04222F
:103F98001A612F4801F0DAFB0346002B14BF0123F6
:103FA8000023DBB2002B01D000F086FB00237B60EE
:103FB8000123BB600223FB603B1D1946244801F026
:103FC800B7FE0346002B14BF01230023DBB2002BEE
:103FD80001D000F071FB01237B600223BB603B1D15
:103FE80019461B4801F0A4FE0346002B14BF012309
:103FF8000023DBB2002B01D000F05EFB03237B60C3
:104008000323BB603B1D1946114801F091FE03468E
:10401800002B14BF01230023DBB2002B01D000F0DA
:104028004BFB07237B600423BB603B1D19460848F4
:1040380001F07EFE0346002B14BF01230023DBB2F0
:10404800002B01D000F038FB00BF1037BD4680BD03
:10405800080100200024014080B58EB000AF07F1B0
:10406800200300221A605A609A60DA601A615A6165
:104078003B1D00221A605A609A60DA601A615A6120
:104088009A61444B444A1A60424B4FF480729A60DA
:10409800404B00221A733F4B00221A753D4B4FF4D8
:1040A8006022DA613B4B00225A603A4B01221A61C6
:1040B800384801F04BFB0346002B14BF01230023B3
:1040C800DBB2002B01D000F0F7FA4FF480033B621B
:1040D80040F68C23FB6200233B63012387F82830DA
:1040E80007F1200319462B4801F01AFF0346002B5D
:1040F80014BF01230023DBB2002B01D000F0DCFA4F
:1041080004237B600123BB6003237B610323FB60E3
:104118004FF4E043FB6100237B7600233B760023CA
:104128003B613B1D19461B4802F058F90346002B1A
:1041380014BF01230023DBB2002B01D000F0BCFA2E
:1041480005237B600223BB603B1D1946114802F022
:1041580045F90346002B14BF01230023DBB2002BD3
:1041680001D000F0A9FA06237B600323BB603B1D46
:104178001946084802F032F90346002B14BF012300
:104188000023DBB2002B01D000F096FA00BF3837CD
:10419800BD4680BD380100200028014080B592B09E
:1041A80000AF07F1400300221A605A6007F12403A8
:1041B80000221A605A609A60DA601A615A619A613C
:1041C8003B1D20220021184606F068FF4E4B4F4A3F
:1041D8001A604D4B00225A604B4B20229A604A4B82
:1041E80041F61F42DA60484B00221A61464B002212
:1041F8005A61454B00229A61434803F0B6FF0346D3
:10420800002B14BF01230023DBB2002B01D000F0E8
:1042180053FA00233B6400237B6407F140031946EB
:10422800394804F0B1FE0346002B14BF01230023D4
:10423800DBB2002B01D000F03FFA60237B62002341
:10424800BB620023FB6200233B6300237B630023E4
:10425800BB630023FB6307F12403002219462A48A5
:1042680004F05CFA0346002B14BF01230023DBB2E1
:10427800002B01D000F020FA07F12403042219468C
:10428800214804F04BFA0346002B14BF01230023F6
:10429800DBB2002B01D000F00FFA07F1240308224B
:1042A8001946194804F03AFA0346002B14BF0123B3
:1042B8000023DBB2002B01D000F0FEF900237B6065
:1042C8000023BB600023FB6073233B6100237B61F9
:1042D8004FF40053BB6100233B623B1D19460A485B
:1042E80004F0BEFE0346002B14BF01230023DBB2FB
:1042F800002B01D000F0E0F9034800F0B1FF00BF47
:104308004837BD4680BD00BFAC010020002C0140ED
:1043180080B58AB000AF07F1200300221A605A6006
:104328003B1D00221A605A609A60DA601A615A616D
:104338009A61284B284A1A60264B13225A60254B4B
:1043480000229A60234B4CF24F32DA60214B002254
:104358001A61204B80229A611E4803F0B7FE03467B
:10436800002B14BF01230023DBB2002B01D000F087
:10437800A3F900233B6200237B6207F1200319465F
:10438800144804F001FE0346002B14BF0123002348
:10439800DBB2002B01D000F08FF900237B600023F3
:1043A800BB600023FB6000237B613B1D0022194694
:1043B800084804F05BF90346002B14BF01230023CF
:1043C800DBB2002B01D000F077F900BF2837BD46DB
:1043D80080BD00BFF40100200004004080B58AB011
:1043E80000AF07F1200300221A605A603B1D00222B
:1043F8001A605A609A60DA601A615A619A61294BA8
:10440800294A1A60274B00225A60264B00229A60DC
:10441800244B4FF4E162DA60224B00221A61214BEF
:1044280000229A611F4803F0A0FE0346002B14BF28
:1044380001230023DBB2002B01D000F03DF900235B
:104448003B6200237B6207F120031946154804F0FC
:104458009BFD0346002B14BF01230023DBB2002B76
:1044680001D000F029F960237B600023BB600023A2
:10447800FB6000237B613B1D00221946094804F0BC
:104488004DF90346002B14BF01230023DBB2002B98
:1044980001D000F011F9034800F0E2FE00BF283710
:1044A800BD4680BD3C0200200008004080B500AF3A
:1044B800134B144A1A60124B4FF4E1325A60104BF6
:1044C80000229A600E4B0022DA600D4B00221A611E
:1044D8000B4B0C225A610A4B00229A61084B0022AE
:1044E800DA61074804F043FE0346002B14BF01239A
:1044F8000023DBB2002B01D000F0DEF800BF80BD46
:10450800840200200048004080B582B000AF144B00
:104518005B69134A43F001035361114B5B6903F074
:1045280001037B607B68002200210B2002F0D9F98F
:104538000B2002F0F2F9002200210C2002F0D1F940
:104548000C2002F0EAF9002200210D2002F0C9F93E
:104558000D2002F0E2F900BF0837BD4680BD00BF5C
:104568000010024080B588B000AF07F110030022A8
:104578001A605A609A60DA604A4B9B69494A43F06C
:1045880020039361474B9B6903F02003FB60FB68A2
:10459800444B9B69434A43F010039361414B9B6929
:1045A80003F01003BB60BB683E4B9B693D4A43F078
:1045B800040393613B4B9B6903F004037B607B68B6
:1045C800384B9B69374A43F008039361354B9B6925
:1045D80003F008033B603B68002241F201213248A6
:1045E80002F0E3FF00224FF40041304802F0DDFF03
:1045F800002230212E4802F0D8FF41F201233B610E
:1046080001237B610023BB610223FB6107F11003D7
:104618001946254802F01EFE04233B6100237B61F6
:104628000023BB6107F110031946204802F012FE6F
:104638004FF400433B6101237B610023BB610223EC
:10464800FB6107F110031946184802F003FE042322
:104658003B6100237B610023BB6107F1100319460E
:10466800144802F0F7FD30233B6101237B610023EE
:10467800BB610223FB6107F1100319460C4802F0E5
:10468800E9FD4FF460733B6100237B610023BB614C
:1046980007F110031946064802F0DCFD00BF203779
:1046A800BD4680BD001002400010014000080140D6
:1046B800000C01400014014080B400AF72B600BF86
:1046C800FEE780B483B000AF786039607B681B6B0D
:1046D8000B2B08D87B681B6B591C7A6811637A68A6
:1046E800396842F8231000BF0C37BD4680BC7047BC
:1046F80080B485B000AF786039600023FB73002375
:10470800BB73BA7B7B681B6B9A420DD2BA7B7B6802
:1047180053F822303A689A4202D1BB7BFB7303E01C
:10472800BB7B0133BB73ECE7FB7B7B737A7B7B68DA
:104738001B6B9A420CD27B7B591C7A7B7B6853F8A3
:1047480021107B6843F822107B7B01337B73EDE7F4
:104758007B681B6B5A1E7B681A6300BF1437BD4603
:1047680080BC704780B483B000AF78607B681B6BF7
:10477800DBB218460C37BD4680BC704780B483B0A6
:1047880000AF786039607B683A6853F82230184681
:104798000C37BD4680BC704780B483B000AF7860EA
:1047A8007B6818460C37BD4680BC704780B582B020
:1047B80000AF786003F0F6FA0346064AA2FB03232B
:1047C8009B09013B184602F0B6F800BF0837BD4602
:1047D80080BD00BFD34D6210B0B582B000AF786025
:1047E80039607868FBF76EFE04460D463868FBF7BB
:1047F80069FE02460B462046294605F025FC02467E
:104808000B46104619460837BD46B0BD90B585B071
:1048180000AF78607B681B6800211846FDF780FBB5
:1048280003461846FCF74AFA0346C0491846FCF7FF
:1048380099FA0346BE491846FCF794FA0346BD495F
:104848001846FCF787F903461846FCF78DFC034623
:104858009AB27B68A3F862207B685C687B681B68F7
:1048680002211846FDF75CFB034619462046FDF772
:1048780069FD03461AB27B68A3F868207B681B6849
:1048880001211846FDF75DFB03461A467B681B6845
:10489800B3F9F430D31A002BB8BF5B42642202FB91
:1048A80003F3A54A82FB03129210DB17D31A9AB2BC
:1048B8007B68A3F86A207B681B681846FDF776FBBF
:1048C80003461A467B68A3F86C207B681B68184669
:1048D800FDF779FB03461A464FF4AF7303FB02F367
:1048E800964A82FB03121A44D212DB17D21A1346D5
:1048F8005B0013441A01D31A914A82FB03129210E7
:10490800DB17D31A1AB27B68A3F84A207B683833BE
:104918001846FCF7C3FD0346002B62D07B6838338A
:104928001846FCF7ACFD7B6838331846FCF7C8FD21
:104938007B68B3F94A207B6893F8243091B27A688F
:1049480008335B0013440A469A807B6893F8243046
:10495800062B08D87B6893F824300133DAB27B68D9
:1049680083F8242003E07B68002283F824207B68F6
:104978000022DA840023FB60FB68072B12DC7B68CB
:10498800B3F926309AB27968FB6808335B000B44A8
:104998009B8813449BB21AB27B68DA84FB680133A4
:1049A800FB60E9E77B68B3F92630002B00DA0733B0
:1049B800DB101AB27B68DA847B68B3F870207B68F6
:1049C800B3F9263019467B68B3F87030CB1A002B40
:1049D80000DA03339B109BB213449AB27B68A3F8A6
:1049E80070207B6828331846FCF72FFD03461A46CB
:1049F8007B6893F84D305340DBB2002B14BF012382
:104A08000023DAB27B6883F84D207B6893F84C303A
:104A1800002B05D17B6893F84D30002B00F0D68031
:104A28007B689B6804330021184600F04DF9034663
:104A3800042B04D07B6893F84D30002B01D0012360
:104A480000E00023002B7DD07B689B680433184668
:104A580000F049F97B689B681A1D7B68B3F86230DF
:104A68001946104600F04EF902467B68B3F86430E8
:104A78001946104600F046F902467B68B3F96630DD
:104A88001946104600F05CF902467B68B3F96830B5
:104A98001946104600F054F902467B68B3F86A30AC
:104AA8001946104600F02EF902467B68B3F86C30C0
:104AB8001946104600F026F902467B68B3F86E30B6
:104AC8001946104600F01EF902467B68B3F87030AC
:104AD8001946104600F016F902467B68B3F87230A2
:104AE8001946104600F00EF902467B68B3F8743098
:104AF8001946104600F006F902467B68B3F876308E
:104B08001946104600F0FEF802467B68B3F8783084
:104B18001946104600F0F6F802467B68B3F87A307A
:104B28001946104600F0EEF82FE000BF6740533AF0
:104B38000000C8420000C040310CC330810008802A
:104B4800676666667B689B6804330021184600F038
:104B5800BBF803462B2B0CBF01230023DBB2002B31
:104B680013D07B689B680433184600F0BCF87B6858
:104B78009B6804334F21184600F000F97B689B6856
:104B880004334B21184600F0F9F87B68002283F8BB
:104B98004C207B68002283F84D207B689B68043397
:104BA800184600F008F90346002B14BF0123002320
:104BB800DBB2002B05D07B689B68184600F00AF929
:104BC80004E07B689B68184600F026F900BF14379C
:104BD800BD4690BD80B582B000AF786039607B6813
:104BE8003A681A607B680433184600F031F97B682C
:104BF80018460837BD4680BD80B584B000AFF86060
:104C0800B9607A603B60FB68BA681A60FB687A68CA
:104C18005A60FB683A689A60FB68BA69DA60FB68B0
:104C2800FA691A61FB68143300221A605A609A60A4
:104C3800DA60FB68002283F82420FB680022DA840B
:104C4800FB6828331846FCF79DFBFB6838331921AD
:104C58001846FCF7AFFBFB68002283F84820FB6886
:104C68000022A3F84A20FB68002283F84C20FB6846
:104C7800002283F84D20FB68012283F84E20FB6850
:104C88005033F968184600F0EFF8FB685833F968B4
:104C9800184600F007F9FB68623300221A605A6070
:104CA8009A60DA601A615A611A83386800F0B4F8B9
:104CB800FB6828334FF4FA711846FCF7B3FBFB681E
:104CC80018461037BD4680BD80B483B000AF786009
:104CD80039607A683B68134402331B7818460C37EE
:104CE800BD4680BC704780B483B000AF78607B68F5
:104CF80000221A707B6800225A7000BF0C37BD462C
:104D080080BC704780B584B000AF78600B467B806C
:104D180007F10E0307F10F027988786800F0E0F8D0
:104D2800BB7B1946786800F0F0F80246FB7B194611
:104D3800104600F0EAF87B6818461037BD4680BD7B
:104D480080B584B000AF78600B467B80798807F126
:104D58000E0307F10F02786800F0C2F8BB7B194612
:104D6800786800F0D2F80246FB7B1946104600F03E
:104D7800CCF87B6818461037BD4680BD80B483B038
:104D880000AF78600B46FB707B685B78192B0CD8FA
:104D98007B685B781A467B681344FA789A707B685C
:104DA8005B780133DAB27B685A707B6818460C3737
:104DB800BD4680BC704780B483B000AF78607B6824
:104DC8005A787B681B78D31ADBB218460C37BD4675
:104DD80080BC704790B583B000AF78607B680433BF
:104DE800184600F0AFF804467B6804331846FFF70E
:104DF800E2FF03469BB21A462146064804F004FA2D
:104E08007B681B6801211846FDF757FA00BF0C376D
:104E1800BD4690BD8402002080B582B000AF7860A6
:104E28007B680433184600F08DF803461A221946A9
:104E3800064804F055FA7B681B6800211846FDF700
:104E48003CFA00BF0837BD4680BD00BF8402002081
:104E580080B582B000AF78607868FFF744FF7B6860
:104E680018460837BD4680BD80B582B000AF78606F
:104E780039607B681846FCF7DBFE094A7B681A60D4
:104E88007B683A685A603B681B697A68114618461D
:104E9800FCF72DFB7B6818460837BD4680BD00BF70
:104EA800D0B1000880B582B000AF786039607B6807
:104EB8001846FCF7BDFE094A7B681A607B683A68A9
:104EC8005A603B68DB687A6811461846FCF70FFBA6
:104ED8007B6818460837BD4680BD00BFC4B10008CE
:104EE80080B487B000AFF8607A603B600B467B8186
:104EF8007B89BB823A7D7B681A707A7D3B681A7021
:104F080000BF1C37BD4680BC704780B483B000AF7B
:104F180078600B46FB707B685B78192B0CD87B6834
:104F28005B781A467B681344FA789A707B685B78DA
:104F38000133DAB27B685A707B6818460C37BD4675
:104F480080BC704780B483B000AF78607B68023360
:104F580018460C37BD4680BC7047000080B582B04B
:104F680000AF786039607B68012B07D13B684FF64A
:104F7800FF72934202D10348FCF784F900BF083757
:104F8800BD4680BD9800002080B582B000AF786033
:104F98007B685B68184600F011F800BF0837BD460B
:104FA80080BD80B582B000AF78607B685B681846CA
:104FB80000F011F800BF0837BD4680BD80B582B04B
:104FC80000AF78607B689B681846FFF725FF00BF35
:104FD8000837BD4680BD80B582B000AF78607B6879
:104FE800012283F84C207B6828331846FCF747FADF
:104FF80000BF0837BD4680BD80B500AF4FF6FF71D2
:105008000120FFF7ABFF80BD80B485B000AF154B22
:105018009B69144A43F001039361124B9B6903F0A7
:105028000103BB60BB680F4BDB690E4A43F080533A
:10503800D3610C4BDB6903F080537B607B680A4BC0
:105048005B68FB60FB6823F0E063FB60FB6843F090
:105058000073FB60044AFB68536000BF1437BD4609
:1050680080BC7047001002400000014080B58AB043
:1050780000AF786007F1180300221A605A609A603E
:10508800DA607B681B68444A934252D1434B9B6960
:10509800424A43F400739361404B9B6903F40073E5
:1050A8007B617B693D4B9B693C4A43F004039361F8
:1050B8003A4B9B6903F004033B613B698B23BB615B
:1050C8000323FB6107F118031946354802F0C2F8BB
:1050D800344B354A1A60334B00225A60314B002258
:1050E8009A60304B8022DA602E4B4FF480721A613E
:1050F8002C4B4FF480625A612A4B00229A61294B4B
:105108000022DA61274801F023FC0346002B01D076
:10511800FFF7D2FA7B68234A1A62224A7B685362F5
:1051280000220121122001F0DCFB122001F0F5FB26
:105138002EE07B681B681D4A934229D1174B9B6957
:10514800164A43F480639361144B9B6903F48063AC
:10515800FB60FB68114B9B69104A43F004039361A1
:105168000E4B9B6903F00403BB60BB687023BB61F3
:105178000323FB6107F118031946094802F06AF88E
:1051880000220121122001F0ACFB122001F0C5FB26
:1051980000BF2837BD4680BD0024014000100240F2
:1051A8000008014068010020080002400028014072
:1051B80080B485B000AF78607B681B68124A934260
:1051C8000CD1124B9B69114A43F4006393610F4B56
:1051D8009B6903F40063FB60FB6810E07B681B6855
:1051E8000B4A93420BD1094BDB69084A43F004038D
:1051F800D361064BDB6903F00403BB60BB6800BFE7
:105208001437BD4680BC7047002C01400010024096
:105218000008004080B584B000AF78607B681B68E8
:105228000D4A934213D10D4BDB690C4A43F002033C
:10523800D3610A4BDB6903F00203FB60FB680022C1
:1052480000211D2001F04DFB1D2001F066FB00BF71
:105258001037BD4680BD00BF00040040001002406A
:1052680080B58AB000AF786007F1180300221A6091
:105278005A609A60DA607B681B682B4A934232D185
:105288002A4B9B69294A43F008039361274B9B6982
:1052980003F008037B617B69244B9B69234A43F035
:1052A80004039361214B9B6903F004033B613B6951
:1052B8004FF46043BB610223FB6102237B6207F169
:1052C800180319461A4801F0C5FF4FF4E063BB61A3
:1052D8000223FB6102237B6207F118031946154874
:1052E80001F0B8FF1CE07B681B68134A934217D192
:1052F8000E4B9B690D4A43F0080393610B4B9B6966
:1053080003F00803FB60FB684023BB610223FB61D9
:1053180002237B6207F118031946054801F09AFF3A
:1053280000BF2837BD4680BD002C01400010024058
:10533800000C0140000801400008004080B58AB018
:1053480000AF786007F1140300221A605A609A606F
:10535800DA607B681B68504A934240F099804F4B53
:10536800DB694E4A43F48023D3614C4BDB6903F479
:1053780080233B613B69494B9B69484A43F01003D2
:105388009361464B9B6903F01003FB60FB684FF485
:1053980080637B610223BB6103233B6207F1140333
:1053A80019463F4801F056FF4FF400637B61002324
:1053B800BB610023FB6107F114031946384801F06B
:1053C80049FF384B5B687B627B6A23F030037B6262
:1053D8007B6A43F0E0637B627B6A43F010037B6285
:1053E800304A7B6A5360304B304A1A602E4B102289
:1053F8005A602D4B00229A602B4B8022DA602A4B90
:1054080000221A61284B00225A61274B00229A6118
:10541800254B4FF48052DA61234801F099FA03468C
:10542800002B01D0FFF748F97B681F4A5A631E4AD0
:105438007B6853621E4B1F4A1A601D4B00225A603C
:105448001B4B00229A601A4B8022DA60184B00220C
:105458001A61174B00225A61154B00229A61144BAE
:105468000022DA61124801F073FA0346002B01D0DA
:10547800FFF722F97B680E4A9A630D4A7B685362EC
:1054880000220221272001F02CFA272001F045FAFA
:1054980000BF2837BD4680BD0048004000100240CC
:1054A8000010014000000140C80200201C0002401A
:1054B8000C0300203000024080B400AFFEE700007B
:1054C80080B500AF1A4B00225A63194B00229A6329
:1054D800174B0022DA630021164802F04FFF002123
:1054E800144803F0F3FC0421124802F047FF04219A
:1054F800104803F0EBFC08210E4802F03FFF08219A
:105508000C4803F0E3FC0C4802F0B2FD0B4B002200
:105518005A6300210A4802F031FF0122012109489B
:1055280002F043F801222021074802F03EF8FEE786
:10553800002C0140AC010020F401002000080040CC
:105548003C02002000100140000C014080B400AF74
:10555800FEE780B400AFFEE780B400AFFEE780B49A
:1055680000AF00BFBD4680BC704780B400AF00BF2D
:10557800BD4680BC704780B400AF00BFBD4680BC4C
:10558800704780B500AFFBF7A1FE00BF80BD0000EB
:1055980080B500AF024801F0F3FB00BF80BD00BF3B
:1055A8006801002080B500AF024801F0E9FB00BFA8
:1055B80080BD00BFC802002080B500AF024801F0DE
:1055C800DFFB00BF80BD00BF0C03002080B500AF2B
:1055D800034800F0CEFA034800F0CBFA00BF80BDC4
:1055E800080100203801002080B500AF024802F011
:1055F80035FF00BF80BD00BFF401002080B500AFBB
:10560800024803F0BDFE00BF80BD00BF8402002039
:1056180080B400AF01231846BD4680BC704780B5F2
:1056280082B000AF7860396005F000FD03461622AD
:105638001A604FF0FF3318460837BD4680BD80B565
:1056480082B000AF78604FF0FF317868FFF7E7FF6E
:10565800FEE780B400AF00BFBD4680BC70470000C5
:105668000C480D490D4A002302E0D458C4500433B5
:10567800C4188C42F9D30A4A0A4C002301E013608B
:105688000432A242FBD3FFF7E4FF05F0D5FCFEF796
:1056980027FB7047000000207800002094B2000823
:1056A800780000206C030020FEE7000080B500AF02
:1056B800084B1B68074A43F010031360032001F0EE
:1056C80005F9032000F008F8FFF79EFC00231846B0
:1056D80080BD00BF0020024080B582B000AF786076
:1056E800124B1A68124B1B7819464FF47A73B3FBA6
:1056F800F1F3B2FBF3F3184601F01DF90346002B52
:1057080001D001230EE07B680F2B0AD800227968AC
:105718004FF0FF3001F0E5F8064A7B68136000237C
:1057280000E0012318460837BD4680BD0000002070
:10573800080000200400002080B400AF024B1B6862
:105748001846BD4680BC70476403002080B586B00B
:1057580000AF78600023FB7500233B610023BB602A
:105768000023FB607B68002B01D10123CEE07B681E
:105778009B68002B7B689B6A002B09D17B68002201
:10578800DA627B68002283F824207868FFF76EFCD1
:10579800786800F075FC0346FB757B689B6A03F02C
:1057A8001003002B40F0A980FB7D002B40F0A58062
:1057B8007B689B6A23F4885323F0020343F00202B8
:1057C8007B689A627B685A687B681B6851498B4280
:1057D8000AD17B68DB69B3F5402F02D07B68DB69AF
:1057E80004E04FF4002301E07B68DB691A437B681F
:1057F8001B7B5B001343BA681343BB607B689B68E1
:10580800B3F5807F03D07B689B68012B02D14FF4EE
:10581800807300E000233A6913433B617B681B7D7A
:10582800012B19D17B681B7B002B09D17B689B69F5
:10583800013B5A033B69134343F400633B610BE0AC
:105848007B689B6A43F020027B689A627B68DB6A0C
:1058580043F001027B68DA627B681B685B6823F4AB
:1058680069417B681B683A690A435A607B681B6810
:105878009A68294B13407A681268B9680B43936099
:105888007B689B68B3F5807F03D07B689B68012B9E
:1058980004D17B681B69013B1B05FB607B681B68A7
:1058A800DB6A23F470017B681B68FA680A43DA62D2
:1058B8007B681B689A68194B1340BA689A420BD1E7
:1058C8007B680022DA627B689B6A23F0030343F05B
:1058D80001027B689A6218E07B689B6A23F01203D6
:1058E80043F010027B689A627B68DB6A43F001022E
:1058F8007B68DA620123FB7507E07B689B6A43F0EB
:1059080010027B689A620123FB75FB7D18461837E5
:10591800BD4680BD003C0140FDF7E1FFFE0E1FFFC4
:1059280080B586B000AFF860B9607A600023FB7577
:10593800FB681B68644A934204D0FB681B68634A8F
:10594800934206D1604B5B6803F47023002B40F050
:10595800B380FB6893F82430012B01D10223AEE019
:10596800FB68012283F82420F86800F02FFB034627
:10597800FB75FB7D002B40F09A80FB689B6A23F443
:10598800706323F0010343F48072FB689A62FB683A
:105998001B684E4A934205D14B4B5B6803F4702356
:1059A800002B15D1FB689B6A23F48012FB689A626E
:1059B800FB681B685B6803F48063002B26D0FB68D8
:1059C8009B6A23F4405343F48052FB689A621DE0BB
:1059D800FB689B6A43F48012FB689A62FB681B6849
:1059E800394A934204D0FB681B68384A93420DD168
:1059F800354B5B6803F48063002B07D0FB689B6A18
:105A080023F4405343F48052FB689A62FB689B6A14
:105A180003F48053002B06D0FB68DB6A23F00602F0
:105A2800FB68DA6202E0FB680022DA62FB680022A7
:105A380083F82420FB681B6A254A9A62FB681B6A64
:105A4800244ADA62FB681B6A234A1A63FB681B68EC
:105A58006FF002021A60FB681B689A68FB681B6893
:105A680042F480729A60FB68186AFB681B684C33C2
:105A78001946BA687B6800F0E1FFFB681B689B6801
:105A880003F46023B3F5602F08D1FB681B689A689C
:105A9800FB681B6842F4A0029A600FE0FB681B6871
:105AA8009A68FB681B6842F480129A6006E0FB68FB
:105AB800002283F8242001E00123FB75FB7D1846B2
:105AC8001837BD4680BD00BF0024014000280140B2
