:020000040800F2
:1000000000000120D9500008B94F0008BF4F000878
:10001000C54F0008CB4F0008D14F0008000000007A
:10002000000000000000000000000000D74F0008A2
:10003000E34F000800000000EF4F0008FB4F0008EE
:1000400021510008215100082151000821510008C8
:1000500021510008215100082151000821510008B8
:1000600021510008215100082151000809500008C1
:100070001D5000083150000821510008215100088E
:100080002151000821510008455000082151000865
:100090002151000821510008215100082151000878
:1000A0002151000821510008215100082151000868
:1000B0002151000861500008215100082151000819
:1000C0002151000821510008215100082151000848
:1000D00021510008215100082151000875500008E5
:1000E0002151000821510008215100082151000828
:1000F0002151000821510008215100082151000818
:100100002151000821510008215100082151000807
:1001100021510008215100082151000821510008F7
:1001200021510008215100082151000821510008E7
:1001300000000000000000000000000000000000BF
:1001400000000000000000000000000000000000AF
:10015000000000000000000000000000000000009F
:10016000000000000000000000000000000000008F
:10017000000000000000000000000000000000007F
:10018000000000000000000000000000000000006F
:10019000000000000000000000000000000000005F
:1001A000000000000000000000000000000000004F
:1001B000000000000000000000000000000000003F
:1001C000000000000000000000000000000000002F
:1001D000000000000000000000000000000000001F
:0401E0005FF8E0F1F3
:1001E80010B5054C237833B9044B13B10448AFF369
:1001F80000800123237010BD78000020000000005B
:1002080050AB000808B5034B1BB103490348AFF3D3
:10021800008008BD000000007C00002050AB0008F2
:1002280081F0004102E000BF83F0004330B54FEA9F
:1002380041044FEA430594EA050F08BF90EA020F0C
:100248001FBF54EA000C55EA020C7FEA645C7FEA9F
:10025800655C00F0E2804FEA5454D4EB5555B8BFC2
:100268006D420CDD2C4480EA020281EA030382EA33
:10027800000083EA010180EA020281EA0303362DC5
:1002880088BF30BD11F0004F4FEA01314FF4801C98
:100298004CEA113102D0404261EB410113F0004FAA
:1002A8004FEA03334CEA133302D0524263EB430361
:1002B80094EA050F00F0A780A4F10104D5F1200EFF
:1002C8000DDB02FA0EFC22FA05F2801841F100015A
:1002D80003FA0EF2801843FA05F359410EE0A5F12E
:1002E80020050EF1200E012A03FA0EFC28BF4CF05F
:1002F800020C43FA05F3C01851EBE37101F0004515
:1003080007D54FF0000EDCF1000C7EEB00006EEB21
:100318000101B1F5801F1BD3B1F5001F0CD34908AB
:100328005FEA30004FEA3C0C04F101044FEA445202
:1003380012F5800F80F09A80BCF1004F08BF5FEA89
:10034800500C50F1000041EB045141EA050130BD69
:100358005FEA4C0C404141EB0101013C28BFB1F57B
:10036800801FE9D291F0000F04BF01460020B1FAC6
:1003780081F308BF2033A3F10B03B3F120020CDA99
:100388000C3208DD02F1140CC2F10C0201FA0CF077
:1003980021FA02F10CE002F11402D8BFC2F1200CDC
:1003A80001FA02F120FA0CFCDCBF41EA0C01904092
:1003B800E41AA2BF01EB0451294330BD6FEA0404DB
:1003C8001F3C1CDA0C340EDC04F11404C4F12002C6
:1003D80020FA04F001FA02F340EA030021FA04F3D8
:1003E80045EA030130BDC4F10C04C4F1200220FA2F
:1003F80002F001FA04F340EA0300294630BD21FA6D
:1004080004F0294630BD94F0000F83F4801306BF32
:1004180081F480110134013D4EE77FEA645C18BF26
:100428007FEA655C29D094EA050F08BF90EA020FBD
:1004380005D054EA000C04BF1946104630BD91EAB5
:10044800030F1EBF0021002030BD5FEA545C05D1B8
:100458004000494128BF41F0004130BD14F58004F7
:100468003CBF01F5801130BD01F0004545F0FE416B
:1004780041F470014FF0000030BD7FEA645C1ABFA0
:10048800194610467FEA655C1CBF0B46024650EAD7
:10049800013406BF52EA033591EA030F41F4002103
:1004A80030BD00BF90F0000F04BF0021704730B589
:1004B8004FF4806404F132044FF000054FF000015E
:1004C80050E700BF90F0000F04BF0021704730B51F
:1004D8004FF4806404F1320410F0004548BF4042F4
:1004E8004FF000013EE700BF42004FEAE2014FEA49
:1004F80031014FEA02701FBF12F07F4393F07F4F24
:1005080081F06051704732F07F4208BF704793F026
:100518007F4F04BF41F40021704730B54FF4607439
:1005280001F0004521F000411CE700BF50EA01023C
:1005380008BF704730B54FF000050AE050EA0102E5
:1005480008BF704730B511F0004502D5404261EB55
:1005580041014FF4806404F132045FEA915C3FF496
:10056800D8AE4FF003025FEADC0C18BF03325FEA33
:10057800DC0C18BF033202EBDC02C2F1200300FAE4
:1005880003FC20FA02F001FA03FE40EA0E0021FA09
:1005980002F11444BDE600BF70B54FF0FF0C4CF4F7
:1005A800E06C1CEA11541DBF1CEA135594EA0C0FA9
:1005B80095EA0C0F00F0DEF82C4481EA030621EAE4
:1005C8004C5123EA4C5350EA013518BF52EA03351F
:1005D80041F4801143F4801338D0A0FB02CE4FF0D1
:1005E8000005E1FB02E506F00042E0FB03E54FF001
:1005F8000006E1FB03569CF0000F18BF4EF0010EF9
:10060800A4F1FF04B6F5007F64F5407404D25FEAF4
:100618004E0E6D4146EB060642EAC62141EA5551A7
:100628004FEAC52040EA5E504FEACE2EB4F1FD0CE9
:1006380088BFBCF5E06F1ED8BEF1004F08BF5FEA67
:10064800500E50F1000041EB045170BD06F0004619
:1006580046EA010140EA020081EA0301B4EB5C04C6
:10066800C2BFD4EB0C0541EA045170BD41F48011BE
:100678004FF0000E013C00F3AB8014F1360FDEBFE3
:10068800002001F0004170BDC4F10004203C35DABF
:100698000C341BDC04F11404C4F1200500FA05F342
:1006A80020FA04F001FA05F240EA020001F00042E3
:1006B80021F0004110EBD37021FA04F642EB060159
:1006C8005EEA430E08BF20EAD37070BDC4F10C0483
:1006D800C4F1200500FA04F320FA05F001FA04F247
:1006E80040EA020001F0004110EBD37041F1000133
:1006F8005EEA430E08BF20EAD37070BDC4F120053E
:1007080000FA05F24EEA020E20FA04F301FA05F2A5
:1007180043EA020321FA04F001F0004121FA04F24D
:1007280020EA020000EBD3705EEA430E08BF20EA1D
:10073800D37070BD94F0000F0FD101F00046400057
:1007480041EB010111F4801F08BF013CF7D041EAD9
:10075800060195F0000F18BF704703F000465200DD
:1007680043EB030313F4801F08BF013DF7D043EAAE
:100778000603704794EA0C0F0CEA135518BF95EA64
:100788000C0F0CD050EA410618BF52EA4306D1D1EB
:1007980081EA030101F000414FF0000070BD50EA0A
:1007A800410606BF1046194652EA430619D094EA94
:1007B8000C0F02D150EA013613D195EA0C0F05D17E
:1007C80052EA03361CBF104619460AD181EA0301D2
:1007D80001F0004141F0FE4141F470014FF000008A
:1007E80070BD41F0FE4141F4780170BD70B54FF025
:1007F800FF0C4CF4E06C1CEA11541DBF1CEA1355A5
:1008080094EA0C0F95EA0C0F00F0A7F8A4EB050486
:1008180081EA030E52EA03354FEA013100F088807D
:100828004FEA03334FF0805545EA131343EA126346
:100838004FEA022245EA111545EA10654FEA0026FB
:100848000EF000419D4208BF964244F1FD0404F5B4
:10085800407402D25B084FEA3202B61A65EB030510
:100868005B084FEA32024FF480104FF4002CB6EBCD
:10087800020E75EB030E22BFB61A754640EA0C004D
:100888005B084FEA3202B6EB020E75EB030E22BF8D
:10089800B61A754640EA5C005B084FEA3202B6EBCE
:1008A800020E75EB030E22BFB61A754640EA9C008D
:1008B8005B084FEA3202B6EB020E75EB030E22BF5D
:1008C800B61A754640EADC0055EA060E18D04FEA1B
:1008D800051545EA16754FEA06164FEAC30343EABB
:1008E80052734FEAC2025FEA1C1CC0D111F4801F88
:1008F8000BD141EA00014FF000004FF0004CB6E781
:1009080011F4801F04BF01430020B4F1FD0C88BF1F
:10091800BCF5E06F3FF6AFAEB5EB030C04BFB6EB2A
:10092800020C5FEA500C50F1000041EB045170BD1D
:100938000EF0004E4EEA113114EB5C04C2BFD4EB4A
:100948000C0541EA045170BD41F480114FF0000ECE
:10095800013C90E645EA060E8DE60CEA135594EA4A
:100968000C0F08BF95EA0C0F3FF43BAF94EA0C0F4D
:100978000AD150EA01347FF434AF95EA0C0F7FF4C2
:1009880025AF104619462CE795EA0C0F06D152EA16
:1009980003353FF4FDAE1046194622E750EA4106FA
:1009A80018BF52EA43067FF4C5AE50EA41047FF40B
:1009B8000DAF52EA43057FF4EBAE12E74FF0FF3C70
:1009C80006E000BF4FF0010C02E000BF4FF0010C41
:1009D8004DF804CD4FEA410C7FEA6C5C4FEA430CBA
:1009E80018BF7FEA6C5C1BD001B050EA410C0CBF09
:1009F80052EA430C91EA030F02BF90EA020F00206B
:100A0800704710F1000F91EA030F58BF994208BFD1
:100A180090422CBFD8176FEAE37040F0010070478E
:100A28004FEA410C7FEA6C5C02D150EA013C07D1E5
:100A38004FEA430C7FEA6C5CD6D152EA033CD3D030
:100A48005DF8040B704700BF8446104662468C462A
:100A58001946634600E000BF01B5FFF7B7FF00285D
:100A680048BF10F1000F01BD4DF808EDFFF7F4FF86
:100A78000CBF012000205DF808FB00BF4DF808ED11
:100A8800FFF7EAFF34BF012000205DF808FB00BF34
:100A98004DF808EDFFF7E0FF94BF012000205DF856
:100AA80008FB00BF4DF808EDFFF7CEFF94BF01200B
:100AB80000205DF808FB00BF4DF808EDFFF7C4FF04
:100AC80034BF012000205DF808FB00BF4FEA410C4D
:100AD8007FEA6C5C02D150EA013C0AD14FEA430C30
:100AE8007FEA6C5C02D152EA033C02D14FF000006D
:100AF80070474FF0010070474FEA410212F50012AB
:100B080015D211D56FF47873B3EB625212D94FEA4C
:100B1800C12343F0004343EA505311F0004F23FA36
:100B280002F018BF404270474FF00000704750EA8B
:100B3800013005D111F0004008BF6FF00040704748
:100B48004FF00000704700BF80F0004002E000BF97
:100B580081F0004142001FBF5FEA410392EA030FA0
:100B68007FEA226C7FEA236C6AD04FEA1262D2EBEA
:100B78001363C1BFD218414048404140B8BF5B42EF
:100B8800192B88BF704710F0004F40F4000020F088
:100B98007F4018BF404211F0004F41F4000121F09E
:100BA8007F4118BF494292EA030F3FD0A2F10102E8
:100BB80041FA03FC10EB0C00C3F1200301FA03F126
:100BC80000F0004302D5494260EB4000B0F5000F49
:100BD80013D3B0F1807F06D340084FEA310102F108
:100BE8000102FE2A51D2B1F1004F40EBC25008BFBA
:100BF80020F0010040EA03007047490040EB000084
:100C0800013A28BFB0F5000FEDD2B0FA80FCACF184
:100C1800080CB2EB0C0200FA0CF0AABF00EBC250B1
:100C280052421843BCBFD0401843704792F0000F9F
:100C380081F4000106BF80F400000132013BB5E7F2
:100C48004FEA41037FEA226C18BF7FEA236C21D068
:100C580092EA030F04D092F0000F08BF08467047CD
:100C680090EA010F1CBF0020704712F07F4F04D19B
:100C7800400028BF40F00040704712F100723CBFAE
:100C880000F50000704700F0004343F0FE4040F4D8
:100C9800000070477FEA226216BF08467FEA236396
:100CA8000146420206BF5FEA412390EA010F40F481
:100CB800800070474FF0000304E000BF10F00043CD
:100CC80048BF40425FEA000C08BF704743F09643B4
:100CD80001464FF000001CE050EA010208BF7047CF
:100CE8004FF000030AE000BF50EA010208BF704756
:100CF80011F0004302D5404261EB41015FEA010C6B
:100D080002BF84460146002043F0B64308BFA3F162
:100D18008053A3F50003BCFA8CF2083AA3EBC25344
:100D280010DB01FA02FC634400FA02FCC2F1200263
:100D3800BCF1004F20FA02F243EB020008BF20F09A
:100D48000100704702F1200201FA02FCC2F1200200
:100D580050EA4C0021FA02F243EB020008BF20EAF5
:100D6800DC7070474FF0FF0C1CEAD0521EBF1CEA23
:100D7800D15392EA0C0F93EA0C0F6FD01A4480EA11
:100D8800010C400218BF5FEA41211ED04FF00063FA
:100D980043EA501043EA5111A0FB01310CF0004026
:100DA800B1F5000F3EBF490041EAD3715B0040EA4C
:100DB800010062F17F02FD2A1DD8B3F1004F40EB1C
:100DC800C25008BF20F00100704790F0000F0CF0EF
:100DD800004C08BF49024CEA502040EA51207F3AB3
:100DE800C2BFD2F1FF0340EAC250704740F400008E
:100DF8004FF00003013A5DDC12F1190FDCBF00F07F
:100E080000407047C2F10002410021FA02F1C2F12C
:100E1800200200FA02FC5FEA310040F1000053EAC8
:100E28004C0308BF20EADC70704792F0000F00F016
:100E3800004C02BF400010F4000F013AF9D040EA1C
:100E48000C0093F0000F01F0004C02BF490011F4B0
:100E5800000F013BF9D041EA0C018FE70CEAD153AE
:100E680092EA0C0F18BF93EA0C0F0AD030F0004C2E
:100E780018BF31F0004CD8D180EA010000F00040E2
:100E8800704790F0000F17BF90F0004F084691F0A0
:100E9800000F91F0004F14D092EA0C0F01D14202DA
:100EA8000FD193EA0C0F03D14B0218BF084608D1A3
:100EB80080EA010000F0004040F0FE4040F40000ED
:100EC800704740F0FE4040F4400070474FF0FF0C80
:100ED8001CEAD0521EBF1CEAD15392EA0C0F93EAC7
:100EE8000C0F69D0A2EB030280EA010C49024FEA19
:100EF800402037D04FF0805343EA111143EA1013D2
:100F08000CF000408B4238BF5B0042F17D024FF489
:100F1800000C8B4224BF5B1A40EA0C00B3EB510F64
:100F280024BFA3EB510340EA5C00B3EB910F24BF4D
:100F3800A3EB910340EA9C00B3EBD10F24BFA3EBD2
:100F4800D10340EADC001B0118BF5FEA1C1CE0D19A
:100F5800FD2A3FF650AF8B4240EBC25008BF20F04D
:100F6800010070470CF0004C4CEA50207F32C2BFA1
:100F7800D2F1FF0340EAC250704740F400004FF03E
:100F88000003013A37E792F0000F00F0004C02BF6F
:100F9800400010F4000F013AF9D040EA0C0093F039
:100FA800000F01F0004C02BF490011F4000F013B93
:100FB800F9D041EA0C0195E70CEAD15392EA0C0FFB
:100FC80008D142027FF47DAF93EA0C0F7FF470AF33
:100FD800084676E793EA0C0F04D14B023FF44CAF76
:100FE80008466EE730F0004C18BF31F0004CCAD10B
:100FF80030F000427FF45CAF31F000437FF43CAF47
:101008005FE700BF4FF0FF3C06E000BF4FF0010C68
:1010180002E000BF4FF0010C4DF804CD4FEA40024A
:101028004FEA41037FEA226C18BF7FEA236C11D094
:1010380001B052EA530C18BF90EA010F58BFB2EB47
:10104800030088BFC81738BF6FEAE17018BF40F0C7
:10105800010070477FEA226C02D15FEA402C05D17B
:101068007FEA236CE4D15FEA412CE1D05DF8040B00
:10107800704700BF844608466146FFE70FB5FFF793
:10108800C9FF002848BF10F1000F0FBD4DF808ED4B
:10109800FFF7F4FF0CBF012000205DF808FB00BF3C
:1010A8004DF808EDFFF7EAFF34BF012000205DF896
:1010B80008FB00BF4DF808EDFFF7E0FF94BF0120E3
:1010C80000205DF808FB00BF4DF808EDFFF7D2FFE0
:1010D80094BF012000205DF808FB00BF4DF808ED23
:1010E800FFF7C8FF34BF012000205DF808FB00BFF0
:1010F8004FEA40024FEA41037FEA226C02D15FEADD
:10110800402C08D17FEA236C02D15FEA412C02D13E
:101118004FF0000070474FF0010070474FEA40025F
:10112800B2F1FE4F0FD34FF09E03B3EB12620DD90D
:101138004FEA002343F0004310F0004F23FA02F077
:1011480018BF404270474FF00000704712F1610F1E
:1011580001D1420205D110F0004008BF6FF00040F5
:1011680070474FF00000704780B582B000AF7860DC
:1011780039607B683968184602F0A1FF00BF08375C
:10118800BD4680BD80B582B000AF786039607B68AD
:101198003968184602F0AAFF00BF0837BD4680BD6F
:1011A80080B584B000AF78600023FB737B68184675
:1011B80002F0D6FF03461A46FB7B934234BF012355
:1011C8000023DBB2002B0ED07B68FA7B1146184651
:1011D80002F0D2FF03461A68126818469047FB7B54
:1011E8000133FB73E2E700BF1037BD4680BD80B511
:1011F80082B000AF78607B68184602F0CBFF7B684E
:1012080018460837BD4680BD80B582B000AF78600B
:101218007B681846FFF7EBFF7B6818460837BD4622
:1012280080BD000080B582B000AF78607B6818464A
:10123800FFF7DDFF7B68343334220021184609F0BC
:1012480037FC7B6834331846FFF7DEFF7B680022E3
:101258009A667B680122DA66034802F0A5FF7B687C
:1012680018460837BD4680BD9400002080B500AF01
:10127800024800F0A8F800BF80BD00BF9800002019
:1012880080B582B000AF78607B681B7983F001037A
:10129800DBB2002B07D07B6801221A717B681946E4
:1012A8000348FFF761FF00BF0837BD4680BD00BF98
:1012B8009800002080B582B000AF78607B681B7909
:1012C800002B07D07B6800221A717B6819460348F7
:1012D800FFF758FF00BF0837BD4680BD98000020C3
:1012E80080B483B000AF7860044A7B681A607B687A
:1012F80018460C37BD4680BC704700BF1CAC0008C0
:1013080080B582B000AF78607B681846FFF7E8FFC9
:10131800034A7B681A607B6818460837BD4680BD5B
:1013280010AC000880B582B000AF78607B681846C2
:10133800FFF7E6FF064A7B681A607B6800229A601E
:101348007B6800221A717B6818460837BD4680BD45
:1013580004AC000880B582B000AF786039607B6863
:101368001846FFF7CDFF094A7B681A607B680022A0
:101378009A607B6800221A713968786800F034F83E
:101388007B6818460837BD4680BD00BF04AC00081E
:1013980080B483B000AF78607B689B685A1C7B6818
:1013A8009A6000BF0C37BD4680BC704780B582B0DC
:1013B80000AF78607B681B681846FFF7F1FE00BF36
:1013C8000837BD4680BD80B582B000AF78607B68C5
:1013D80003F168007B68DB6E7A68194602F0FAFE52
:1013E80000BF0837BD4680BD80B582B000AF7860C9
:1013F80039607B6800229A607B683A68DA607B68AB
:101408001846FFF73DFF00BF0837BD4680BD80B4D2
:1014180083B000AF78607B689A687B68DB689A4223
:101428002CBF01230023DBB2002B04D07B680022F1
:101438009A60012300E0002318460C37BD4680BCA3
:10144800704780B582B000AF78607B6800229A60F0
:101458007B681846FFF72EFF00BF0837BD4680BDE2
:1014680080B483B000AF78607B689A687B68DB687B
:101478009A422CBF01230023DBB218460C37BD4625
:1014880080BC704780B582B000AF78607B68184632
:10149800FFF7F6FE00BF0837BD4680BD80B483B0B5
:1014A80000AF78607B681B7918460C37BD4680BC56
:1014B800704780B483B000AF786039607B683A6861
:1014C8001A6000BF0C37BD4680BC704780B582B03B
:1014D80000AF78607B681A687B681B681B681B68AC
:1014E8001046984700BF0837BD4680BD80B582B01A
:1014F80000AF7860034804F029F800BF0837BD46FC
:1015080080BD00BF08010020B0B584B000AF78608E
:10151800654804F019FC0121634804F05FFC0246A9
:101528007B6893F8823011B27A680C335B001344FD
:101538000A469A8002215C4804F050FC02467B6807
:1015480093F8823011B27A6814335B0013440A4668
:10155800DA800321544804F041FC01467B6893F883
:1015680082301A4609B27B68203223F8121004210F
:101578004D4804F033FC03469AB27B68A3F8762002
:101588007B68B3F874207B68B3F8763019467B68BB
:10159800B3F87430CB1A454981FB0301DB17CB1A2A
:1015A8009BB213449AB27B68A3F874207B6801222B
:1015B80083F885207B6893F8843083F00103DBB2DD
:1015C800002B77D07B680022A3F898207B68002244
:1015D800A3F89A207B680022A3F89C200023FB60D4
:1015E800FB68082B37DC7B68B3F998309AB27968C6
:1015F800FB680C335B000B44B3F904309BB2134413
:101608009BB21AB27B68A3F898207B68B3F99A302A
:101618009AB27968FB6814335B000B44B3F906305F
:101628009BB213449BB21AB27B68A3F89A207B68DA
:10163800B3F99C309AB27B68F968203133F91130DC
:101648009BB213449BB21AB27B68A3F89C20FB6838
:101658000133FB60C4E77B68B3F99830144A82FB16
:1016680003125210DB17D31A1AB27B68A3F898201A
:101678007B68B3F99A300E4A82FB03125210DB17CB
:10168800D31A1AB27B68A3F89A207B68B3F99C3006
:10169800074A82FB03125210DB17D31A1AB27B686F
:1016A800A3F89C20C7E000BF3801002056555555C7
:1016B800398EE3387B6893F88430002B00F0BB80C8
:1016C8007B6893F882307A6814335B001344B3F96B
:1016D80006301A467B68B3F99A30D21A13469B0033
:1016E80013445B005F4A82FB03129210DB17D31A84
:1016F8001AB27B68A3F878207B6893F882301A4680
:101708007B68203233F912301A467B68B3F99C3073
:10171800D21A13469B0013445B00524A82FB031201
:101728009210DB17D31A1AB27B68A3F87C207B6867
:10173800B3F978309AB27B68B3F97C309BB2134422
:101748009BB25B429BB21AB27B68A3F87A207B6893
:10175800B3F9783019467B68B3F97A30DA0F134455
:101768005B101BB2CA1A7B68B3F97C30D90F0B44E3
:101778005B101BB2D31A0221184602F04CFD044636
:101788000D467B68B3F97A301A4613461B01134499
:10179800354A82FB0312D210DB17D21A7B68B3F9E1
:1017A8007C3019460B461B010B442F4981FB030172
:1017B800C910DB175B1A13440221184602F02BFDEF
:1017C80002460B4620462946FEF730FD02460B46E8
:1017D8001046194608F0FAF902460B46FEF726FDB0
:1017E80002460B46104619464FF000021F4BFEF703
:1017F800FDFF02460B4610461946FFF77DF90346E2
:101808001AB27B68A3F880207B68B3F97E309AB25D
:101818007B68B3F9803019467B68B3F97E30CB1A00
:10182800002B00DA03339B109BB213449BB21AB20D
:101838007B68A3F87E207B6893F88230072B08D852
:101848007B6893F882300133DAB27B6883F88220B0
:1018580003E07B68002283F8822000BF1037BD4672
:10186800B0BD00BF310CC330676666660000084033
:1018780080B483B000AF7860044A7B681A607B68E4
:1018880018460C37BD4680BC704700BFF8AB00084F
:1018980080B582B000AF786039607B681846FFF782
:1018A800E7FF094A7B681A607B683A685A603B68B8
:1018B8009B687A6811461846FFF7FBFD7B68184657
:1018C8000837BD4680BD00BFECAB000880B582B0CC
:1018D80000AF78607B685B681846FFF707FE00BFBB
:1018E8000837BD4680BD000080B582B000AF786083
:1018F80039607B681846FFF7BBFF094A7B681A60A6
:101908007B683A685A603B68DB687A681146184613
:10191800FFF7CFFD7B6818460837BD4680BD00BF7E
:10192800E0AB000880B582B000AF78607B685B6888
:101938001846FFF7E9FD00BF0837BD4680BD000027
:1019480080B584B000AFF860B9607A60FB70FB685E
:101958001846FFF7D5FC444AFB681A60FB68BA686A
:101968009A60FB687A68DA60FB68FA781A74FB6830
:101978003A8B5A82FB6800229A82FB681C33002249
:101988001A605A609A60DA601A82FB682E33002265
:101998001A605A609A60DA601A82FB684033002243
:1019A8001A605A609A60DA601A82FB685233202201
:1019B8000021184609F07CF8FB680022A3F8722081
:1019C800FB680022A3F87420FB680022A3F87620A5
:1019D800FB680022A3F87820FB680022A3F87A208D
:1019E800FB680022A3F87C20FB680022A3F87E2075
:1019F800FB680022A3F88020FB68002283F882207D
:101A0800FB68002283F88320FB68002283F8842087
:101A1800FB68002283F88520FB688833F96818463C
:101A2800FFF736FFFB689033F9681846FFF75CFF4D
:101A3800FB680022A3F89820FB680022A3F89A20EC
:101A4800FB680022A3F89C20FB6800221A713B8BDC
:101A5800002B03D0FB681846FFF712FCFB681846FA
:101A68001037BD4680BD00BFD4AB000880B483B03A
:101A780000AF78607B68002283F8842000BF0C37B1
:101A8800BD4680BC704780B483B000AF78607B6887
:101A9800012283F8842000BF0C37BD4680BC704704
:101AA80080B483B000AF78600B46FB70FB787A682F
:101AB80008335B001344DB8818460C37BD4680BCEE
:101AC800704780B483B000AF78600B46FB70FB783A
:101AD800012B0AD17B6893F882307A680C335B005B
:101AE8001344B3F904309BB221E0FB78022B0AD1EE
:101AF8007B6893F882307A6814335B001344B3F937
:101B080006309BB213E0FB78032B09D17B6893F86E
:101B180082301A467B68203233F912309BB206E0D5
:101B2800FB78042B03D17B68B3F87430FFE71846C1
:101B38000C37BD4680BC704780B483B000AF786076
:101B48007B68B3F97E309BB218460C37BD4680BC23
:101B5800704780B483B000AF78607B6893F88530B5
:101B680018460C37BD4680BC704780B483B000AFC0
:101B780078607B68002283F8852000BF0C37BD465B
:101B880080BC704780B582B000AF78607B689B8A64
:101B98005A1C91B27A6891827A68528A93422CBF11
:101BA80001230023DBB2002B0BD07B6800229A8232
:101BB8007B6803F116017B681B7C1A460D4803F00D
:101BC800E7FB7B689B8A002B0CBF01230023DBB259
:101BD800002B0AD07B6893F8843083F00103DBB2D2
:101BE800002B02D0044804F021F800BF0837BD4696
:101BF80080BD00BF080100203801002080B582B0F8
:101C080000AF78607B681B68044A934202D104489D
:101C1800FFF75CFC00BF0837BD4680BD00240140CB
:101C28005003002080B582B000AF78607B681B68E5
:101C3800044A934202D10448FFF748FC00BF083722
:101C4800BD4680BD002801405403002080B485B003
:101C580000AFF860B9601346FB80FB68BA681A6089
:101C6800FB68FA889A80FB6818461437BD4680BC22
:101C7800704780B582B000AF78607B6818687B6871
:101C88009B880122194605F0BEF900BF0837BD46FA
:101C980080BD80B582B000AF78607B6818687B68CB
:101CA8009B880022194605F0AEF900BF0837BD46EB
:101CB80080BD80B582B000AF78607B681A687B68A9
:101CC8009B881946104605F087F90346002B14BF78
:101CD80001230023DBB218460837BD4680BD80B516
:101CE80082B000AF78600B46FB70FB78002B03D006
:101CF8007868FFF7BEFF02E07868FFF7CAFFFB7855
:101D080018460837BD4680BD80B582B000AF786000
:101D18007868FFF7CEFF034618460837BD4680BDF2
:101D280080B483B000AF78607B68054A5A607B68EE
:101D3800044A9A607B6818460C37BD4680BC7047D9
:101D480000401C463313954390B583B000AF7860CC
:101D58000B467B807B881846FEF7B0FF0346194682
:101D68002D48FEF7F5FE03461A467B681A607B8805
:101D78001846FEF7A3FF02467B681B681946104603
:101D8800FFF7A4F803461A467B681A607B681B684D
:101D980022491846FEF7E6FF03461A467B681A6092
:101DA8007B681B68184607F025FD04467B685B685E
:101DB800184607F01FFD034619462046FEF7C8FEE1
:101DC800034617491846FFF781F803461C467B6807
:101DD8009B6819464FF07E50FFF778F8034619467E
:101DE8002046FEF7B7FE034619464FF07E50FFF730
:101DF8006DF803461A467B68DA607B68DB6818462C
:101E0800FFF78CF903461BB29BB2A3F211139BB2E6
:101E180018460C37BD4690BD00F07F4500401C4673
:101E28000000794580B582B000AF78607B681B6898
:101E3800044A934202D10448FFF748FB00BF083721
:101E4800BD4680BD004800405803002080B582B0E0
:101E580000AF78600B467B807B681B68044A93421E
:101E680002D10448FFF732FB00BF0837BD4680BDEA
:101E7800004800405C03002080B584B000AFF860E3
:101E8800B9607A60FB68BA681A60FB687A685A6059
:101E9800FB6808331846FFF745FAFB6800221A76F4
:101EA800FB6800225A76FB6800229A76FB6818467F
:101EB8001037BD4680BD80B582B000AF78607B68C2
:101EC80001225A767B6800229A767B680833184686
:101ED800FFF7B7FA00BF0837BD4680BD80B582B0AE
:101EE80000AF78600A4B00225A630021094805F0C8
:101EF8005BFF7B6800229A767B6800225A767B68B3
:101F080008331846FFF79DFA00BF0837BD4680BD65
:101F1800000800403C02002080B483B000AF786025
:101F28007B681B7E18460C37BD4680BC7047000096
:101F380080B582B000AF78607B685B7E002B42D0B2
:101F48007B689B7E83F00103DBB2002B3BD07B6870
:101F58005B68B3F88830B3F5967F34D300213648F0
:101F680005F068FE354B40F207725A637868FFF750
:101F7800D3FF0346002B0CD07B6808331846FFF7C5
:101F88008DFA034683F00103DBB2002B01D0012355
:101F980000E00023002B06D07B6808334FF47A71E9
:101FA8001846FFF721FA7B6808331846FFF758FAF6
:101FB8000346002B07D07B6808331846FFF741FA21
:101FC8007B6801229A767B689B7E002B23D07B68F6
:101FD8005B68B3F87A30F02B04D9184B4FF4617270
:101FE8005A6318E07B685B68B3F87A30C72B04D86B
:101FF800124B40F207725A630DE07B685B68B3F8D6
:102008007A301A466FF0110303FB02F303F5A3536A
:1020180004330A4A53630421094804F0DDFF0346E8
:10202800002B14BF01230023DAB27B681A7600BFA5
:102038000837BD4680BD00BF3C02002000080040B4
:102048000014014080B582B000AF786039607B68C9
:102058001846FFF70DFC094A7B681A607B683A68E6
:102068005A603B681B697A6811461846FFF721FADF
:102078007B6818460837BD4680BD00BFB0AB000876
:1020880080B582B000AF78607B685B68184600F066
:1020980031F800BF0837BD4680BD000080B582B06A
:1020A80000AF786039607B681846FFF7E1FB094AA2
:1020B8007B681A607B683A685A603B685B697A6833
:1020C80011461846FFF7F5F97B6818460837BD46EC
:1020D80080BD00BFA4AB000880B582B000AF7860B7
:1020E8007B685B68184600F079F800BF0837BD4682
:1020F80080BD000080B582B000AF78607B68D3F8FF
:10210800C4207B6893F8BF30591CC8B2796881F83D
:10211800BF0079684C335B000B445B8803FB02F318
:102128002B4A2C49A1FB03139B0953637B68D3F803
:10213800C4207B6893F8C030591CC8B2796881F80C
:10214800C00079684C335B000B445B8803FB02F3E7
:102158001F4A2049A1FB03139B0993637B68D3F8AB
:10216800C4207B6893F8C130591CC8B2796881F8DB
:10217800C10079684C335B000B445B8803FB02F3B6
:10218800134A1449A1FB03139B09D3637B6893F893
:10219800BF30112B03D97B68002283F8BF207B68EE
:1021A80093F8C030112B03D97B68002283F8C02034
:1021B8007B6893F8C130112B03D97B68002283F820
:1021C800C120054803F032FD00BF0837BD4680BD79
:1021D800002C0140D34D62103801002080B483B038
:1021E80000AF786000BF0C37BD4680BC7047000068
:1021F800F0B585B000AFF860B9607A603B60FB6805
:1022080000221A70FB68BA685A60FB687A689A609C
:10221800FB683A68DA60FB68BA6A1A61FB68FA6AAE
:102228005A61FB683A6B9A61FB687A6BDA61FB6802
:10223800BA6B1A62FB68FA6B5A62FB683A6C9A626C
:10224800FB687A6CDA62FB68BA6C1A63FB68FA6C32
:102258005A63FB6838331846FFF764F8FB6848335D
:102268001846FFF75FF8FB6858331846FFF75AF827
:10227800FB6868331846FFF755F8FB68783318464B
:10228800FFF750F8FB6888331846FFF74BF8FB68F0
:10229800002283F89820FB684B4A144603F19A0CF5
:1022A80004F1200E654626460FCE28606960AA60B4
:1022B800EB6010340CF1100C7445F3D163462246E0
:1022C80010681860FB68002283F8BE20FB680022B3
:1022D80083F8BF20FB68062283F8C020FB680C2225
:1022E80083F8C120FB680522C3F8C420FB6840F2CC
:1022F8007E42A3F8C820FB686422A3F8CA20FB68C2
:102308001922A3F8CC20FB684FF47A62A3F8CE20F8
:10231800FB680022A3F8D020FB680222A3F8D22091
:10232800FB680022A3F8D420FB68002283F8D6209B
:10233800FB68002283F8D720FB680022A3F8D82086
:10234800FB68192283F8DA20FB68002283F8DB2077
:10235800FB68002283F8DC20FB68002283F8DD207C
:10236800FB68002283F8DE20FB684FF4B272A3F802
:10237800E020FB68012283F8E220FB68134AC3F8D7
:10238800E420FB68E833F9681846FFF75BFEFB6852
:10239800F033F9681846FFF781FEFB6800225A659A
:1023A800FB6800225A66FB6800225A67FB68002215
:1023B800C3F88420FB680022C3F89420FB68184601
:1023C8001437BD46F0BD00BF68AB0008A086010009
:1023D80090B583B000AF78607B68DB681846FFF77C
:1023E800A7FD7B689B68184601F030FF7B68D3F82F
:1023F800C4207B689B6812B2A3F87E207B681A6BA6
:102408007B689C681046FFF77FFC03461A4694F8E1
:10241800923062F3041384F892307B689B687A6880
:10242800B2F8D420A3F890207B689B6A1846FFF77F
:102438006BFC034619467B689A6881F00103D9B2A0
:1024480092F8923061F3861382F892307B689A682A
:102458007B6893F8D61092F8923061F3451382F8AE
:1024680092307B689B68B3F87A307A689268122B4E
:1024780094BF01230023D9B292F8933061F300038B
:1024880082F893307B689B68B3F888307A689268E2
:1024980040F251318B428CBF01230023D9B292F80C
:1024A800923061F3C30382F892307B689B687A6844
:1024B800B2F8E020A3F88C207B689B687A68B2F8B1
:1024C800D820A3F88E207B689B687A68B2F8C82069
:1024D800A3F87A20A04BDA6A7B689B6892B2A3F8CB
:1024E8008A207B689B68B3F88830B3F5967F04D25E
:1024F8007B68012283F8D6200AE07B689B68B3F8E2
:102508008830B3F5C87F03D97B68002283F8D620CA
:102518007B689B6893F89230C3F3C013DBB21A460A
:102528007B689B68B3F980303B2BCCBF0123002329
:10253800DBB21A437B689B68002A14BF0122002281
:10254800D1B293F8922061F3C71283F8922093F8DE
:102558009230C3F3C013DBB2002B10D07B689B68AA
:10256800B3F980307A689268312BCCBF01230023FD
:10257800D9B292F8923061F3C71382F892307B682F
:10258800DB681846FFF7C8FC0346002B06D07B68BB
:1025980093F8E230002B01D0012300E00023002B48
:1025A80002D0786800F05CFE7B681B78002B04D0B2
:1025B800012B00F0DE8100F068BD7B685B6B18467C
:1025C800FFF7A2FB03461A467B6883F8D7207B688F
:1025D80058331846FEF744FF0346002B04D07B68A7
:1025E80058331846FEF72DFF7B6893F8D730012B38
:1025F80056D17B681B6A00211846FFF770FB7B6881
:102608009B68B3F88830B3F5C87F3FD97B689B686F
:10261800B3F88830B3F5077F38D27B689B68B3F886
:1026280088304E4AA2FB03231B099BB21A4640F28C
:10263800DE3303FB02F34A4A82FB03125211DB1713
:10264800D31A732202FB03F3464A82FB0312521188
:10265800DB17D31A9AB27B68A3F8D8207B68D3F823
:10266800E4207B68B3F8D83019460B469B000B442E
:10267800B2FBF3F39BB21A4692001A445200134479
:102688005B009AB27B68A3F8E02078E07B68DC22E4
:10269800A3F8D8207B684FF4FA62A3F8E0206EE034
:1026A8007B6893F8D730002B69D17B681B6A0121BE
:1026B8001846FFF714FB7B689B68B3F88830B3F5BE
:1026C800C87F53D97B689B68B3F88830B3F5077F18
:1026D8004CD27B689B68B3F88830204AA2FB03235E
:1026E8001B099BB21A4640F2DE3303FB02F31C4A75
:1026F80082FB03125211DB17D31A732202FB03F376
:10270800184A82FB03125211DB17D31A9AB27B685C
:10271800A3F8D8207B68D3F8E4307A68B2F8D820D8
:10272800B3FBF2F21346DB009B1ADB009B1A5B0833
:102738000D4AA2FB03235B099AB27B68A3F8E02049
:102748007B68B3F8E030B3F5B27F18D87B6840F205
:102758006512A3F8E02012E000040040CDCCCCCCF8
:102768001F6B193A1F85EB51EBA00EEA7B68DC2240
:10277800A3F8D8207B684FF4B272A3F8E0207B68F6
:102788001B6B1846FFF7C0FA0346002B60D07B6826
:1027980048331846FEF782FE034683F00103DBB296
:1027A800002B55D07B6858331846FEF777FE034652
:1027B80083F00103DBB2002B4AD07B689B6893F857
:1027C8009230C3F3C013DBB283F00103DBB2002BFA
:1027D8003ED07B689B6893F89230C3F38013DBB2DA
:1027E80083F00103DBB2002B32D07B689B6893F83F
:1027F8009230C3F3C003DBB283F00103DBB2002BDA
:1028080026D07B689B6893F89230C3F34013DBB201
:1028180083F00103DBB2002B1AD07B689B6893F826
:102828009330C3F30003DBB283F00103DBB2002B68
:102838000ED07B6893F8DB30022B09D87B6893F8BD
:10284800D63083F00103DBB2002B01D0012200E077
:1028580000227B6883F8E2207B6848331846FEF73D
:10286800FFFD0346002B04D07B6848331846FEF76B
:10287800E8FD7B6893F8DB30022B0CD97B68883342
:102888001846FEF70BFE034683F00103DBB2002B6C
:1028980001D0012300E00023002B06D07B68883399
:1028A8004EF660211846FEF79FFD7B6893F8DB30F3
:1028B800022B09D97B6888331846FEF7D1FD0346F9
:1028C800002B01D0012300E00023002B08D07B68F7
:1028D80088331846FEF7B5FD7B68002283F8DB20B5
:1028E8007B6893F8E230002B18D07B684833184691
:1028F800FEF7A7FD7B68DB681846FFF7DCFA7B6804
:10290800DB681846FFF708FB0346002B09D07868F8
:1029180000F0C2FB7B6801221A7002E0786800F0C0
:102928004BFC7B681B6B1846FFF7EEF9034683F0F8
:102938000103DBB2002B00F0A5837B6848331846FF
:10294800FEF77FFD7B6800225A657B68883318464E
:10295800FEF777FD7B680022C3F894207B6800228D
:1029680083F8DB207B689B6900211846FFF7B7F9DD
:1029780088E37B6893F8D730012B40F055817B685A
:102988009B68B3F88830B3F5967F3FD97B689B681E
:10299800B3F88830B3F5077F38D27B689B68B3F803
:1029A80088309C4AA2FB03231B099BB21A4640F2BB
:1029B800DE3303FB02F3984A82FB03125211DB1742
:1029C800D31A732202FB03F3944A82FB03125211B7
:1029D800DB17D31A9AB27B68A3F8D8207B68D3F8A0
:1029E800E4207B68B3F8D83019460B469B000B44AB
:1029F800B2FBF3F39BB21A4692001A4452001344F6
:102A08005B009AB27B68A3F8E02008E07B68DC22D0
:102A1800A3F8D8207B684FF4FA62A3F8E0207B681B
:102A28009B68B3F888307B4AA2FB03231B099BB23F
:102A38001A467B68D3F8C43003FB02F3764AA2FB3C
:102A480003235A091346DB009B1A1B011A46734BD2
:102A5800A3FB02235B099AB27B68A3F8D4207B68A6
:102A680093F8DA3019467B68B3F8C83018467B68A3
:102A7800D3F8E4206A4BDB6AB2FBF3F303FB00F301
:102A88007A689268B2F88820B3FBF2F39B00654A33
:102A9800A2FB03235B08CA187B68C3F8C420604BF9
:102AA800DB6A7A68B2F8E0200A32934294BF0123C5
:102AB8000023DBB2002B09D07B681B6A0121184672
:102AC800FFF70DF97B68002283F8DB207B68B3F8F9
:102AD800C83042F6E062934204D97B6842F6E0626D
:102AE800A3F8C8204E4BDB6A7A68B2F8E02093421C
:102AF80094BF01230023DBB2002B41D07B68B3F8DD
:102B0800D4207B68B3F8D8309A4208D97B68B3F8E8
:102B1800C830013B9AB27B68A3F8C82014E07B68F0
:102B28005B681846FFF708F80346772B94BF012324
:102B38000023DBB2002B07D07B68B3F8C830013321
:102B48009AB27B68A3F8C8207B685B681846FEF7D2
:102B5800F3FF0346A02B8CBF01230023DBB2002B1D
:102B68000ED07B68B3F8C83041F28832934207D957
:102B78007B68B3F8C830043B9AB27B68A3F8C820D6
:102B88007B685B681846FEF7D7FF0346222B94BF85
:102B980001230023DBB2002B0ED07B68B3F8C830CA
:102BA80042F6DF62934207D87B68B3F8C830013336
:102BB8009AB27B68A3F8C820194BDB6A7A68B2F826
:102BC800E020053293428CBF01230023DBB2002BA7
:102BD80000F06E817B685B681846FEF7ADFF034620
:102BE8004B2B8CBF01230023DBB2002B00F060814C
:102BF8007B68B3F8C83041F26F72934240F2588153
:102C08007B68B3F8C830013B9AB27B68A3F8C82048
:102C18004EE100BFCDCCCCCC1F6B193A1F85EB51D0
:102C280000040040ABAAAAAA7B6893F8D730002B0F
:102C380040F03E817B689B68B3F88830B3F5967F97
:102C480049D97B689B68B3F88830B3F5077F42D2CF
:102C58007B689B68B3F88830B44AA2FB03231B093E
:102C68009BB21A4640F2DE3303FB02F3B04A82FB02
:102C780003125211DB17D31A732202FB03F3AD4A76
:102C880082FB03125211DB17D31A9AB27B68A3F89E
:102C9800D8207B68D3F8E4307A68B2F8D820B3FB40
:102CA800F2F21346DB009B1ADB009B1A5B08A24A70
:102CB800A2FB03235B099AB27B68A3F8E0207B6838
:102CC800B3F8E030B3F5B27F0ED87B6840F26512F6
:102CD800A3F8E02008E07B684FF4B272A3F8E02084
:102CE8007B68DC22A3F8D8207B689B68B3F888301F
:102CF8008E4AA2FB03231B099BB21A467B68D3F8B2
:102D0800C43003FB02F38A4AA2FB03235A09134681
:102D1800DB009B1A1B011A46864BA3FB02235B09A7
:102D28009AB27B68A3F8D4207B6893F8DA30194606
:102D38007B68B3F8C83018467B68D3F8E4207F4B2B
:102D4800DB6AB2FBF3F303FB00F37A689268B2F82C
:102D58008820B3FBF2F3CA187B68C3F8C420774B0A
:102D6800DB6A7A68B2F8E0200A32934294BF012302
:102D78000023DBB2002B09D07B681B6A00211846B0
:102D8800FEF7ADFF7B68002283F8DB207B68B3F891
:102D9800C83040F69802934204D97B6840F69802FE
:102DA800A3F8C820654BDB6A7A68B2F8E020934242
:102DB80094BF01230023DBB2002B34D07B68B3F827
:102DC800D4207B68B3F8D8309A4208D97B68B3F826
:102DD800C830013B9AB27B68A3F8C82007E07B683B
:102DE800B3F8C83001339AB27B68A3F8C8207B686F
:102DF8005B681846FEF7A0FE0346A02B8CBF012394
:102E08000023DBB2002B0ED07B68B3F8C83040F249
:102E1800E242934207D97B68B3F8C830043B9AB2C0
:102E28007B68A3F8C8207B685B681846FEF784FEB9
:102E38000346222B94BF01230023DBB2002B0ED0C4
:102E48007B68B3F8C83040F69702934207D87B688E
:102E5800B3F8C83001339AB27B68A3F8C820374B5F
:102E6800DB6A7A68B2F8E020053293428CBF01230E
:102E78000023DBB2002B1BD07B685B681846FEF78B
:102E88005BFE03466E2B8CBF01230023DBB2002BB5
:102E98000ED07B68B3F8C83040F2E242934207D9BB
:102EA8007B68B3F8C830013B9AB27B68A3F8C820A6
:102EB8007B68D3F8C43040F2DD32934204D97B6892
:102EC80040F2DE32C3F8C4207B6838331846FEF778
:102ED800C7FA0346002B00F0D7807B6838331846C2
:102EE800FEF7AFFA7B6803F138027B68B3F8D2309B
:102EF80019461046FEF778FA7B6893F8D730012B0D
:102F08004AD17B6868331846FEF7C8FA034683F04F
:102F18000103DBB2002B13D0084BDB6A7A68B2F8E6
:102F2800E02093420CD001230BE000BFCDCCCCCCE9
:102F38001F6B193A1F85EB51EBA00EEA0004004005
:102F48000023002B00F0A080524BDB6A41F2707224
:102F580093428CBF01230023DBB2002B05D04D4BDD
:102F6800DB6A4C4A0A3BD3628EE04A4BDB6A7A68DA
:102F7800B2F8E02093428CBF01230023DBB2002B80
:102F880005D0444BDB6A434A043BD3627CE0414BA7
:102F9800DA6A0132DA6277E07B6893F8D730002B7F
:102FA80072D13C4BDB6A7A68B2F8E020934214BFD6
:102FB80001230023DBB2002B66D0364BDB6A7A682C
:102FC800B2F8E02093428CBF01230023DBB2002B30
:102FD80025D0304BDB6AB3F51C7F8CBF012300235F
:102FE800DBB2002B16D02B4BDB6A40F2DC5293424B
:102FF8008CBF01230023DBB2002B05D0254BDB6AF5
:10300800244A143BD3620EE0224BDB6A214A023B7E
:10301800D36208E01F4BDA6A013ADA6203E01D4B1B
:10302800DA6A0132DA621B4BDB6AB3F51C7F8CBFAC
:1030380001230023DBB2002B04D07B680222A3F813
:10304800D22021E0134BDB6A40F22A2293428CBF44
:1030580001230023DBB2002B04D07B680822A3F8ED
:10306800D22011E00B4BDB6A40F22922934294BF35
:1030780001230023DBB2002B06D07B680822A3F8CB
:10308800D22001E000BF00E000BF00BF0C37BD4602
:1030980090BD00BF0004004080B582B000AF7860EA
:1030A8007B6893F8D730012B11D17B683C22A3F8B9
:1030B800CA207B6841F27072A3F8C8207B6803229B
:1030C800A3F8D2207B68192283F8DA2015E07B6800
:1030D80093F8D730002B10D17B680A22A3F8CA20B6
:1030E8007B6840F27E42A3F8C8207B680222A3F8DE
:1030F800D2207B68192283F8DA207B680522C3F87E
:10310800C4207B68D3F8E4307A68B2F8CA20B3FBED
:10311800F2F213469B0013445B00244A013BD3623E
:103128000021234804F086FD0021214805F038FBE2
:1031380004211F4804F07EFD04211D4805F030FBE2
:1031480008211B4804F076FD0821194805F028FBE2
:10315800184804F043FC7B6803F138027B68B3F835
:10316800D23019461046FEF73FF97B685B6818466F
:10317800FEF789FC7B689A6892F892306FF3000337
:1031880082F892307B689A6892F892306FF3410324
:1031980082F892307B689A6892F892306FF38203D3
:1031A80082F8923000BF0837BD4680BD0004004059
:1031B800AC010020F401002080B582B000AF786037
:1031C800244B00225A63234B00225A63214B0022CE
:1031D8005A630021204804F0E7FD00211E4805F04D
:1031E8008BFB04211C4804F0DFFD04211A4805F07C
:1031F80083FB0821184804F0D7FD0821164805F07C
:103208007BFB164804F04AFC7B6838331846FEF707
:1032180018F97B68DB681846FEF760FE7B680022B9
:1032280083F898207B68002283F8BF207B680622F9
:1032380083F8C0207B680C2283F8C1207B680022B9
:103248001A707B685B681846FEF710FC00BF0837E9
:10325800BD4680BD002C0140AC010020F4010020D7
:1032680080B582B000AF78607B681B6B1846FEF7AC
:103278004BFD034683F00103DBB2002B3FD17B6893
:1032880078331846FEF7ECF80346002B37D17B68F5
:10329800DB681846FEF740FE034683F00103DBB205
:1032A800002B2CD17B689B6893F89230C3F3C01332
:1032B800DBB2002B23D17B689B6893F89230C3F371
:1032C8008013DBB2002B1AD17B689B6893F892308D
:1032D800C3F34013DBB2002B11D17B689B6893F8D2
:1032E8009230C3F3C003DBB2002B08D17B689B6824
:1032F80093F89330C3F30003DBB2002B01D0012312
:1033080000E00023002B00F087807B681B6B1846C9
:10331800FEF7FAFC034683F00103DBB2002B0CD066
:103328007B6878331846FEF7B9F8034683F0010343
:10333800DBB2002B01D0012300E00023002B06D0D4
:103348007B6878334FF47A711846FEF74DF87B683E
:1033580078331846FEF784F80346002B0CD07B68B8
:103368001B6B1846FEF7D0FC034683F00103DBB263
:10337800002B01D0012300E00023002B07D0786840
:10338800FFF71AFF7B6878331846FEF75AF87B6810
:10339800DB681846FEF7C0FD034683F00103DBB285
:1033A800002B2CD17B689B6893F89230C3F3C01331
:1033B800DBB2002B23D17B689B6893F89230C3F370
:1033C8008013DBB2002B1AD17B689B6893F892308C
:1033D800C3F34013DBB2002B11D17B689B6893F8D1
:1033E8009230C3F3C003DBB2002B08D17B689B6823
:1033F80093F89330C3F30003DBB2002B01D0012311
:1034080000E00023002B07D07868FFF7D5FE7B6823
:1034180078331846FEF715F87B685B680121184673
:10342800FEF74FFB03461A467B685B68B3F9983092
:10343800D31A002BB8BF5B42B3F5B27F15DD7B68AA
:103448009B6893F89230C3F30003DBB283F0010367
:10345800DBB2002B09D07B685B681846FEF779FB66
:103468000346002B01D0012300E00023002B2DD0C0
:103478007B6893F8DC300133DAB27B6883F8DC20B0
:103488007B6893F8DC30042B24D97B6893F8DB3015
:103498000133DAB27B6883F8DB207B689B69012102
:1034A8001846FEF71CFC7868FFF786FE7B689A686A
:1034B80092F8923043F0010382F892307B684833E7
:1034C80040F6AC511846FDF78FFF03E07B680022F9
:1034D80083F8DC207B685B6802211846FEF7F1FA66
:1034E80003461A467B685B68B3F99A30D31A002BF7
:1034F800B8BF5B42624A82FB03129210DB17D31AF1
:103508007A68B2F8CC20934215DD7B689B6893F803
:103518009230C3F34003DBB283F00103DBB2002B2C
:1035280009D07B685B681846FEF713FB0346002B3F
:1035380001D0012300E00023002B2DD07B6893F8F5
:10354800DD300133DAB27B6883F8DD207B6893F8DD
:10355800DD30042B24D97B6893F8DB300133DAB2F1
:103568007B6883F8DB207B689B6901211846FEF79E
:10357800B6FB7868FFF720FE7B689A6892F892306D
:1035880043F0020382F892307B68483340F6AC512E
:103598001846FDF729FF03E07B68002283F8DD2049
:1035A8007B685B6803211846FEF78BFA03461A46C8
:1035B8007B685B68B3F99C30D31A002BB8BF5B42B9
:1035C8002F4A82FB03129210DB17D31A7A68B2F8DB
:1035D800CC20934215DD7B689B6893F89230C3F347
:1035E8008003DBB283F00103DBB2002B09D07B68D8
:1035F8005B681846FEF7ADFA0346002B01D001239D
:1036080000E00023002B2DD07B6893F8DE300133D7
:10361800DAB27B6883F8DE207B6893F8DE30042B0F
:1036280024D97B6893F8DB300133DAB27B6883F8FE
:10363800DB207B689B6901211846FEF750FB786800
:10364800FFF7BAFD7B689A6892F8923043F004035A
:1036580082F892307B68483340F6AC511846FDF743
:10366800C3FE03E07B68002283F8DE207B685B688A
:103678001846FEF77AFA00BF0837BD4680BD00BF7E
:10368800310CC33080B582B000AF78607B681B68AE
:10369800044A934202D10448FDF718FF00BF0837D7
:1036A800BD4680BD000400406003002080B582B0A4
:1036B80000AF78607B681B68044A934202D10448D3
:1036C800FDF704FF00BF0837BD4680BD0028014054
:1036D8006403002090B5ADF53F7D0AAF01F01EFDF3
:1036E80000F0C6F800F03CFC00F00CFC00F054FAC6
:1036F80000F0DAFB00F070FB00F028F900F096F912
:1037080000F004FB07F53273012250491846FEF712
:103718009DFA07F5307320224C491846FEF796FAB1
:1037280007F52E734FF4007249491846FEF78EFAD2
:1037380007F52C73102245491846FEF787FA07F556
:103748002A734FF4004243491846FEF77FFA07F5FB
:1037580028734FF480523E491846FEF777FA07F56A
:103768002673802239491846FEF770FA07F5247344
:103778004FF4807235491846FEF768FA07F5227348
:103788004FF4007231491846FEF760FA07F52073C6
:10379800042230491846FEF759FA07F5F0706423F9
:1037A800009303232C4A2D49FEF7CAF807F52E7219
:1037B80007F5E0731146184600F07EFF07F5D87349
:1037C8001846FEF7ADFA07F5E07307F5D87207F566
:1037D800F07107F58C70224C0194224C009400F093
:1037E8007DFF07F58C7207F5F07107F1FC031846A9
:1037F800FEF742FB07F1FC0407F58C7207F5F07140
:10380800381D07F52073099307F52273089307F508
:103818002473079307F52673069307F52873059312
:1038280007F52A73049307F53073039307F532738A
:1038380002930D4B01930D4B00932346FEF7D8FCE2
:103848003B1D1846FEF7C4FDFAE700BF000C014017
:1038580000100140000801405403002050030020DC
:103868005C0300205803002064030020600300204C
:1038780080B596B000AF07F1300328220021184622
:1038880007F016F907F11C0300221A605A609A60C3
:10389800DA601A613B1D00221A605A609A60DA6089
:1038A8001A615A6101233B634FF480337B634FF401
:1038B8000033BB6301233B640223FB644FF4803372
:1038C8003B654FF4E0137B6507F13003184603F0BE
:1038D800B3FB0346002B14BF01230023DBB2002BEC
:1038E80001D000F0E7FB0F23FB6102233B620023BA
:1038F8007B624FF48063BB620023FB6207F11C0309
:103908000221184603F018FE0346002B14BF0123BA
:103918000023DBB2002B01D000F0CCFB02237B603C
:103928004FF40043FB603B1D184603F0A1FF03461C
:10393800002B14BF01230023DBB2002B01D000F0C1
:10394800B9FB00BF5837BD4680BD000080B584B0C4
:1039580000AF3B1D00221A605A609A60314B324A10
:103968001A60304B4FF480729A602E4B00221A7303
:103978002C4B00221A752B4B4FF46022DA61294B2D
:1039880000225A60274B03221A61264801F016FCD0
:103998000346002B14BF01230023DBB2002B01D008
:1039A80000F088FB00237B600123BB600223FB60DF
:1039B8003B1D19461B4801F0E9FE0346002B14BFC6
:1039C80001230023DBB2002B01D000F073FB01239D
:1039D8007B600223BB603B1D1946124801F0D6FEEE
:1039E8000346002B14BF01230023DBB2002B01D0B8
:1039F80000F060FB03237B600323BB603B1D19467B
:103A0800084801F0C3FE0346002B14BF012300231E
:103A1800DBB2002B01D000F04DFB00BF1037BD46D4
:103A280080BD00BF080100200024014080B58EB091
:103A380000AF07F1200300221A605A609A60DA602A
:103A48001A615A613B1D00221A605A609A60DA6056
:103A58001A615A619A614E4B4E4A1A604C4B4FF4A8
:103A680080729A604A4B00221A73494B00221A75D9
:103A7800474B4FF46022DA61454B00225A60444BB1
:103A880001221A61424801F099FB0346002B14BF3A
:103A980001230023DBB2002B01D000F00BFB4FF415
:103AA80080033B6240F68C23FB6200233B630123C7
:103AB80087F8283007F120031946354801F05EFFE2
:103AC8000346002B14BF01230023DBB2002B01D0D7
:103AD80000F0F0FA04237B600123BB6004237B61C0
:103AE8000323FB604FF4E043FB6100237B76002354
:103AF8003B7600233B613B1D1946254802F09CF9A3
:103B08000346002B14BF01230023DBB2002B01D096
:103B180000F0D0FA05237B600223BB603B1D1946E9
:103B28001B4802F089F90346002B14BF0123002328
:103B3800DBB2002B01D000F0BDFA06237B60032323
:103B4800BB603B1D1946124802F076F90346002B6C
:103B580014BF01230023DBB2002B01D000F0AAFA26
:103B680007237B600423BB603B1D1946084802F00D
:103B780063F90346002B14BF01230023DBB2002B9B
:103B880001D000F097FA00BF3837BD4680BD00BFAE
:103B9800380100200028014080B592B000AF07F13D
:103BA800400300221A605A6007F1240300221A60B9
:103BB8005A609A60DA601A615A619A613B1D202244
:103BC8000021184606F074FF4E4B4F4A1A604D4BC1
:103BD80000225A604B4B20229A604A4B41F61F4202
:103BE800DA60484B00221A61464B00225A61454B65
:103BF80000229A61434803F0CEFF0346002B14BF0E
:103C080001230023DBB2002B01D000F053FA00237C
:103C18003B6400237B6407F140031946394804F0EC
:103C2800C9FE0346002B14BF01230023DBB2002B7F
:103C380001D000F03FFA60237B620023BB620023BF
:103C4800FB6200233B6300237B630023BB630023E9
:103C5800FB6307F12403002219462A4804F074FA8A
:103C68000346002B14BF01230023DBB2002B01D035
:103C780000F020FA07F1240304221946214804F031
:103C880063FA0346002B14BF01230023DBB2002B89
:103C980001D000F00FFA07F1240308221946194849
:103CA80004F052FA0346002B14BF01230023DBB2B1
:103CB800002B01D000F0FEF900237B600023BB60DD
:103CC8000023FB6073233B6100237B614FF40053A7
:103CD800BB6100233B623B1D19460A4804F0D6FE2F
:103CE8000346002B14BF01230023DBB2002B01D0B5
:103CF80000F0E0F9034801F02FF800BF4837BD464F
:103D080080BD00BFAC010020002C014080B58AB006
:103D180000AF07F1200300221A605A603B1D002201
:103D28001A605A609A60DA601A615A619A61284B7F
:103D3800284A1A60264B27225A60254B00229A608F
:103D4800234B4CF24F32DA60214B00221A61204B90
:103D580080229A611E4803F0CFFE0346002B14BF51
:103D680001230023DBB2002B01D000F0A3F90023CC
:103D78003B6200237B6207F120031946144804F0D4
:103D880019FE0346002B14BF01230023DBB2002BCE
:103D980001D000F08FF900237B600023BB60002373
:103DA800FB6000237B613B1D00221946084804F094
:103DB80073F90346002B14BF01230023DBB2002B49
:103DC80001D000F077F900BF2837BD4680BD00BF9D
:103DD800F40100200004004080B58AB000AF07F16C
:103DE800200300221A605A603B1D00221A605A60A4
:103DF8009A60DA601A615A619A61294B294A1A60F5
:103E0800274B00225A60264B00229A60244B4FF41D
:103E1800E162DA60224B00221A61214B00229A618A
:103E28001F4803F0B8FE0346002B14BF01230023EC
:103E3800DBB2002B01D000F03DF900233B620023E8
:103E48007B6207F120031946154804F0B3FD0346C9
:103E5800002B14BF01230023DBB2002B01D000F09C
:103E680029F960237B600023BB600023FB600023EB
:103E78007B613B1D00221946094804F065F9034699
:103E8800002B14BF01230023DBB2002B01D000F06C
:103E980011F9034800F060FF00BF2837BD4680BD18
:103EA8003C0200200008004080B500AF134B144AC4
:103EB8001A60124B4FF4E1325A60104B00229A609C
:103EC8000E4B0022DA600D4B00221A610B4B0C22BC
:103ED8005A610A4B00229A61084B0022DA610748AE
:103EE80004F05BFE0346002B14BF01230023DBB262
:103EF800002B01D000F0DEF800BF80BD8402002056
:103F08000048004080B582B000AF144B5B69134A8B
:103F180043F001035361114B5B6903F001037B60BC
:103F28007B68002200210B2002F009FA0B2002F026
:103F380022FA002200210C2002F001FA0C2002F0E3
:103F48001AFA002200210D2002F0F9F90D2002F0E2
:103F580012FA00BF0837BD4680BD00BF00100240FE
:103F680080B588B000AF07F1100300221A605A60CC
:103F78009A60DA604A4B9B69494A43F0200393618F
:103F8800474B9B6903F02003FB60FB68444B9B692C
:103F9800434A43F010039361414B9B6903F01003BC
:103FA800BB60BB683E4B9B693D4A43F00403936189
:103FB8003B4B9B6903F004037B607B68384B9B6930
:103FC800374A43F008039361354B9B6903F00803B4
:103FD8003B603B68002241F20121324803F013F8AC
:103FE80000224FF40041304803F00DF80022302140
:103FF8002E4803F008F841F201233B6101237B615D
:104008000023BB610223FB6107F110031946254811
:1040180002F04EFE04233B6100237B610023BB6159
:1040280007F110031946204802F042FE4FF40043FE
:104038003B6101237B610023BB610223FB6107F124
:1040480010031946184802F033FE04233B6100238D
:104058007B610023BB6107F110031946144802F085
:1040680027FE30233B6101237B610023BB610223D0
:10407800FB6107F1100319460C4802F019FE4FF4D2
:1040880060733B6100237B610023BB6107F1100370
:104098001946064802F00CFE00BF2037BD4680BD19
:1040A800001002400010014000080140000C0140CF
:1040B8000014014080B400AF72B600BFFEE780B4C0
:1040C80083B000AF786039607B681B6B0B2B08D816
:1040D8007B681B6B591C7A6811637A68396842F8E7
:1040E800231000BF0C37BD4680BC704780B485B034
:1040F80000AF786039600023FB730023BB73BA7B81
:104108007B681B6B9A420DD2BA7B7B6853F82230CE
:104118003A689A4202D1BB7BFB7303E0BB7B013355
:10412800BB73ECE7FB7B7B737A7B7B681B6B9A42E8
:104138000CD27B7B591C7A7B7B6853F821107B68F7
:1041480043F822107B7B01337B73EDE77B681B6BA5
:104158005A1E7B681A6300BF1437BD4680BC70477F
:1041680080B483B000AF78607B681B6BDBB2184605
:104178000C37BD4680BC704780B483B000AF786010
:1041880039607B683A6853F8223018460C37BD46C8
:1041980080BC704780B483B000AF78607B681846F5
:1041A8000C37BD4680BC704780B582B000AF7860E0
:1041B80003F00EFB0346064AA2FB03239B09013BBF
:1041C800184602F0E6F800BF0837BD4680BD00BFBC
:1041D800D34D621080B584B000AFF860B9607A60E2
:1041E800FB681B68591CFA681160BA68B3FBF2F2E5
:1041F800B96801FB02F29B1A002B0CBF01230023B4
:10420800DBB2002B03D03B1D1846FDF7CFF800BFEB
:104218001037BD4680BDB0B582B000AF7860396058
:104228007868FCF74FF904460D463868FCF74AF9F8
:1042380002460B462046294605F01CFC02460B4662
:10424800104619460837BD46B0BD000090B585B088
:1042580000AF78607B685C687B681B680221184641
:10426800FDF71EFC034619462046FDF76DFD034683
:104278001AB27B68A3F880207B681B680121184666
:10428800FDF70EFC03461846FCF718FD0346A54942
:104298001846FCF767FD0346A3491846FCF762FD7C
:1042A8000346A2491846FCF75DFD03464FF08041DE
:1042B8001846FCF70BFE03461846FCF72FFF03468B
:1042C8001AB27B68A3F860207B68B3F87C207B680F
:1042D800B3F9603019467B68B3F87C30CB1AD90F34
:1042E8000B445B109BB213449AB27B68A3F87C2002
:1042F8007B681B6801211846FDF7E3FB03461A4655
:104308007B681B68B3F99830D31A002BB8BF5B429F
:10431800642202FB03F3864A82FB03129210DB1726
:10432800D31A9AB27B68A3F882207B681B68184668
:10433800FDF702FC03461A467B68A3F884207B68D5
:104348001B6804211846FDF7BCFB03461A464FF4C8
:10435800AF7303FB02F3774A82FB03121A44D212AB
:10436800DB17D21A13465B0013441A01D31A724A98
:1043780082FB03129210DB17D31A1AB27B68A3F8D8
:104388005E207B684C331846FDF76AF80346002B1D
:1043980065D07B684C331846FDF753F87B684C337F
:1043A8001846FDF76FF87B68B3F95E207B6893F8D1
:1043B800283091B27A6808335B0013440A469A8021
:1043C8007B6893F82830082B08D87B6893F8283046
:1043D8000133DAB27B6883F8282003E07B68002287
:1043E80083F828207B6800225A850023FB60FB683D
:1043F800092B12DC7B68B3F92A309AB27968FB681A
:1044080008335B000B449B8813449BB21AB27B6849
:104418005A85FB680133FB60E9E77B68B3F92A300A
:10442800454A82FB03129210DB17D31A1AB27B6833
:104438005A857B68B3F888207B68B3F92A30194617
:104448007B68B3F88830CB1A3C4981FB0301DB1742
:10445800CB1A9BB213449AB27B68A3F888207B6876
:10446800B3F87C30B3F5B47F1CD37B683C33184673
:10447800FDF714F80346002B0CD07B683C33184634
:10448800FCF7EEFF0346002B11D07B68012283F86E
:1044980064200CE07B683C334FF47A711846FCF7D3
:1044A800A3FF04E07B683C331846FCF7CAFF7B682F
:1044B800B3F87C30B3F58C7F03D27B68002283F895
:1044C80064207B682C331846FCF7A1FF03461A4684
:1044D8007B6893F863305340DBB2002B14BF012391
:1044E8000023DAB27B6883F863207B6893F8623034
:1044F800002B05D17B6893F86330002B00F0D8803F
:104508007B689B6804330021184600F059F903467C
:10451800042B04D07B6893F86330002B10D0012360
:104528000FE000BF6740533A0000C8420000404017
:10453800310CC3308100088067666666ABAAAA2A78
:104548000023002B70D07B689B680433184600F06A
:1045580046F97B689B681A1D7B68B3F87A30194660
:10456800104600F04BF902467B68B3F87C301946D8
:10457800104600F043F902467B68B3F97E301946CD
:10458800104600F059F902467B68B3F980301946A5
:10459800104600F051F902467B68B3F8823019469C
:1045A800104600F02BF902467B68B3F884301946B0
:1045B800104600F023F902467B68B3F886301946A6
:1045C800104600F01BF902467B68B3F8883019469C
:1045D800104600F013F902467B68B3F88A30194692
:1045E800104600F00BF902467B68B3F88C30194688
:1045F800104600F003F902467B68B3F88E3019467E
:10460800104600F0FBF802467B68B3F89030194674
:10461800104600F0F3F802467B68B3F8923019466A
:10462800104600F0EBF822E07B689B680433002119
:10463800184600F0C5F803462B2B0CBF01230023B6
:10464800DBB2002B13D07B689B680433184600F05C
:10465800C6F87B689B6804334F21184600F00AF9B6
:104668007B689B6804334B21184600F003F97B688C
:10467800002283F862207B68002283F863207B682D
:104688009B680433184600F012F90346002B14BF48
:1046980001230023DBB2002B05D07B689B681846FA
:1046A80000F014F904E07B689B68184600F030F9C4
:1046B80000BF1437BD4690BD80B582B000AF7860AA
:1046C80039607B683A681A607B680433184600F0E2
:1046D8003BF97B6818460837BD4680BD80B584B075
:1046E80000AFF860B9607A603B60FB68BA681A602E
:1046F800FB687A685A60FB683A689A60FB68BA692E
:10470800DA60FB68FA691A61FB68143300221A60E0
:104718005A609A60DA601A61FB68002283F82820E0
:10472800FB6800225A85FB682C331846FCF7FAFD13
:10473800FB683C331846FCF7F5FDFB684C33192140
:104748001846FCF707FEFB68002283F85C20FB682C
:104758000022A3F85E20FB680022A3F86020FB6813
:10476800002283F86220FB68002283F86320FB683C
:10477800012283F86420FB686833F968184600F062
:10478800EFF8FB687033F968184600F007F9FB6822
:104798007A3300221A605A609A60DA601A615A61A4
:1047A8001A83386800F0B4F8FB682C334FF4FA61C8
:1047B8001846FCF719FEFB6818461037BD4680BD41
:1047C80080B483B000AF786039607A683B6813447E
:1047D80002331B7818460C37BD4680BC704780B43E
:1047E80083B000AF78607B6800221A707B68002273
:1047F8005A7000BF0C37BD4680BC704780B584B086
:1048080000AF78600B467B8007F10E0307F10F02BB
:104818007988786800F0E0F8BB7B1946786800F082
:10482800F0F80246FB7B1946104600F0EAF87B6870
:1048380018461037BD4680BD80B584B000AF78609B
:104848000B467B80798807F10E0307F10F02786821
:1048580000F0C2F8BB7B1946786800F0D2F802462F
:10486800FB7B1946104600F0CCF87B6818461037D9
:10487800BD4680BD80B483B000AF78600B46FB7046
:104888007B685B78192B0CD87B685B781A467B6849
:104898001344FA789A707B685B780133DAB27B68E4
:1048A8005A707B6818460C37BD4680BC704780B488
:1048B80083B000AF78607B685A787B681B78D31A1E
:1048C800DBB218460C37BD4680BC704790B583B044
:1048D80000AF78607B680433184600F0AFF80446F0
:1048E8007B6804331846FFF7E2FF03469BB21A467B
:1048F8002146064804F09EF97B681B68012118468A
:10490800FDF7EDF900BF0C37BD4690BD84020020CD
:1049180080B582B000AF78607B680433184600F039
:104928008DF803461A221946064804F0EFF97B6809
:104938001B6800211846FDF7D2F900BF0837BD46AD
:1049480080BD00BF8402002080B582B000AF7860CF
:104958007868FFF744FF7B6818460837BD4680BD76
:1049680080B582B000AF786039607B681846FCF784
:104978007FFF094A7B681A607B683A685A603B681F
:104988001B697A6811461846FCF793FD7B68184640
:104998000837BD4680BD00BFC8AB000880B582B0EF
:1049A80000AF786039607B681846FCF761FF094AF8
:1049B8007B681A607B683A685A603B68DB687A688B
:1049C80011461846FCF775FD7B6818460837BD4642
:1049D80080BD00BFBCAB000880B487B000AFF860F2
:1049E8007A603B600B467B817B89BB823A7D7B6822
:1049F8001A707A7D3B681A7000BF1C37BD4680BCB0
:104A0800704780B483B000AF78600B46FB707B685A
:104A18005B78192B0CD87B685B781A467B68134443
:104A2800FA789A707B685B780133DAB27B685A70DF
:104A38007B6818460C37BD4680BC704780B483B08D
:104A480000AF78607B68023318460C37BD4680BCDF
:104A58007047000080B582B000AF786039607B682D
:104A6800012B07D13B684FF6FF72934202D10348EE
:104A7800FCF7D8FB00BF0837BD4680BD9800002072
:104A880080B582B000AF78607B685B68184600F03C
:104A980011F800BF0837BD4680BD80B582B000AFB1
:104AA80078607B685B68184600F011F800BF08372B
:104AB800BD4680BD80B582B000AF78607B689B68DA
:104AC8001846FFF725FF00BF0837BD4680BD80B5F3
:104AD80082B000AF78607B68012283F862207B682F
:104AE8002C331846FCF7ADFC00BF0837BD4680BD27
:104AF80080B500AF4FF6FF710120FFF7ABFF80BD17
:104B080080B485B000AF154B9B69144A43F001038C
:104B18009361124B9B6903F00103BB60BB680F4BA9
:104B2800DB690E4A43F08053D3610C4BDB6903F019
:104B380080537B607B680A4B5B68FB60FB6823F0F3
:104B4800E063FB60FB6843F00073FB60044AFB68AA
:104B5800536000BF1437BD4680BC70470010024048
:104B68000000014080B58AB000AF786007F11803F3
:104B780000221A605A609A60DA607B681B68444AAF
:104B8800934252D1434B9B69424A43F40073936169
:104B9800404B9B6903F400737B617B693D4B9B69C8
:104BA8003C4A43F0040393613A4B9B6903F00403C6
:104BB8003B613B690B23BB610323FB6107F11803CE
:104BC8001946354802F074F8344B354A1A60334BAD
:104BD80000225A60314B00229A60304B8022DA6002
:104BE8002E4B4FF480721A612C4B4FF480625A613D
:104BF8002A4B00229A61294B0022DA61274801F0EA
:104C0800D5FB0346002B01D0FFF754FA7B68234AF3
:104C18001A62224A7B68536200220121122001F0A5
:104C28008EFB122001F0A7FB2EE07B681B681D4A53
:104C3800934229D1174B9B69164A43F480639361C9
:104C4800144B9B6903F48063FB60FB68114B9B6901
:104C5800104A43F0040393610E4B9B6903F004036D
:104C6800BB60BB68F023BB610323FB6107F118033A
:104C78001946094802F01CF800220121122001F00F
:104C88005EFB122001F077FB00BF2837BD4680BDD0
:104C98000024014000100240000801406801002083
:104CA800080002400028014080B485B000AF786059
:104CB8007B681B68124A93420CD1124B9B69114ABC
:104CC80043F4006393610F4B9B6903F40063FB603B
:104CD800FB6810E07B681B680B4A93420BD1094BB9
:104CE800DB69084A43F00403D361064BDB6903F030
:104CF8000403BB60BB6800BF1437BD4680BC704767
:104D0800002C0140001002400008004080B584B02B
:104D180000AF78607B681B680D4A934213D10D4B36
:104D2800DB690C4A43F00203D3610A4BDB6903F0E9
:104D38000203FB60FB68002200211D2001F0FFFA3E
:104D48001D2001F018FB00BF1037BD4680BD00BF15
:104D5800000400400010024080B58AB000AF7860BF
:104D680007F1180300221A605A609A60DA607B68BB
:104D78001B682B4A934232D12A4B9B69294A43F03C
:104D880008039361274B9B6903F008037B617B69E8
:104D9800244B9B69234A43F004039361214B9B698D
:104DA80003F004033B613B694FF46043BB6102239A
:104DB800FB6102237B6207F1180319461A4801F0C8
:104DC80077FF4FF4E063BB610223FB6102237B6240
:104DD80007F118031946154801F06AFF1CE07B68C3
:104DE8001B68134A934217D10E4B9B690D4A43F037
:104DF800080393610B4B9B6903F00803FB60FB6896
:104E08004023BB610223FB6102237B6207F1180385
:104E18001946054801F04CFF00BF2837BD4680BD44
:104E2800002C014000100240000C01400008014025
:104E38000008004080B58AB000AF786007F114031D
:104E480000221A605A609A60DA607B681B68504AD0
:104E5800934240F099804F4BDB694E4A43F48023DC
:104E6800D3614C4BDB6903F480233B613B69494BBD
:104E78009B69484A43F010039361464B9B6903F0D2
:104E88001003FB60FB684FF480637B610223BB6106
:104E980003233B6207F1140319463F4801F008FF5A
:104EA8004FF400637B610023BB610023FB6107F1C2
:104EB80014031946384801F0FBFE384B5B687B62E7
:104EC8007B6A23F030037B627B6A43F0E0637B629A
:104ED8007B6A43F010037B62304A7B6A5360304B35
:104EE800304A1A602E4B10225A602D4B00229A60CD
:104EF8002B4B8022DA602A4B00221A61284B0022B1
:104F08005A61274B00229A61254B4FF48052DA618F
:104F1800234801F04BFA0346002B01D0FFF7CAF8EB
:104F28007B681F4A5A631E4A7B6853621E4B1F4A9E
:104F38001A601D4B00225A601B4B00229A601A4BC4
:104F48008022DA60184B00221A61174B00225A613E
:104F5800154B00229A61144B0022DA61124801F0C5
:104F680025FA0346002B01D0FFF7A4F87B680E4A08
:104F78009A630D4A7B68536200220221272001F0C0
:104F8800DEF9272001F0F7F900BF2837BD4680BDBC
:104F9800004800400010024000100140000001409D
:104FA800C80200201C0002400C0300203000024010
:104FB80080B400AFFEE780B400AFFEE780B400AF76
:104FC800FEE780B400AFFEE780B400AFFEE780B430
:104FD80000AF00BFBD4680BC704780B400AF00BFC3
:104FE800BD4680BC704780B400AF00BFBD4680BCE2
:104FF800704780B500AFFCF739F900BF80BD0000ED
:1050080080B500AF024801F0E9FB00BF80BD00BFDA
:105018006801002080B500AF024801F0DFFB00BF47
:1050280080BD00BFC802002080B500AF024801F073
:10503800D5FB00BF80BD00BF0C03002080B500AFCA
:10504800034800F0CEFA034800F0CBFA00BF80BD59
:10505800080100203801002080B500AF024802F0A6
:1050680013FF00BF80BD00BFF401002080B500AF72
:10507800024803F09BFE00BF80BD00BF84020020F1
:1050880080B400AF01231846BD4680BC704780B588
:1050980082B000AF7860396005F0E0FC0346162264
:1050A8001A604FF0FF3318460837BD4680BD80B5FB
:1050B80082B000AF78604FF0FF317868FFF7E7FF04
:1050C800FEE780B400AF00BFBD4680BC704700005B
:1050D8000C480D490D4A002302E0D458C45004334B
:1050E800C4188C42F9D30A4A0A4C002301E0136021
:1050F8000432A242FBD3FFF7E4FF05F0B5FCFEF74C
:10510800E9FA704700000020780000208CAC000805
:105118007800002070030020FEE7000080B500AF93
:10512800084B1B68074A43F010031360032001F083
:10513800FBF8012000F008F8FFF7E2FC002318460E
:1051480080BD00BF0020024080B582B000AF78600B
:10515800124B1A68124B1B7819464FF47A73B3FB3B
:10516800F1F3B2FBF3F3184601F013F90346002BF1
:1051780001D001230EE07B680F2B0AD80022796842
:105188004FF0FF3001F0DBF8064A7B68136000231C
:1051980000E0012318460837BD4680BD0000002006
:1051A800080000200400002080B400AF024B1B68F8
:1051B8001846BD4680BC70476803002080B586B09D
:1051C80000AF78600023FB7500233B610023BB60C0
:1051D8000023FB607B68002B01D10123CEE07B68B4
:1051E8009B68002B7B689B6A002B09D17B68002297
:1051F800DA627B68002283F824207868FFF7B2FC23
:10520800786800F06BFC0346FB757B689B6A03F0CB
:105218001003002B40F0A980FB7D002B40F0A580F7
:105228007B689B6A23F4885323F0020343F002024D
:105238007B689A627B685A687B681B6851498B4215
:105248000AD17B68DB69B3F5402F02D07B68DB6944
:1052580004E04FF4002301E07B68DB691A437B68B4
:105268001B7B5B001343BA681343BB607B689B6876
:10527800B3F5807F03D07B689B68012B02D14FF484
:10528800807300E000233A6913433B617B681B7D10
:10529800012B19D17B681B7B002B09D17B689B698B
:1052A800013B5A033B69134343F400633B610BE042
:1052B8007B689B6A43F020027B689A627B68DB6AA2
:1052C80043F001027B68DA627B681B685B6823F441
:1052D80069417B681B683A690A435A607B681B68A6
:1052E8009A68294B13407A681268B9680B4393602F
:1052F8007B689B68B3F5807F03D07B689B68012B34
:1053080004D17B681B69013B1B05FB607B681B683C
:10531800DB6A23F470017B681B68FA680A43DA6267
:105328007B681B689A68194B1340BA689A420BD17C
:105338007B680022DA627B689B6A23F0030343F0F0
:1053480001027B689A6218E07B689B6A23F012036B
:1053580043F010027B689A627B68DB6A43F00102C3
:105368007B68DA620123FB7507E07B689B6A43F080
:1053780010027B689A620123FB75FB7D184618377B
:10538800BD4680BD003C0140FDF7E1FFFE0E1FFF5A
:1053980080B586B000AFF860B9607A600023FB750D
:1053A800FB681B68644A934204D0FB681B68634A25
:1053B800934206D1604B5B6803F47023002B40F0E6
:1053C800B380FB6893F82430012B01D10223AEE0AF
:1053D800FB68012283F82420F86800F025FB0346C7
:1053E800FB75FB7D002B40F09A80FB689B6A23F4D9
:1053F800706323F0010343F48072FB689A62FB68D0
:105408001B684E4A934205D14B4B5B6803F47023EB
:10541800002B15D1FB689B6A23F48012FB689A6203
:10542800FB681B685B6803F48063002B26D0FB686D
:105438009B6A23F4405343F48052FB689A621DE050
:10544800FB689B6A43F48012FB689A62FB681B68DE
:10545800394A934204D0FB681B68384A93420DD1FD
:10546800354B5B6803F48063002B07D0FB689B6AAD
:1054780023F4405343F48052FB689A62FB689B6AAA
:1054880003F48053002B06D0FB68DB6A23F0060286
:10549800FB68DA6202E0FB680022DA62FB6800223D
:1054A80083F82420FB681B6A254A9A62FB681B6AFA
:1054B800244ADA62FB681B6A234A1A63FB681B6882
:1054C8006FF002021A60FB681B689A68FB681B6829
:1054D80042F480729A60FB68186AFB681B684C3358
:1054E8001946BA687B6800F0D7FFFB681B689B68A1
:1054F80003F46023B3F5602F08D1FB681B689A6832
:10550800FB681B6842F4A0029A600FE0FB681B6806
:105518009A68FB681B6842F480129A6006E0FB6890
:10552800002283F8242001E00123FB75FB7D184647
:105538001837BD4680BD00BF002401400028014047
:10554800675B0008E35B0008FF5B000880B584B078
:1055580000AF78600023FB737B6893F82430012B3D
:1055680001D1022339E07B68012283F8242078687E
:1055780000F0B4FA0346FB73FB7B002B28D17B6851
:105588001B689A687B681B6822F480729A607B6843
:105598001B6A93F82130022B1AD17B681B6A1846C4
:1055A80000F0D9FF0346FB73FB7B002B0AD17B6815
:1055B8009B6A23F4885323F0010343F001027B68BC
:1055C8009A6205E07B689B6A43F040027B689A62B6
:1055D8007B68002283F82420FB7B18461037BD46E1
:1055E80080BD80B582B000AF78607B681B685B685F
:1055F80003F02003202B40D17B681B681B6803F055
:105608000203022B39D17B689B6A03F01003002B3D
:1056180005D17B689B6A43F400727B689A627B6859
:105628001B689B6803F46023B3F5602F1DD17B686A
:105638001B7B002B19D17B681B685A687B681B6829
:1056480022F020025A607B689B6A23F480727B6890
:105658009A627B689B6A03F48053002B05D17B68B0
:105668009B6A43F001027B689A627868FCF7C6FA85
:105678007B681B686FF012021A607B681B685B68A6
:1056880003F08003802B4FD17B681B681B6803F0F5
:105698000403042B48D17B689B6A03F01003002B9A
:1056A80005D17B689B6A43F400527B689A627B68E9
:1056B8001B689B6803F4E043B3F5E04F12D07B68A6
:1056C8001B685B6803F48063002B25D17B681B682B
:1056D8009B6803F46023B3F5602F1DD17B681B7BA7
:1056E800002B19D17B681B685A687B681B6822F0FD
:1056F80080025A607B689B6A23F480527B689A62B6
:105708007B689B6A03F48073002B05D17B689B6AD6
:1057180043F001027B689A627868FCF783FA7B6839
:105728001B686FF00C021A607B681B685B6803F0EB
:105738004003402B14D17B681B681B6803F00103EE
:10574800012B0DD17B689B6A43F480327B689A6297
:105758007868FDF7ABFF7B681B686FF001021A6081
:1057680000BF0837BD4680BD80B483B000AF786005
:1057780000BF0C37BD4680BC704780B483B000AF13
:10578800786000BF0C37BD4680BC704780B485B0D8
:1057980000AF786039600023FB730023BB607B682F
:1057A80093F82430012B01D10223DCE07B6801222D
:1057B80083F824203B685B68062B1CD87B681B6831
:1057C800596B3B685A6813469B001344053B1F22DC
:1057D80002FA03F3DB4319403B6818683B685A68D0
:1057E80013469B001344053B00FA03F27B681B68D1
:1057F8000A435A633CE03B685B680C2B1CD87B6807
:105808001B68196B3B685A6813469B001344233B7B
:105818001F2202FA03F3DB4319403B6818683B6810
:105828005A6813469B001344233B00FA03F27B6833
:105838001B680A431A631BE07B681B68D96A3B68CC
:105848005A6813469B001344413B1F2202FA03F394
:10585800DB4319403B6818683B685A6813469B004D
:105868001344413B00FA03F27B681B680A43DA627F
:105878003B681B68092B1CD97B681B68D9683B6887
:105888001A6813465B0013441E3B072202FA03F30F
:10589800DB4319403B6898683B681A6813465B000D
:1058A80013441E3B00FA03F27B681B680A43DA6064
:1058B80019E07B681B6819693B681A6813465B0026
:1058C8001344072202FA03F3DB4319403B68986844
:1058D8003B681A6813465B00134400FA03F27B68BE
:1058E8001B680A431A613B681B68102B03D03B688E
:1058F8001B68112B32D17B681B681D4A934225D146
:105908007B681B689B6803F40003002B26D17B6827
:105918001B689A687B681B6842F400029A603B68BF
:105928001B68102B1AD1134B1B68134AA2FB0323C5
:105938009A0C13469B0013445B00BB6002E0BB68F3
:10594800013BBB60BB68002BF9D107E07B689B6A11
:1059580043F020027B689A620123FB737B68002274
:1059680083F82420FB7B18461437BD4680BC70475B
:10597800002401400000002083DE1B4380B483B074
:1059880000AF786039603B681B68244A934203D0B3
:105998003B681B68224A93427B6893F82430012BAA
:1059A80001D1022335E07B68012283F824203B687B
:1059B8001B7A012B08D17B681B685A687B681B68B7
:1059C80042F040025A6007E07B681B685A687B68AF
:1059D8001B6822F040025A607B681B685A68114BAA
:1059E80013403A6811683A68526811437A68126835
:1059F8000B4353607B681B683A68D2685A627B68BD
:105A08001B683A6812699A627B68002283F824202E
:105A1800002318460C37BD4680BC70470002800042
:105A280000024000E0FD3FFF80B584B000AF786021
:105A38000023FB600023BB607B681B689B6803F046
:105A48000103012B40D07B681B689A687B681B6840
:105A580042F001029A601F4B1B681F4AA2FB0323F6
:105A68009B0CBB6002E0BB68013BBB60BB68002BC2
:105A7800F9D1FFF799FBF8601FE0FFF795FB0246A5
:105A8800FB68D31A022B18D97B681B689B6803F044
:105A98000103012B11D07B689B6A43F010027B68DD
:105AA8009A627B68DB6A43F001027B68DA627B6892
:105AB800002283F82420012307E07B681B689B6889
:105AC80003F00103012BD8D1002318461037BD4637
